:020000040800F2
:1000000000500020D9170008FD160008031700084B
:10001000091700080F170008151700080000000056
:100020000000000000000000000000001B17000896
:100030002717000800000000331700083F170008CA
:1000400021180008211800082118000821180008AC
:10005000211800082118000821180008211800089C
:10006000211800082118000821180008211800088C
:10007000211800082118000821180008211800087C
:10008000211800082118000821180008211800086C
:10009000211800082118000821180008211800085C
:1000A000211800082118000821180008211800084C
:1000B0004D17000821180008211800082118000811
:1000C000211800082118000821180008211800082C
:1000D000211800082118000821180008211800081C
:1000E000211800082118000821180008000000004D
:1000F0000000000000000000000000000000000000
:0C01000000000000000000005FF808F1A3
:1001100010B5054C237833B9044B13B10448AFF341
:1001200000800123237010BD70000020000000003B
:100130008C4B000808B5034B1BB103490348AFF3D0
:10014000008008BD00000000740000208C4B0008F7
:1001500053B94AB9002908BF00281CBF4FF0FF312E
:100160004FF0FF3000F06EB9ADF1080C6DE904CE30
:1001700000F006F8DDF804E0DDE9022304B0704782
:100180002DE9F047089E0D4604468E46002B40F0B0
:1001900083808A42174647D9B2FA82F34BB1C3F142
:1001A000200105FA03FE20FA01F19F4041EA0E0EFC
:1001B0009C404FEA1748BEFBF8FC1FFA87F908FB82
:1001C0001CE20CFB09F0210C41EA024290420AD9E0
:1001D000BA180CF1FF3180F01881904240F215817D
:1001E000ACF1020C3A44121AB2FBF8F008FB1022F0
:1001F00000FB09F1A4B244EA0244A14209D93C1926
:1002000000F1FF3280F00381A14240F20081023808
:100210003C44641A002140EA0C401EB10022DC403C
:10022000C6E90042BDE8F08702B9FFDEB2FA82F308
:10023000002B4FD18D1A01214FEA124E1FFA82F87E
:10024000B5FBFEFC0EFB1C5508FB0CF0220C42EA31
:100250000545A84207D97D190CF1FF3202D2A84208
:1002600000F2E98094462D1AB5FBFEF00EFB105506
:1002700008FB00F8A4B244EA0544A04507D93C199C
:1002800000F1FF3202D2A04500F2D9801046A4EB63
:10029000080440EA0C40C0E78B4208D9002E00F069
:1002A000B1800021C6E900050846BDE8F087B3FA31
:1002B00083F100294BD1AB4202D3824200F2B980D4
:1002C000841A65EB030301209E46002EAAD0C6E9DE
:1002D000004EA7E79F40C3F12002D1404FEA174EDE
:1002E000B1FBFEF01FFA87F80EFB101124FA02F2A0
:1002F0009D4000FB08FC2A43150C45EA0145AC452E
:1003000004FA03F409D97D1900F1FF3180F08F80E0
:10031000AC4540F28C8002383D44A5EB0C05B5FBA2
:10032000FEF10EFB115C01FB08F995B245EA0C45A4
:10033000A94507D97D1901F1FF3274D2A94572D9B7
:1003400002393D44A5EB090541EA004178E7C1F1D6
:1003500020078B4022FA07FC4CEA030C25FA07F42D
:100360004FEA1C4EB4FBFEF91FFA8CF80EFB194441
:1003700020FA07F309FB08FA8D401D432B0C43EAD2
:100380000444A24502FA01F200FA01F309D91CEB78
:10039000040409F1FF3048D2A24546D9A9F1020967
:1003A0006444A4EB0A04B4FBFEF00EFB104400FB13
:1003B00008FAADB245EA0444A24508D91CEB04048E
:1003C00000F1FF352DD2A2452BD90238644440EA12
:1003D0000940A0FB0289A4EB0A044C45C6464D46E1
:1003E00019D316D05EB1B3EB0E0264EB050404FA28
:1003F00007F722FA01F31F43CC40C6E9007400213D
:10040000BDE8F087314630460CE78C46EBE61046F7
:10041000FFE64345E6D2B8EB020E69EB0C05013866
:10042000E0E72846D3E711468CE78146B9E708465E
:1004300073E7084649E7ACF1020C3D4413E7023884
:100440003C4424E7704700BF80B584B000AF7860BB
:100450000B46FB707B681B68FA781146184600F063
:10046000D0FB7B681B68184600F0EBFB0346FB7370
:100470007B681B680121184600F088FBFB7B18464F
:100480001037BD4680BD80B582B000AF78600B46A6
:10049000FB701346BB707B681B680021184600F098
:1004A00075FB7B681A68FB7863F07F03DBB2194643
:1004B000104600F0A6FB7B681B68BA781146184608
:1004C00000F09FFB7B681B680121184600F05EFB73
:1004D00000BF0837BD4680BD90B587B000AFF8605B
:1004E0007A601A460B46FB721346BB72BB7A012B2D
:1004F00027D9FB681B680021184600F047FBFB6802
:100500001B68FA7A1146184600F07BFB0023FB7546
:100510000CE0FB681968FB7D7A68D418084600F087
:1005200090FB03462370FB7D0133FB75FA7DBB7A9C
:100530009A42EED3FB681B680121184600F026FBA7
:1005400000E000BF1C37BD4690BD80B586B000AF4F
:10055000F8607A601A460B46FB721346BB72BB7A90
:10056000012B29D9FB681B680021184600F00EFBFF
:10057000FB681A68FB7A63F07F03DBB2194610460A
:1005800000F03FFB0023FB750BE0FB681868FB7D68
:100590007A6813441B78194600F033FBFB7D013366
:1005A000FB75FA7DBB7A9A42EFD3FB681B68012189
:1005B000184600F0EBFA00E000BF1837BD4680BDDA
:1005C00080B586B000AF7860786800F00DF90F2034
:1005D00000F05DFB786800F017F97B68D3E902232F
:1005E0004FF000004FF00001D90441EA5231D0042D
:1005F0006F4A4FF00003FFF7ABFD02460B46C7E919
:100600000423D7E904014FF000024FF00003020C6D
:1006100042EA01420B0CD3B23B73D7E904014FF01D
:1006200000024FF00003020A42EA01620B0AD3B251
:100630007B733B7CBB7307F10C02032306217868B4
:10064000FFF783FF342239217868FFF71CFF7B68AE
:100650001B7C1A46574B9B5C1A4609217868FFF7AA
:1006600012FF0B220B217868FFF70DFF23220C21CC
:100670007868FFF708FF7B685B7C1A464E4B9B5CF3
:10068000062B47D17B689B7C1A464C4B9B5C1B011D
:10069000DAB27B68DB7C1946494B5B5C5B00DBB202
:1006A0001344DBB20133DBB21A461D217868FFF731
:1006B000EAFE7B685B7C1A463F4B9B5C1B01DAB20F
:1006C0007B681B7D19463F4B5B5C9B00DBB2134490
:1006D000DBB20333DBB21A461E217868FFF7D3FE84
:1006E00031217868FFF7B0FE0346FB73FB7B23F0F4
:1006F0000703FB73FB7B43F00503FB73FB7B1A468D
:1007000031217868FFF7BFFE0C2237217868FFF7A8
:10071000BAFE29E07B689B7C1A46284B9B5C1B0138
:10072000DAB27B68DB7C1946254B5B5C5B00DBB295
:100730001344DBB21A461D217868FFF7A4FE7B68DC
:100740005B7C1A461C4B9B5C1B01DAB27B681B7DF1
:1007500019461C4B5B5C9B00DBB21344DBB21A46B0
:100760001E217868FFF78FFE042226217868FFF7A4
:100770008AFE08221F217868FFF785FE00222021CB
:100780007868FFF780FE082221217868FFF77BFE5A
:10079000012241217868FFF776FE7B68002283F80A
:1007A0001721786800F010F800BF1837BD4680BDEB
:1007B0000048E8017C4E0008804E0008884E000882
:1007C000944E0008984E000880B582B000AF786063
:1007D000092201217868FFF756FE7B6801229A758D
:1007E00000BF0837BD4680BD80B582B000AF7860DD
:1007F000082201217868FFF746FE7B6800229A757F
:1008000000BF0837BD4680BD80B582B000AF7860BC
:10081000882201217868FFF736FE00BF0837BD4601
:1008200080BD80B582B000AF7860FF221221786869
:10083000FFF729FE00BF0837BD4680BD80B586B0F2
:1008400000AFF8600B467A60FB72FB68FA7A5A7563
:10085000F868FFF7B5FE84224D21F868FFF713FE14
:10086000FF222421F868FFF70EFE01224021F868DC
:10087000FFF709FE3F221121F868FFF704FEF86830
:10088000FFF7CFFFFB7A1A462221F868FFF7FBFD3E
:100890000F21F868FFF7D8FD0346FB75FB7D1A466C
:1008A0000D21F868FFF7EFFD8D220121F868FFF7B1
:1008B000EAFDFB68002283F817211821F868FFF78A
:1008C000C3FD034603F00403042B04D1FB68032299
:1008D0009A75012313E07B68013B7B607B68002BEA
:1008E00009D1FB681B68184600F067F9F868FFF744
:1008F00067FE002303E0012000F0C9F9DDE7184698
:100900001837BD4680BD80B584B000AF78607B6885
:100910001B68184600F0C6F90346002B30D07B68F0
:1009200017334FF480720021184603F031FC102178
:100930007868FFF789FD0346BB73BB7B1A460D2120
:100940007868FFF7A0FD7B685B7C002B03D17B6898
:100950005B7DFB7305E013217868FFF775FD0346A7
:10096000FB737B6803F11702FB7B00217868FFF7BC
:10097000B3FD7B68FA7B83F817217868FFF751FF96
:100980007B6893F8173118461037BD4680BD80B597
:1009900086B000AFF8600B467A60FB72FB68FA7AAB
:1009A0005A75F868FFF70CFE87224D21F868FFF7AB
:1009B0006AFD00222421F868FFF765FD41224021ED
:1009C000F868FFF760FDF868FFF72BFFF7221121A9
:1009D000F868FFF758FDFB7A1A462221F868FFF7FE
:1009E00052FD0E21F868FFF72FFD0346FB75FB7DD6
:1009F0001A460D21F868FFF746FD2221F868FFF737
:100A000023FD0346BB75BA7DFB7A9A4204D1FB688D
:100A100002229A7501230EE07B68013B7B607B68B4
:100A2000002BEAD1FB681B68184600F0C6F8F8688E
:100A3000FFF7C6FD002318461837BD4680BD80B5B8
:100A400084B000AFF860B9603B601346FB71FB797E
:100A5000BA680021F868FFF778FD8B220121F86859
:100A6000FFF711FDFB681B68184600F01BF90346F1
:100A7000002B0BD01221F868FFF7E6FCF868FFF7AF
:100A8000D0FEF868FFF7A0FE012313E03B68013BAE
:100A90003B603B68002B09D1FB681B68184600F0DF
:100AA0008CF8F868FFF78CFD002303E0012000F0CC
:100AB000EEF8D7E718461037BD4680BD80B584B044
:100AC00000AFF860C7E90023FB681B68184600F018
:100AD00048F8F968D7E90023C1E90223FB683A7EA8
:100AE0001A74FB683A7F5A74FB6897F820209A744E
:100AF000FB6897F82420DA74FB6897F828201A75A9
:100B0000FB6897F82C205A75F868FFF759FD00BF6D
:100B10001037BD4680BD80B584B000AFF860B960C5
:100B20001346FB71FB6893F81731FA799A4203D0A8
:100B3000FB6893F81731FB71FB681733FA79194694
:100B4000B86803F017FBFB79BA68134400221A70E7
:100B5000FB68002283F81721FB7918461037BD4641
:100B600080BD80B582B000AF78600121786800F068
:100B70000DF87B6858687B681B689BB20122194698
:100B800001F067FB00BF0837BD4680BD80B582B06D
:100B900000AF786039607B6858697B681B6999B2DF
:100BA0003B68012B0CBF01230023DBB21A4601F086
:100BB00050FB00BF0837BD4680BD80B582B000AF96
:100BC000786001217868FFF7E1FF7B6858687B68EF
:100BD0001B689BB20022194601F03BFB012000F08C
:100BE00056F87B6858687B681B689BB201221946DF
:100BF00001F02FFB642000F04AF800BF0837BD4623
:100C000080BD80B582B000AF78600B46FB700021DC
:100C10007868FFF7BBFF7B689869F91C4FF47A731B
:100C2000012202F07BFB00BF7B689B69184602F043
:100C300062FE0346012BF7D100BF00BF0837BD4657
:100C400080BD80B586B002AF78600023FB730023BF
:100C5000BB7300217868FFF799FF7B68986907F1FB
:100C60000E0207F10F014FF47A730093012302F093
:100C700099FC00BF7B689B69184602F03CFE034666
:100C8000012BF7D1BB7B18461037BD4680BD80B520
:100C900082B000AF7860786800F026FE00BF0837A9
:100CA000BD4680BD80B582B000AF78607B68DA68F1
:100CB0007B689B689BB21946104601F0B3FA034665
:100CC000012B0CBF01230023DBB218460837BD46B9
:100CD00080BD00000FB480B592B000AF0023BB60B0
:100CE00007F10C033C220021184603F051FA07F1EA
:100CF00054037B6007F108007B683A6D402103F0E4
:100D00002BFB07F1080164234022054803F02FF86C
:100D100000BF4837BD46BDE8804004B0704700BF03
:100D20004003002080B584B000AF78601248FFF720
:100D3000D1FF0123FB7313E0FB7B9BB25B0099B2F5
:100D40000A230222786801F0F9FB0346002B04D144
:100D5000FB7B19460948FFF7BDFFFB7B0133FB73A3
:100D600097F90F30002BE7DA0548FFF7B3FF00BF14
:100D70001037BD4680BD00BFC44B0008E04B0008E3
:100D8000FC4B000880B58CB000AFF860B9607A60A9
:100D90003B609D4B1B68002B73D19C48FFF79AFF6B
:100DA00000F098FDB8611CE0FA689949994803F091
:100DB000F7F90346984A1360974B1B68DBB24FF470
:100DC000FA6219469548FFF7E2FD934B1B68DAB2C9
:100DD0004FF4FA638F499148FFF731FE782000F015
:100DE00083FD00F077FD0246BB69D31A3A689A4248
:100DF000DAD84FF4FA6210218848FFF71FFD00F09F
:100E000069FDB86130E08548FFF77DFD03461A466D
:100E1000834B1A60824B1B68002B22DD4FF400725B
:100E200000217C4803F0B4F97D4B1B68DBB21A4605
:100E300078497A48FFF76FFE764803F06DF97861DC
:100E40007B69002B0DDDBB687A691A60BB681B6883
:100E500019467448FFF73EFF6B4B01221A600123CD
:100E6000CEE00A2000F040FD00F034FD0246BB69F0
:100E7000D31A3A689A42C6D86B48FFF72BFF002373
:100E8000BEE06A48FFF726FF00F024FDF862002369
:100E900087F82B309FE04FF4FA6210215F48FFF78C
:100EA000CDFC5E48FFF72FFD03461A465C4B1A60E7
:100EB0005B4B1B68002B40F38B8000F00BFDF8624E
:100EC0004FF400720021534803F062F9544B1B6841
:100ED000DBB21A464F495148FFF71DFE4D4803F05B
:100EE0001BF9F861FB69002B03DC0A2000F0FCFC15
:100EF00071E0F9694E48FFF7EDFE002387F82A30CC
:100F000000237B620EE07B6A9B007A6813441B68B7
:100F1000FA699A4203D1012387F82A3005E07B6AF7
:100F200001337B627B6A042BEDDD97F82A3083F076
:100F30000103DBB2002B1ED000233B6218E03B6AAA
:100F40009B007A6813441B68002B0ED13B6A9B0000
:100F50007A681344FA691A603A6AF9693548FFF702
:100F6000B9FE012387F82B3005E03B6A01333B6271
:100F70003B6A042BE3DD7B6810331B68002B2AD10E
:100F8000142000F0B1FCFA682149224803F008F966
:100F90000346214A13601F492748FFF79BFE1E4B5B
:100FA0001B68DBB24FF4FA6219461C48FFF7EFFCEE
:100FB000052000F099FC184B1B68DAB24FF4FA6375
:100FC00014491648FFF73BFD502000F08DFC02E06D
:100FD000142000F089FC00F07DFC0246FB6AD31A65
:100FE0003A689A423FF657AF97F82B30002B03D060
:100FF0001248FFF76FFE02E01148FFF76BFE012376
:1010000018463037BD4680BD8C020020E44C0008F5
:101010006C4C00088C000020B40200203804002032
:1010200054050020004D00081C4D00084C4D0008E0
:10103000384C0008504C0008784D0008A44D0008BA
:10104000D04D000880B500AF4FF40051024801F0C8
:1010500018F900BF80BD00BF001001400000000073
:1010600080B586B006AF00F0DDFB00F069F800F057
:1010700083F900F0F3F800F01FF900F053F900F0E5
:10108000AFF82548FFF74EFE244B254ADA60234B84
:1010900004229A60214B224A5A61204B10221A6185
:1010A0001E4B1F4A5A601D4B08221A601B4B1D4ADB
:1010B0009A611D4B194A1A601C48FFF70BFE0A2360
:1010C0000593002304930023039307230293012332
:1010D0000193002300930EA3D3E900231248FFF7E6
:1010E000EDFC1348FFF7F6FD4FF4FA6210210E48AD
:1010F000FFF7A4FB03460F4A13600F4B1B6819460A
:101100004FF4FA630D4A0120FFF73CFEF5E700BFFC
:101110008050DE1900000000B802002058050020B1
:10112000000801408803002038040020404E0008D9
:101130005C4E000854050020B00200209002002000
:1011400080B594B000AF07F128032822002118468B
:1011500003F01EF807F1140300221A605A609A6027
:10116000DA601A613B1D00221A605A609A60DA60E8
:101170000223BB620123BB631023FB6300237B6458
:1011800007F12803184601F081FB0346002B01D02C
:1011900000F06DF90F237B610023BB610023FB612D
:1011A00000233B6200237B6207F1140300211846F1
:1011B00001F0ECFD0346002B01D000F058F90223AA
:1011C0007B600023FB603B1D184601F06DFF03466A
:1011D000002B01D000F04BF900BF5037BD4680BD59
:1011E00080B584B000AF3B1D00221A605A609A603F
:1011F000184B194A1A60174B00229A60154B0022AF
:101200001A73144B00221A75124B4FF46022DA61E4
:10121000104B00225A600F4B01221A610D4800F05A
:1012200087FB0346002B01D000F021F900237B60EF
:101230000123BB600023FB603B1D1946054800F0FD
:101240004FFC0346002B01D000F011F900BF10370E
:10125000BD4680BD100300200024014080B500AFD2
:10126000124B134A1A60114B124A5A600F4B00225C
:101270009A600E4B0022DA600C4B4FF480421A61E8
:101280000A4B00225A61094B00229A61074B002247
:10129000DA61064B00221A62044801F00BF803469B
:1012A000002B01D000F0E3F800BF80BDB8020020A1
:1012B00000540040A086010080B500AF174B184ACB
:1012C0001A60164B4FF482725A60144B00229A60D7
:1012D000124B0022DA60114B00221A610F4B0022E0
:1012E0005A610E4B4FF400729A610C4B1822DA616E
:1012F0000A4B00221A62094B00225A62074B002255
:101300009A62064B0A22DA62044801F083FF034620
:10131000002B01D000F0ABF800BF80BD8803002097
:101320000030014080B500AF114B124A1A60104BDB
:101330004FF4E1325A600E4B00229A600C4B0022AF
:10134000DA600B4B00221A61094B0C225A61084BE0
:1013500000229A61064B0022DA61054802F0B7FCD0
:101360000346002B01D000F082F800BF80BD00BF13
:10137000400300200038014080B588B000AF07F17D
:10138000100300221A605A609A60DA602D4B9B6944
:101390002C4A43F0100393612A4B9B6903F010031E
:1013A000FB60FB68274B9B69264A43F0040393616B
:1013B000244B9B6903F00403BB60BB68214B9B6912
:1013C000204A43F0080393611E4B9B6903F0080316
:1013D0007B607B6800224FF400511B4800F039FF0E
:1013E00000221821194800F034FF4FF400533B61EC
:1013F00001237B610023BB610223FB6107F1100322
:101400001946114800F08AFD04233B6100237B61EB
:101410000023BB6107F1100319460C4800F07EFD64
:1014200018233B6101237B610023BB610223FB6125
:1014300007F110031946054800F070FD00BF203782
:10144000BD4680BD00100240001001400008014070
:1014500080B582B000AF78607B681B68B3F1804FC5
:1014600001D1FFF7EFFD00BF0837BD4680BD80B456
:1014700000AF72B600BFFEE780B485B000AF154B79
:101480009B69144A43F001039361124B9B6903F07B
:101490000103BB60BB680F4BDB690E4A43F080530E
:1014A000D3610C4BDB6903F080537B607B680A4B94
:1014B0005B68FB60FB6823F0E063FB60FB6843F064
:1014C0008063FB60044AFB68536000BF1437BD466D
:1014D00080BC7047001002400000014080B588B019
:1014E00000AF786007F1100300221A605A609A601A
:1014F000DA607B681B68144A934221D1134B9B69C5
:10150000124A43F400739361104B9B6903F4007318
:10151000FB60FB680D4B9B690C4A43F0040393612D
:101520000A4B9B6903F00403BB60BB6801233B616A
:1015300003237B6107F110031946054800F0EEFC18
:1015400000BF2037BD4680BD00240140001002408E
:101550000008014080B588B000AF786007F1100343
:1015600000221A605A609A60DA607B681B68154A2C
:10157000934223D1144B9B69134A43F008039361B0
:10158000114B9B6903F00803FB60FB68C0233B61C0
:1015900012237B610323FB6107F1100319460B48FB
:1015A00000F0BCFC084BDB69074A43F40013D3612D
:1015B000054BDB6903F40013BB60BB6800BF203739
:1015C000BD4680BD0054004000100240000C0140A8
:1015D00080B588B000AF786007F1100300221A6070
:1015E0005A609A60DA607B681B681B4A93422FD16D
:1015F0001A4B9B69194A43F480539361174B9B69BB
:1016000003F48053FB60FB68144B9B69134A43F05F
:1016100004039361114B9B6903F00403BB60BB6837
:10162000A0233B6102237B610323FB6107F11003CD
:1016300019460B4800F072FC40233B6100237B619C
:101640000023BB6107F110031946054800F066FC52
:1016500000BF2037BD4680BD003001400010024071
:101660000008014080B588B000AF786007F1100332
:1016700000221A605A609A60DA607B681B681C4A14
:10168000934231D11B4B9B691A4A43F480439361C7
:10169000184B9B6903F48043FB60FB68154B9B6907
:1016A000144A43F004039361124B9B6903F0040353
:1016B000BB60BB684FF400733B6102237B61032373
:1016C000FB6107F1100319460B4800F027FC4FF4AB
:1016D00080633B6100237B610023BB6107F1100342
:1016E0001946054800F01AFC00BF2037BD4680BDF2
:1016F00000380140001002400008014080B400AFF3
:10170000FEE780B400AFFEE780B400AFFEE780B430
:1017100000AFFEE780B400AFFEE780B400AF00BFCB
:10172000BD4680BC704780B400AF00BFBD4680BCE2
:10173000704780B400AF00BFBD4680BC704780B525
:1017400000AF00F0B5F800BF80BD000080B500AF6D
:10175000024802F096F900BF80BD00BFF0030020F0
:1017600080B586B000AF7860144A154BD31A7B6100
:101770007B693B61134B1B68002B02D1114B124A52
:101780001A60104B1A687B6813443A699A4207D270
:1017900002F0C6FC03460C221A604FF0FF3309E04A
:1017A000084B1B68FB60074B1A687B681344054AAB
:1017B0001360FB6818461837BD4680BD00500020F6
:1017C00000040000A40200208805002080B400AFBF
:1017D00000BFBD4680BC7047FFF7F8FF0B480C49BF
:1017E0000C4A002302E0D458C4500433C4188C427D
:1017F000F9D3094A094C002301E013600432A242E4
:10180000FBD302F093FCFFF72BFC70470000002095
:10181000700000200C500008700000208805002097
:10182000FEE7000080B500AF084B1B68074A43F095
:1018300010031360032000F03DFB0F2000F008F8B8
:10184000FFF71AFE0023184680BD00BF00200240AB
:1018500080B582B000AF7860124B1A68124B1B78CB
:1018600019464FF47A73B3FBF1F3B2FBF3F3184666
:1018700000F047FB0346002B01D001230EE07B68FC
:101880000F2B0AD8002279684FF0FF3000F01DFBC3
:10189000064A7B681360002300E0012318460837DE
:1018A000BD4680BD0000002008000020040000208C
:1018B00080B400AF054B1B781A46054B1B681344D8
:1018C000034A136000BFBD4680BC7047080000207B
:1018D0007405002080B400AF024B1B681846BD465B
:1018E00080BC70477405002080B584B000AF78607C
:1018F000FFF7F0FFB8607B68FB60FB68B3F1FF3F68
:1019000005D00A4B1B781A46FB681344FB6000BFE6
:10191000FFF7E0FF0246BB68D31AFA689A42F7D88D
:1019200000BF00BF1037BD4680BD00BF08000020CB
:1019300080B586B000AF78600023FB7500233B6163
:101940000023BB600023FB607B68002B01D10123D7
:10195000BEE07B689B68002B7B689B6A002B09D1EB
:101960007B680022DA627B68002283F82420786892
:10197000FFF7B4FD786800F0ABF90346FB757B68B0
:101980009B6A03F01003002B40F09980FB7D002B35
:1019900040F095807B689B6A23F4885323F0020310
:1019A00043F002027B689A627B685A687B68DB6955
:1019B0001A437B681B7B5B001343BA681343BB600D
:1019C0007B689B68B3F5807F03D07B689B68012BA5
:1019D00002D14FF4807300E000233A6913433B6166
:1019E0007B681B7D012B19D17B681B7B002B09D1E8
:1019F0007B689B69013B5A033B69134343F40063D3
:101A00003B610BE07B689B6A43F020027B689A6233
:101A10007B68DB6A43F001027B68DA627B681B68E3
:101A20005B6823F469417B681B683A690A435A6022
:101A30007B681B689A68284B13407A681268B968FB
:101A40000B4393607B689B68B3F5807F03D07B6812
:101A50009B68012B04D17B681B69013B1B05FB6064
:101A60007B681B68DB6A23F470017B681B68FA687B
:101A70000A43DA627B681B689A68184B1340BA689D
:101A80009A420BD17B680022DA627B689B6A23F062
:101A9000030343F001027B689A6218E07B689B6A4B
:101AA00023F0120343F010027B689A627B68DB6AC2
:101AB00043F001027B68DA620123FB7507E07B6873
:101AC0009B6A43F010027B689A620123FB75FB7DE1
:101AD00018461837BD4680BDFDF7E1FFFE0E1FFF1B
:101AE00080B485B000AF786039600023FB730023B9
:101AF000BB607B6893F82430012B01D10223DCE02A
:101B00007B68012283F824203B685B68062B1CD885
:101B10007B681B68596B3B685A6813469B001344EB
:101B2000053B1F2202FA03F3DB4319403B681868A8
:101B30003B685A6813469B001344053B00FA03F2C6
:101B40007B681B680A435A633CE03B685B680C2B6C
:101B50001CD87B681B68196B3B685A6813469B004E
:101B60001344233B1F2202FA03F3DB4319403B6873
:101B700018683B685A6813469B001344233B00FADD
:101B800003F27B681B680A431A631BE07B681B68CF
:101B9000D96A3B685A6813469B001344413B1F2295
:101BA00002FA03F3DB4319403B6818683B685A6844
:101BB00013469B001344413B00FA03F27B681B6809
:101BC0000A43DA623B681B68092B1CD97B681B68D7
:101BD000D9683B681A6813465B0013441E3B072212
:101BE00002FA03F3DB4319403B6898683B681A68C4
:101BF00013465B0013441E3B00FA03F27B681B682C
:101C00000A43DA6019E07B681B6819693B681A6847
:101C100013465B001344072202FA03F3DB43194027
:101C20003B6898683B681A6813465B00134400FAE7
:101C300003F27B681B680A431A613B681B68102B20
:101C400003D03B681B68112B32D17B681B681D4A8F
:101C5000934225D17B681B689B6803F40003002B2B
:101C600026D17B681B689A687B681B6842F4000277
:101C70009A603B681B68102B1AD1134B1B68134AE0
:101C8000A2FB03239A0C13469B0013445B00BB602A
:101C900002E0BB68013BBB60BB68002BF9D107E0E9
:101CA0007B689B6A43F020027B689A620123FB7386
:101CB0007B68002283F82420FB7B18461437BD463E
:101CC00080BC7047002401400000002083DE1B43DD
:101CD00080B584B000AF78600023FB607B681B6830
:101CE0009B6803F00103012B2ED17B681B689A6867
:101CF0007B681B6822F001029A60FFF7EBFDF86039
:101D00001BE0FFF7E7FD0246FB68D31A022B14D94C
:101D10007B681B689B6803F00103012B0DD17B6876
:101D20009B6A43F010027B689A627B68DB6A43F02F
:101D300001027B68DA62012307E07B681B689B680D
:101D400003F00103012BDCD0002318461037BD46F9
:101D500080BD000080B485B000AF78607B6803F080
:101D60000703FB600C4BDB68BB60BA684FF6FF03F0
:101D70001340BB60FB681A02BB68134343F0BF63A8
:101D800043F40033BB60044ABB68D36000BF143720
:101D9000BD4680BC704700BF00ED00E080B400AFDE
:101DA000044BDB681B0A03F007031846BD4680BCE2
:101DB000704700BF00ED00E080B483B000AF034681
:101DC0003960FB7197F90730002B0ADB3B68DAB208
:101DD0000C4997F907301201D2B20B4483F8002363
:101DE0000AE03B68DAB20849FB7903F00F03043BD1
:101DF0001201D2B20B441A7600BF0C37BD4680BC2C
:101E0000704700BF00E100E000ED00E080B489B061
:101E100000AFF860B9607A60FB6803F00703FB610C
:101E2000FB69C3F10703042B28BF0423BB61FB69D3
:101E30000433062B02D9FB69033B00E000237B61DE
:101E40004FF0FF32BB6902FA03F3DA43BB681A4072
:101E50007B699A404FF0FF317B6901FA03F3D94364
:101E60007B680B40134318462437BD4680BC70473F
:101E700080B582B000AF78607B68013BB3F1807FB2
:101E800001D301230FE00A4A7B68013B53600F2115
:101E90004FF0FF30FFF790FF054B00229A60044B94
:101EA00007221A60002318460837BD4680BD00BFD0
:101EB00010E000E080B582B000AF78607868FFF78E
:101EC00049FF00BF0837BD4680BD80B586B000AF72
:101ED0000346B9607A60FB7300237B61FFF75EFF06
:101EE00078617A68B9687869FFF790FF024697F9D8
:101EF0000F3011461846FFF75FFF00BF1837BD4689
:101F000080BD80B582B000AF78607868FFF7B0FF21
:101F1000034618460837BD4680BD000080B48BB02C
:101F200000AF7860396000237B6200233B6269E187
:101F300001227B6A02FA03F3FB613B681B68FA69C2
:101F40001340BB61BA69FB699A4240F058813B6813
:101F50005B689A4A93425ED0984A934275D8984AF1
:101F6000934258D0964A93426FD8964A934252D0A1
:101F7000944A934269D8944A93424CD0924A9342ED
:101F800063D8924A934246D0904A93425DD8122B2E
:101F90002AD8122B59D801A252F823F01720000892
:101FA000F11F000803200008452000084B2000080E
:101FB0004B2000084B2000084B2000084B20000855
:101FC0004B2000084B2000084B2000084B20000845
:101FD0004B2000084B2000084B2000084B20000835
:101FE000F91F00080D200008794A934213D02CE015
:101FF0003B68DB683B6229E03B68DB6804333B629B
:1020000024E03B68DB6808333B621FE03B68DB6829
:102010000C333B621AE03B689B68002B02D104231F
:102020003B6213E03B689B68012B05D108233B62B0
:102030007B68FA691A6109E008233B627B68FA69E8
:102040005A6103E000233B6200E000BFBB69FF2B45
:1020500001D87B6801E07B6804337B61BB69FF2B9F
:1020600002D87B6A9B0002E07B6A083B9B003B61D5
:102070007B691A680F213B6901FA03F3DB431A40BD
:10208000396A3B6901FA03F31A437B691A603B68BA
:102090005B6803F08053002B00F0B1804D4B9B69CF
:1020A0004C4A43F0010393614A4B9B6903F00103DF
:1020B000BB60BB68484A7B6A9B08023352F82330F6
:1020C000FB607B6A03F003039B000F2202FA03F319
:1020D000DB43FA681340FB607B68404A934213D0AD
:1020E0007B683F4A93420DD07B683E4A934207D0BB
:1020F0007B683D4A934201D1032306E0042304E0B8
:10210000022302E0012300E000237A6A02F00302C6
:1021100092009340FA681343FB602F497B6A9B0847
:102120000233FA6841F823203B685B6803F48013AC
:10213000002B06D02D4B9A682C49BB6913438B604A
:1021400006E02A4B9A68BB69DB43284913408B6041
:102150003B685B6803F40013002B06D0234BDA685E
:102160002249BB691343CB6006E0204BDA68BB69A8
:10217000DB431E491340CB603B685B6803F40033CC
:10218000002B06D0194B5A681849BB6913434B60A2
:1021900006E0164B5A68BB69DB43144913404B6099
:1021A0003B685B6803F48033002B21D00F4B1A6827
:1021B0000E49BB6913430B6021E000BF00003210E1
:1021C0000000311000002210000021100000121049
:1021D0000000111000100240000001400008014002
:1021E000000C0140001001400014014000040140B7
:1021F0000B4B1A68BB69DB43094913400B607B6AD0
:1022000001337B623B681A687B6A22FA03F3002B76
:102210007FF48EAE00BF00BF2C37BD4680BC704738
:102220000004014080B485B000AF78600B467B802D
:102230007B689A687B881340002B02D00123FB73D4
:1022400001E00023FB73FB7B18461437BD4680BCBE
:10225000704780B483B000AF78600B467B80134634
:102260007B707B78002B03D07A887B681A6103E04F
:102270007B881A047B681A6100BF0C37BD4680BC9E
:10228000704780B485B000AF78600B467B807B6878
:10229000DB68FB607A88FB6813401A04FB68D9434B
:1022A0007B880B401A437B681A6100BF1437BD4618
:1022B00080BC704780B584B000AF78607B68002B2D
:1022C00001D101232BE17B6893F83D30DBB2002B79
:1022D00006D17B68002283F83C207868FFF73AF942
:1022E0007B68242283F83D207B681B681A687B6822
:1022F0001B6822F001021A607B681B681A687B6801
:102300001B6842F400421A607B681B681A687B688D
:102310001B6822F400421A6000F080FEF8607B68BF
:102320005B68814A934207D8FB68804A934294BF16
:1023300001230023DBB206E0FB687D4A934294BF91
:1023400001230023DBB2002B01D00123E7E0FB686F
:10235000784AA2FB03239B0CBB607B681B685B680D
:1023600023F03F017B681B68BA680A435A607B68A8
:102370001B681B6A23F03F017B685B686A4A9342D3
:1023800002D8BB68013309E0BB684FF4967202FBC8
:1023900003F3694AA2FB03239B0901337A6812689D
:1023A0000B4313627B681B68DB6923F44F4222F006
:1023B000FF027B685B685C498B4219D8FB68591E39
:1023C0007B685B685B00B1FBF3F3591C40F6FC7360
:1023D0000B40002B0AD0FB68591E7B685B685B00D2
:1023E000B1FBF3F30133C3F30B0351E004234FE0DC
:1023F0007B689B68002B11D1FB68581E7B6859686D
:102400000B465B000B44B0FBF3F30133C3F30B0348
:10241000002B0CBF01230023DBB212E0FB68581E27
:102420007B6859680B469B000B4499000B44B0FB3A
:10243000F3F30133C3F30B03002B0CBF0123002381
:10244000DBB2002B01D0012322E07B689B68002BCC
:102450000ED1FB68581E7B6859680B465B000B4425
:10246000B0FBF3F30133C3F30B0343F400430FE07A
:10247000FB68581E7B6859680B469B000B4499000B
:102480000B44B0FBF3F30133C3F30B0343F44043BA
:10249000796809681343CB617B681B681B6823F06C
:1024A000C0017B68DA697B681B6A1A437B681B681A
:1024B0000A431A607B681B689B6823F4034323F07C
:1024C000FF037A6811697A68D26811437A681268E2
:1024D0000B4393607B681B68DB6823F0FF017B681C
:1024E0005A697B689B691A437B681B680A43DA60F8
:1024F0007B681B681A687B681B6842F001021A60DF
:102500007B6800221A647B68202283F83D207B6868
:1025100000221A637B68002283F83E2000231846BD
:102520001037BD4680BD00BFA08601007F841E001D
:10253000FF083D0083DE1B43D34D621080B58AB097
:1025400002AFF8607A603B600B467B81FFF7C2F90F
:10255000F8610023BB61FB6893F83D30DBB2202BB0
:1025600040F01181FB690093192301228849F86822
:1025700000F012F90346002B01D0022304E1FB68AE
:1025800093F83C30012B01D10223FDE0FB680122CE
:1025900083F83C20FB681B681B6803F00103012BD8
:1025A00007D0FB681B681A68FB681B6842F00102D1
:1025B0001A60FB681B681A68FB681B6822F40062DB
:1025C0001A60FB68242283F83D20FB6800221A640D
:1025D000FB68704ADA62FB681B681A68FB681B6854
:1025E00042F480721A60FB6900933B6800224FF04E
:1025F0000111F86800F0D0F80346002B0DD0FB68FD
:102600001B681B6803F48073B3F5807F03D1FB68FC
:102610004FF400721A640323B6E07B89DBB21A46DA
:10262000FB681B6802F0FE021A61FFF753F9F861BC
:10263000FB681B685B6903F00203022B0CBF0123DC
:102640000023DBB2FB75FB681B685B6903F48063E6
:10265000B3F5806F0CBF01230023DBB2BB7525E00F
:10266000FFF738F90246FB69D31A3A689A4202D357
:102670003B68002B03D1FB68A02283F83D20FB6858
:102680001B685B6903F00203022B0CBF01230023CC
:10269000DBB2FB75FB681B685B6903F48063B3F511
:1026A000806F0CBF01230023DBB2BB75FB6893F87E
:1026B0003D30DBB2A02B05D0FB7D002B02D1BB7DD2
:1026C000002BCDD0FB68202283F83D20FB681B68DF
:1026D0005B6903F00203022B29D1FB681B681A68AF
:1026E000FB681B6842F400721A6000233B61FB68C0
:1026F0001B685B693B61FB681B689B693B613B69CD
:10270000FB690093192301222149F86800F044F87D
:102710000346002B01D0012336E0FB68202283F81A
:102720003D20FB68002283F83C2000232CE0FB685E
:102730001B681A68FB681B6842F400721A60FB6829
:102740001B686FF480625A61FB69009319230122B0
:102750000F49F86800F020F80346002B01D0012350
:1027600012E0BB690133BB61BA697B689A42FFF42E
:1027700032AFFB68202283F83D20FB68002283F8FB
:102780003C20012300E0022318462037BD4680BDCF
:10279000020010000000FFFF80B584B000AFF860B9
:1027A000B9603B601346FB7148E03B68B3F1FF3F03
:1027B00044D0FFF78FF80246BB69D31A3A689A42B1
:1027C00002D33B68002B39D1BB681B0CDBB2012B59
:1027D0000DD1FB681B685B69DA43BB6813409BB291
:1027E000002B0CBF01230023DBB21A460CE0FB6870
:1027F0001B689B69DA43BB6813409BB2002B0CBF7C
:1028000001230023DBB21A46FB799A4216D1FB68FA
:1028100000221A63FB68202283F83D20FB68002217
:1028200083F83E20FB681B6C43F02002FB681A64AF
:10283000FB68002283F83C20012323E0BB681B0CCB
:10284000DBB2012B0DD1FB681B685B69DA43BB6807
:1028500013409BB2002B0CBF01230023DBB21A46AE
:102860000CE0FB681B689B69DA43BB6813409BB2B2
:10287000002B0CBF01230023DBB21A46FB799A42DE
:1028800093D0002318461037BD4680BD80B586B072
:1028900000AF78607B68002B01D101236CE27B687C
:1028A0001B6803F00103002B00F08780924B5B68EC
:1028B00003F00C03042B0CD08F4B5B6803F00C036C
:1028C000082B12D18C4B5B6803F48033B3F5803F47
:1028D0000BD1894B1B6803F40033002B6CD07B6851
:1028E0005B68002B68D1012346E27B685B68B3F527
:1028F000803F06D1804B1B687F4A43F480331360CE
:102900002EE07B685B68002B0CD17B4B1B687A4AFE
:1029100023F480331360784B1B68774A23F48023B9
:1029200013601DE07B685B68B3F5A02F0CD1724B80
:102930001B68714A43F4802313606F4B1B686E4A17
:1029400043F4803313600BE06B4B1B686A4A23F43B
:1029500080331360684B1B68674A23F4802313603D
:102960007B685B68002B13D0FEF7B4FF386108E08A
:10297000FEF7B0FF02463B69D31A642B01D903234B
:10298000FAE15D4B1B6803F40033002BF0D014E038
:10299000FEF7A0FF386108E0FEF79CFF02463B69A6
:1029A000D31A642B01D90323E6E1534B1B6803F4CC
:1029B0000033002BF0D100E000BF7B681B6803F000
:1029C0000203002B63D04C4B5B6803F00C03002B1D
:1029D0000BD0494B5B6803F00C03082B1CD1464B12
:1029E0005B6803F48033002B16D1434B1B6803F064
:1029F0000203002B05D07B681B69012B01D001234A
:102A0000BAE13D4B1B6823F0F8027B685B69DB0091
:102A1000394913430B603AE07B681B69002B20D0D7
:102A2000364B01221A60FEF755FF386108E0FEF7C9
:102A300051FF02463B69D31A022B01D903239BE1C4
:102A40002D4B1B6803F00203002BF0D02A4B1B68B0
:102A500023F0F8027B685B69DB00274913430B60B6
:102A600015E0264B00221A60FEF734FF386108E0BB
:102A7000FEF730FF02463B69D31A022B01D903232C
:102A80007AE11D4B1B6803F00203002BF0D17B6839
:102A90001B6803F00803002B3AD07B689B69002B6E
:102AA00019D0174B01221A60FEF714FF386108E0B5
:102AB000FEF710FF02463B69D31A022B01D903230C
:102AC0005AE10D4B5B6A03F00203002BF0D00120AA
:102AD00000F0CCFA1CE00A4B00221A60FEF7FAFE66
:102AE00038610FE0FEF7F6FE02463B69D31A022B6F
:102AF00008D9032340E100BF001002400000424219
:102B0000800442429E4B5B6A03F00203002BE9D132
:102B10007B681B6803F00403002B00F0A6800023F1
:102B2000FB75974BDB6903F08053002B0DD1944B61
:102B3000DB69934A43F08053D361914BDB6903F027
:102B40008053BB60BB680123FB758E4B1B6803F48D
:102B50008073002B18D18B4B1B688A4A43F4807317
:102B60001360FEF7B7FE386108E0FEF7B3FE0246D9
:102B70003B69D31A642B01D90323FDE0814B1B6809
:102B800003F48073002BF0D07B68DB68012B06D147
:102B90007B4B1B6A7A4A43F0010313622DE07B688A
:102BA000DB68002B0CD1764B1B6A754A23F00103BE
:102BB0001362734B1B6A724A23F0040313621CE016
:102BC0007B68DB68052B0CD16D4B1B6A6C4A43F0AC
:102BD000040313626A4B1B6A694A43F001031362E0
:102BE0000BE0674B1B6A664A23F001031362644BD8
:102BF0001B6A634A23F0040313627B68DB68002BC3
:102C000015D0FEF767FE38610AE0FEF763FE024664
:102C10003B69D31A41F28832934201D90323ABE0D6
:102C2000574B1B6A03F00203002BEED014E0FEF7B3
:102C300051FE38610AE0FEF74DFE02463B69D31AA9
:102C400041F28832934201D9032395E04C4B1B6A31
:102C500003F00203002BEED1FB7D012B05D1484B85
:102C6000DB69474A23F08053D3617B68DB69002B23
:102C700000F08180424B5B6803F00C03082B61D0AD
:102C80007B68DB69022B46D13F4B00221A60FEF7BE
:102C900021FE386108E0FEF71DFE02463B69D31AAB
:102CA000022B01D9032367E0354B1B6803F0007347
:102CB000002BF0D17B681B6AB3F5803F08D1304B05
:102CC0005B6823F400327B689B682D4913434B609B
:102CD0002B4B5B6823F474127B68196A7B685B6A10
:102CE0000B43274913434B60274B01221A60FEF721
:102CF000F1FD386108E0FEF7EDFD02463B69D31AAD
:102D0000022B01D9032337E01D4B1B6803F000732E
:102D1000002BF0D02FE01C4B00221A60FEF7DAFDEA
:102D2000386108E0FEF7D6FD02463B69D31A022B54
:102D300001D9032320E0124B1B6803F00073002B22
:102D4000F0D118E07B68DB69012B01D1012313E08E
:102D50000B4B5B68FB60FB6803F480327B681B6A8B
:102D60009A4206D1FB6803F470127B685B6A9A4250
:102D700001D0012300E0002318461837BD4680BD6E
:102D800000100240007000406000424280B584B0F4
:102D900000AF786039607B68002B01D10123D0E05F
:102DA0006A4B1B6803F007033A689A4210D9674BD5
:102DB0001B6823F0070265493B6813430B60634BB4
:102DC0001B6803F007033A689A4201D00123B8E078
:102DD0007B681B6803F00203002B20D07B681B6814
:102DE00003F00403002B05D0594B5B68584A43F4A9
:102DF000E06353607B681B6803F00803002B05D079
:102E0000534B5B68524A43F460535360504B5B68CA
:102E100023F0F0027B689B684D4913434B607B684D
:102E20001B6803F00103002B40D07B685B68012B1B
:102E300007D1474B1B6803F40033002B15D1012346
:102E40007FE07B685B68022B07D1414B1B6803F076
:102E50000073002B09D1012373E03D4B1B6803F085
:102E60000203002B01D101236BE0394B5B6823F097
:102E700003027B685B68364913434B60FEF72AFD0B
:102E8000F8600AE0FEF726FD0246FB68D31A41F21D
:102E90008832934201D9032353E02D4B5B6803F042
:102EA0000C027B685B689B009A42EBD1274B1B6846
:102EB00003F007033A689A4210D2244B1B6823F0B0
:102EC000070222493B6813430B60204B1B6803F049
:102ED00007033A689A4201D0012332E07B681B68FD
:102EE00003F00403002B08D0194B5B6823F4E06265
:102EF0007B68DB68164913434B607B681B6803F0F3
:102F00000803002B09D0124B5B6823F460527B68E6
:102F10001B69DB000E4913434B6000F021F80246A9
:102F20000B4B5B681B0903F00F030A49CB5C22FAC9
:102F300003F3094A1360094B1B681846FEF788FC27
:102F4000002318461037BD4680BD00BF0020024058
:102F5000001002409C4E00080000002004000020E9
:102F600080B487B000AF0023FB600023BB60002368
:102F70007B6100237B6000233B611E4B5B68FB6031
:102F8000FB6803F00C03042B02D0082B03D027E0CE
:102F9000194B3B6127E0FB689B0C03F00F03174ABA
:102FA000D35C7B60FB6803F48033002B10D0114BA3
:102FB0005B685B0C03F00103114AD35CBB607B6868
:102FC0000D4A02FB03F2BB68B2FBF3F37B6104E042
:102FD0007B680C4A02FB03F37B617B693B6102E087
:102FE000054B3B6100BF3B6918461C37BD4680BCA2
:102FF000704700BF0010024000127A00B44E000873
:10300000C44E000800093D0080B400AF024B1B68AD
:103010001846BD4680BC70470000002080B500AF58
:10302000FFF7F2FF0246054B5B681B0A03F007033C
:103030000349CB5C22FA03F3184680BD001002401E
:10304000AC4E000880B500AFFFF7DEFF0246054B2F
:103050005B68DB0A03F007030349CB5C22FA03F346
:10306000184680BD00100240AC4E000880B485B008
:1030700000AF78600A4B1B680A4AA2FB03235B0A75
:103080007A6802FB03F3FB6000BFFB685A1EFA601C
:10309000002BF9D100BF00BF1437BD4680BC70477C
:1030A00000000020D34D621080B586B000AF78607C
:1030B00000233B610023FB607B681B6803F0010376
:1030C000002B7DD00023FB754F4BDB6903F0805351
:1030D000002B0DD14C4BDB694B4A43F08053D3613D
:1030E000494BDB6903F08053BB60BB680123FB7570
:1030F000464B1B6803F48073002B18D1434B1B68AD
:10310000424A43F480731360FEF7E4FB386108E041
:10311000FEF7E0FB02463B69D31A642B01D9032377
:103120006DE03A4B1B6803F48073002BF0D0364BF4
:103130001B6A03F44073FB60FB68002B2ED07B6896
:103140005B6803F44073FA689A4227D02E4B1B6ADF
:1031500023F44073FB602E4B01221A602C4B00229B
:103160001A60294AFB681362FB6803F00103002B15
:1031700014D0FEF7AFFB38610AE0FEF7ABFB024666
:103180003B69D31A41F28832934201D9032336E0D6
:103190001D4B1B6A03F00203002BEED01A4B1B6A77
:1031A00023F440727B685B68174913430B62FB7D15
:1031B000012B05D1144BDB69134A23F08053D361F3
:1031C0007B681B6803F00203002B08D00E4B5B6882
:1031D00023F440427B689B680B4913434B607B6838
:1031E0001B6803F01003002B08D0074B5B6823F427
:1031F00080027B68DB68044913434B600023184658
:103200001837BD4680BD00BF00100240007000406E
:103210004004424280B582B000AF78607B68002BEA
:1032200001D1012376E07B685B6A002B08D17B68C3
:103230005B68B3F5827F09D07B680022DA6105E024
:103240007B6800221A617B6800225A617B68002239
:103250009A627B6893F85130DBB2002B06D17B6811
:10326000002283F850207868FEF7B2F97B680222CA
:1032700083F851207B681B681A687B681B6822F002
:1032800040021A607B685B6803F482727B689B680B
:1032900003F404431A437B68DB6803F400631A43B6
:1032A0007B681B6903F002031A437B685B6903F0C8
:1032B00001031A437B689B6903F400731A437B681C
:1032C000DB6903F038031A437B681B6A03F0800351
:1032D00042EA03017B689B6A03F400527B681B6827
:1032E0000A431A607B689B691A0C7B681B6802F0B2
:1032F00004025A607B681B68DA697B681B6822F4E9
:103300000062DA617B6800225A657B68012283F8DB
:103310005120002318460837BD4680BD80B588B0CF
:1033200000AFF860B9603B601346FB80FEF7D2FA4D
:10333000F861FB887B83FB6893F85130DBB2012B8B
:1033400001D002232AE1BB68002B02D0FB88002BAE
:1033500001D1012322E1FB6893F85030012B01D108
:1033600002231BE1FB68012283F85020FB68032243
:1033700083F85120FB6800225A65FB68BA681A631B
:10338000FB68FA889A86FB68FA88DA86FB6800226E
:103390009A63FB6800229A87FB680022DA87FB6841
:1033A00000225A64FB6800221A64FB689B68B3F52C
:1033B000004F0FD1FB681B681A68FB681B6822F07E
:1033C00040021A60FB681B681A68FB681B6842F4BD
:1033D00080421A60FB681B681B6803F04003402BA7
:1033E00007D0FB681B681A68FB681B6842F0400244
:1033F0001A60FB68DB68B3F5006F52D1FB685B684D
:10340000002B02D07B8B012B45D1FB681B6B1A88EC
:10341000FB681B68DA60FB681B6B9A1CFB681A630D
:10342000FB68DB8E9BB2013B9AB2FB68DA8632E026
:10343000FB681B689B6803F00203022B12D1FB6838
:103440001B6B1A88FB681B68DA60FB681B6B9A1C95
:10345000FB681A63FB68DB8E9BB2013B9AB2FB6888
:10346000DA8618E0FEF736FA0246FB69D31A3A68A4
:103470009A4203D83B68B3F1FF3F02D13B68002B6F
:1034800009D1FB68012283F85120FB68002283F8F0
:103490005020032382E0FB68DB8E9BB2002BC7D158
:1034A00053E0FB685B68002B02D07B8B012B47D17C
:1034B000FB681A6BFB681B680C3312781A70FB6888
:1034C0001B6B5A1CFB681A63FB68DB8E9BB2013BCB
:1034D0009AB2FB68DA8633E0FB681B689B6803F0EE
:1034E0000203022B13D1FB681A6BFB681B680C33B9
:1034F00012781A70FB681B6B5A1CFB681A63FB6816
:10350000DB8E9BB2013B9AB2FB68DA8618E0FEF7CD
:10351000E1F90246FB69D31A3A689A4203D83B683C
:10352000B3F1FF3F02D13B68002B09D1FB680122B8
:1035300083F85120FB68002283F8502003232DE0FC
:10354000FB68DB8E9BB2002BC6D1FA693968F8683C
:1035500000F066FA0346002B02D0FB6820225A6571
:10356000FB689B68002B0AD100237B61FB681B680A
:10357000DB687B61FB681B689B687B617B69FB6820
:10358000012283F85120FB68002283F85020FB6859
:103590005B6D002B01D0012300E00023184620378B
:1035A000BD4680BD80B58AB000AFF860B9607A6072
:1035B0007B8001237B62FEF78DF93862FB6893F80C
:1035C0005130FB77FB685B68BB617B88FB82FB7FCC
:1035D000012B0CD0BB69B3F5827F06D1FB689B68D9
:1035E000002B02D1FB7F042B01D002237FE1BB68BB
:1035F000002B05D07B68002B02D07B88002B01D1EB
:10360000012374E1FB6893F85030012B01D10223B0
:103610006DE1FB68012283F85020FB6893F851307C
:10362000DBB2042B03D0FB68052283F85120FB6832
:1036300000225A65FB687A689A63FB687A88DA87A1
:10364000FB687A889A87FB68BA681A63FB687A888D
:10365000DA86FB687A889A86FB6800221A64FB681F
:1036600000225A64FB681B681B6803F04003402B70
:1036700007D0FB681B681A68FB681B6842F04002B1
:103680001A60FB68DB68B3F5006F7ED1FB685B688E
:10369000002B02D0FB8A012B6CD1FB681B6B1A88B4
:1036A000FB681B68DA60FB681B6B9A1CFB681A637B
:1036B000FB68DB8E9BB2013B9AB2FB68DA8659E06D
:1036C000FB681B689B6803F00203022B1BD1FB689D
:1036D000DB8E9BB2002B16D07B6A012B13D1FB68CB
:1036E0001B6B1A88FB681B68DA60FB681B6B9A1CF3
:1036F000FB681A63FB68DB8E9BB2013B9AB2FB68E6
:10370000DA8600237B62FB681B689B6803F0010379
:10371000012B19D1FB68DB8F9BB2002B14D0FB6807
:103720001B68DA68FB689B6B92B21A80FB689B6B24
:103730009A1CFB689A63FB68DB8F9BB2013B9AB2D1
:10374000FB68DA8701237B62FEF7C4F802463B6A16
:10375000D31A3A6B9A420DD83B6BB3F1FF3F09D0B5
:10376000FB68012283F85120FB68002283F8502077
:103770000323BCE0FB68DB8E9BB2002BA0D1FB686F
:10378000DB8F9BB2002B9BD182E0FB685B68002B38
:1037900002D0FB8A012B71D1FB681A6BFB681B6896
:1037A0000C3312781A70FB681B6B5A1CFB681A6387
:1037B000FB68DB8E9BB2013B9AB2FB68DA865DE068
:1037C000FB681B689B6803F00203022B1CD1FB689B
:1037D000DB8E9BB2002B17D07B6A012B14D1FB68C8
:1037E0001A6BFB681B680C3312781A70FB681B6B32
:1037F0005A1CFB681A63FB68DB8E9BB2013B9AB2D2
:10380000FB68DA8600237B62FB681B689B6803F019
:103810000103012B19D1FB68DB8F9BB2002B14D065
:10382000FB681B68DA68FB689B6BD2B21A70FB6896
:103830009B6B5A1CFB689A63FB68DB8F9BB2013B56
:103840009AB2FB68DA8701237B62FEF743F80246EF
:103850003B6AD31A3A6B9A4203D83B6BB3F1FF3FF2
:1038600002D13B6B002B09D1FB68012283F8512068
:10387000FB68002283F85020032338E0FB68DB8ECE
:103880009BB2002B9CD1FB68DB8F9BB2002B97D1A6
:103890003A6A396BF86800F0C3F80346002B08D089
:1038A000FB6820225A65FB68002283F85020012320
:1038B0001DE0FB689B68002B0AD100233B61FB687D
:1038C0001B68DB683B61FB681B689B683B613B696D
:1038D000FB68012283F85120FB68002283F8502006
:1038E000FB685B6D002B01D0012300E0002318462C
:1038F0002837BD4680BD80B483B000AF78607B6858
:1039000093F85130DBB218460C37BD4680BC704787
:1039100080B588B000AFF860B9603B601346FB71BA
:10392000FDF7D8FF0246BB6A9B1A3A681344FB6155
:10393000FDF7D0FFB861394B1B685B011B0DFA69BD
:1039400002FB03F37B6154E03B68B3F1FF3F50D0CF
:10395000FDF7C0FF0246BB69D31AFA699A4202D941
:10396000FB69002B3DD1FB681B685A68FB681B682C
:1039700022F0E0025A60FB685B68B3F5827F11D1E8
:10398000FB689B68B3F5004F04D0FB689B68B3F5F8
:10399000806F07D1FB681B681A68FB681B6822F000
:1039A00040021A60FB689B6AB3F5005F0FD1FB68A9
:1039B0001B681A68FB681B6822F400521A60FB68D7
:1039C0001B681A68FB681B6842F400521A60FB68A7
:1039D000012283F85120FB68002283F85020032342
:1039E00017E07B69002B01D10023FB617B69013B60
:1039F0007B61FB681B689A68BB681340BA689A428F
:103A00000CBF01230023DBB21A46FB799A429BD1FB
:103A1000002318462037BD4680BD00BF00000020AF
:103A200080B586B002AFF860B9607A607B680093B9
:103A3000BB6801220221F868FFF76AFF0346002BEA
:103A400007D0FB685B6D43F02002FB685A650323D7
:103A500013E07B680093BB6800228021F868FFF7C1
:103A600057FF0346002B07D0FB685B6D43F0200235
:103A7000FB685A65032300E0002318461037BD4653
:103A800080BD80B584B000AF78607B681B68DB6860
:103A9000FB607B681B681B69BB60BB6803F00203AB
:103AA000002B20D0FB6803F00203002B1BD07B68A7
:103AB0001B686FF002021A617B6801221A777B682B
:103AC0001B689B6903F00303002B03D0786800F0A8
:103AD000D1F805E0786800F0C4F8786800F0D3F811
:103AE0007B6800221A77BB6803F00403002B20D008
:103AF000FB6803F00403002B1BD07B681B686FF08E
:103B000004021A617B6802221A777B681B689B6932
:103B100003F44073002B03D0786800F0ABF805E0A5
:103B2000786800F09EF8786800F0ADF87B680022B5
:103B30001A77BB6803F00803002B20D0FB6803F062
:103B40000803002B1BD07B681B686FF008021A610A
:103B50007B6804221A777B681B68DB6903F0030328
:103B6000002B03D0786800F085F805E0786800F055
:103B700078F8786800F087F87B6800221A77BB68CD
:103B800003F01003002B20D0FB6803F01003002B80
:103B90001BD07B681B686FF010021A617B680822DB
:103BA0001A777B681B68DB6903F44073002B03D032
:103BB000786800F05FF805E0786800F052F87868FF
:103BC00000F061F87B6800221A77BB6803F00103FC
:103BD000002B0CD0FB6803F00103002B07D07B689F
:103BE0001B686FF001021A617868FDF731FCBB6851
:103BF00003F08003002B0CD0FB6803F08003002B44
:103C000007D07B681B686FF080021A61786800F04B
:103C100055F8BB6803F04003002B0CD0FB6803F0A1
:103C20004003002B07D07B681B686FF040021A61CD
:103C3000786800F031F8BB6803F02003002B0CD04B
:103C4000FB6803F02003002B07D07B681B686FF034
:103C500020021A61786800F028F800BF1037BD46CE
:103C600080BD80B483B000AF786000BF0C37BD4624
:103C700080BC704780B483B000AF786000BF0C3761
:103C8000BD4680BC704780B483B000AF786000BF91
:103C90000C37BD4680BC704780B483B000AF7860FD
:103CA00000BF0C37BD4680BC704780B483B000AF06
:103CB000786000BF0C37BD4680BC704780B483B0CD
:103CC00000AF786000BF0C37BD4680BC704780B540
:103CD00082B000AF78607B68002B01D1012342E005
:103CE0007B6893F84130DBB2002B06D17B68002261
:103CF00083F840207868FDF7B5FC7B68242283F8C0
:103D000041207B681B68DA687B681B6822F40052DC
:103D1000DA60786800F072F97B681B681A697B6862
:103D20001B6822F490421A617B681B685A697B68A1
:103D30001B6822F02A025A617B681B68DA687B687C
:103D40001B6842F40052DA607B6800225A647B6888
:103D5000202283F841207B68202283F842207B6860
:103D600000225A63002318460837BD4680BD80B53F
:103D70008AB002AFF860B9603B601346FB80002355
:103D80007B61FB6893F84130DBB2202B75D1BB68B7
:103D9000002B02D0FB88002B01D101236EE0FB68D1
:103DA00000225A64FB68212283F84120FDF792FD2E
:103DB0007861FB68FA889A84FB68FA88DA84FB6881
:103DC0009B68B3F5805F08D1FB681B69002B04D1A9
:103DD0000023FB61BB68BB6103E0BB68FB610023A0
:103DE000BB612EE03B6800937B6900228021F8686C
:103DF00000F048F80346002B05D0FB68202283F82A
:103E0000412003233AE0FB69002B0BD1BB691B88DF
:103E10001A46FB681B68C2F308025A60BB6902338A
:103E2000BB6107E0FB691A78FB681B685A60FB6995
:103E30000133FB61FB68DB8C9BB2013B9AB2FB68F0
:103E4000DA84FB68DB8C9BB2002BCBD13B68009300
:103E50007B6900224021F86800F014F80346002B2B
:103E600005D0FB68202283F84120032306E0FB688D
:103E7000202283F84120002300E002231846203747
:103E8000BD4680BD80B586B000AFF860B9603B60CC
:103E90001346FB713BE03B6AB3F1FF3F37D0FDF7C0
:103EA00019FD02463B68D31A3A6A9A4202D33B6A2A
:103EB000002B01D103233AE0FB681B68DB6803F0A9
:103EC0000403002B23D0BB68802B20D0BB68402B81
:103ED0001DD0FB681B681B6803F00803082B16D174
:103EE00000237B61FB681B681B687B61FB681B68A8
:103EF0005B687B617B69F86800F01DF8FB6808224D
:103F00005A64FB68002283F8402001230FE0FB681D
:103F10001B681A68BB681340BA689A420CBF012339
:103F20000023DBB21A46FB799A42B4D0002318462C
:103F30001837BD4680BD80B495B000AF78607B680F
:103F40001B680C337B637B6B53E8003F3B633B6B2D
:103F500023F49073FB647B681B680C33FA6C3A643F
:103F6000FB63F96B3A6C41E80023BB63BB6B002B2E
:103F7000E5D17B681B6814333B623B6A53E8003F22
:103F8000FB61FB6923F00103BB647B681B6814338E
:103F9000BA6CFA62BB62B96AFA6A41E800237B62D2
:103FA0007B6A002BE5D17B681B6B012B19D17B68E9
:103FB0001B680C33FB60FB6853E8003FBB60BB68C9
:103FC00023F010037B647B681B680C337A6CBA6146
:103FD0007B617969BA6941E800233B613B69002B49
:103FE000E5D17B68202283F842207B6800221A6397
:103FF00000BF5437BD4680BC7047000080B584B018
:1040000000AF78607B681B681B6923F440517B68B4
:10401000DA687B681B680A431A617B689A687B6868
:104020001B691A437B685B691343BB607B681B6831
:10403000DB6823F4B05323F00C037A681268B96884
:104040000B43D3607B681B685B6923F440717B681A
:104050009A697B681B680A435A617B681B682C4A13
:10406000934203D1FEF7EEFFF86002E0FEF7D6FFC1
:10407000F860FA6813469B0013449A001A447B6860
:104080005B689B00B2FBF3F3224AA2FB03235B09AC
:104090001901FA6813469B0013449A001A447B687E
:1040A0005B689B00B2FBF3F21A4BA3FB02035B09B4
:1040B000642000FB03F3D31A1B013233154AA2FB21
:1040C00003235B0903F0F0031944FA6813469B00CD
:1040D00013449A001A447B685B689B00B2FBF3F2BE
:1040E0000C4BA3FB02035B09642000FB03F3D31A10
:1040F0001B013233074AA2FB03235B0903F00F02C3
:104100007B681B680A449A6000BF1037BD4680BDBB
:10411000003801401F85EB510A22002100F0E6B86B
:10412000014B1868704700BF0C00002070B50026D6
:104130000C4D0D4C641BA410A64209D100F026FDC5
:1041400000260A4D0A4C641BA410A64205D170BD7E
:1041500055F8043B98470136EEE755F8043B98477D
:104160000136F2E70450000804500008045000082B
:10417000085000080A44914200F1FF3300D1704713
:1041800010B511F8014B914203F8014FF9D110BD60
:1041900003460244934200D1704703F8011BF9E73C
:1041A0000EB46FF0004100B59CB01DAB02900690BC
:1041B000079104910848094953F8042B05910068B8
:1041C00002A9019300F032F90022029B1A701CB080
:1041D0005DF804EB03B070470C0000200802FFFFFD
:1041E000012B2DE9F047864601D0242B06D9FFF795
:1041F00097FF162303600020BDE8F0878C463A4EF7
:1042000060461CF8014BA55D15F00805F8D12D2C72
:1042100033D14FF001089CF8004000F1020C002B54
:104220005DD0102B0CD1302C0AD19CF8000000F08E
:10423000DF0058284ED110239CF801400CF1020CED
:10424000002508F10047013FB7FBF3F9284603FBBF
:10425000197AA4F13006092E18D83446A34224DD79
:10426000002D1FDB81451DD301D1A2451ADB01259D
:1042700000FB03401CF8014BEBE72B2C08BF9CF81C
:104280000040A84608BF00F1020CC8E7A4F14106AF
:10429000192E01D8373CE1E7A4F16106192E04D8A4
:1042A000573CDBE74FF0FF35E4E7002D08DA222327
:1042B0003846CEF80030002A9ED00CF1FF3107E0DE
:1042C000B8F1000F00D04042002A95D0002DF4D163
:1042D000116091E73024002BB2D10823B0E7302CD5
:1042E000A3D00A23ACE700BFC74E000813460A4616
:1042F000014602480068FFF773BF00BF0C000020B2
:1043000030B5141E05469BB0184605DA8B234FF0D6
:10431000FF302B601BB030BD4FF40273ADF80C3092
:104320000CBF234604F1FF33029305934FF6FF734E
:10433000024600910491ADF80E3069461E9B284656
:1043400000F074F8431CBCBF8B232B60002CE1D021
:104350000022009B1A70DDE707B5009313460A465A
:10436000014603480068FFF7CBFF03B05DF804FB8C
:104370000C0000202DE9F0478E6882469E420C46D4
:1043800090461F4638D88A8912F4906F32D025683B
:1043900009690133A5EB010965694B4405EB450546
:1043A00005EBD5756D109D4238BF1D46530531D5BF
:1043B000294600F045FB064650B90C234FF0FF306C
:1043C000CAF80030A38943F04003A381BDE8F08719
:1043D0004A462169FFF7CEFEA38923F4906343F098
:1043E0008003A38126614E4426603E466561A5EBAD
:1043F0000905A560BE4200D93E46324641462068C6
:1044000000F0B8FAA36822689B1B32440020A36026
:104410002260DBE72A4600F06DFB06460028E1D16A
:104420005046216900F0C0FAC7E700002DE9F04FBF
:1044300098468B8907461B060D4614469DB00ED53F
:104440000B6963B9402100F0FBFA2860286120B9AC
:104450000C233B604FF0FF30D1E040236B61002321
:10446000099320238DF8293030234FF00109CDF82E
:104470000C80DFF8A4818DF82A3023469A4613F881
:10448000012B0AB1252AF9D1BAEB040B0BD05B46FC
:10449000224629463846FFF76DFF013000F0AA801A
:1044A000099A5A4409929AF80030002B00F0A28031
:1044B00000234FF0FF32CDE905230AF1010A0493EE
:1044C00007938DF853301A935446052214F8011BB4
:1044D000514800F041FA049AD8B9D00644BF2023CD
:1044E0008DF85330110744BF2B238DF853309AF8C1
:1044F00000302A2B15D0544600204FF00A0C079AA2
:10450000214611F8013B303B092B4ED9B0B107923F
:1045100014E0A0EB080309FA03F31343A246049343
:10452000D2E7039B191D1B680391002BBBBF5B42A5
:1045300042F0020207930793B8BF049223782E2B10
:104540000CD163782A2B35D1039B02341A1D1B68CA
:104550000392002BB8BF4FF0FF330593DFF8C8A0DC
:1045600003225046217800F0F7F940B14023A0EB38
:104570000A0003FA00F0049B01340343049314F887
:10458000011B062225488DF8281000F0E5F90028C7
:1045900038D0234B1BBB039B073323F0070308339F
:1045A0000393099B3344099367E70C4601200CFBF6
:1045B0000232A5E700234FF00A0C19460134059397
:1045C000204610F8012B303A092A03D9002BC5D018
:1045D0000591C3E7044601230CFB0121F0E703AB7F
:1045E00000932A4638460F4B04A9AFF30080421CC3
:1045F0000646D6D1AB895B063FF52CAF09981DB0B6
:10460000BDE8F08F03AB00932A463846054B04A95A
:1046100000F07CF8EBE700BFC74F0008D14F00085F
:104620000000000075430008CD4F00082DE9F04759
:10463000164699468A680B6907469342B8BF1346E7
:10464000336091F843200C46DDF820800AB1013335
:1046500033602368990642BF3368023333602568AC
:1046600015F0060506D104F1190AE36832689B1AB1
:10467000AB4228DC94F84320131E226818BF0123A4
:1046800092062DD44946384604F14302C047013012
:1046900020D02368E56803F00603042B18BF00252B
:1046A00032684FF00006A36808BFAD1A226908BF40
:1046B00025EAE5759342C4BF9B1AED181A34B5423A
:1046C0001AD1002008E00123524649463846C04727
:1046D000013003D14FF0FF30BDE8F0870135C4E76A
:1046E0003020E11881F843005A1C94F84510224408
:1046F000023382F84310C5E7012322464946384673
:10470000C0470130E6D00136D9E700002DE9FF4768
:104710000C46277E9146782F80469A460C9904F1E4
:10472000430207D8622F0AD8002F00F0D980582FF3
:1047300000F0A48004F1420684F842703AE0A7F148
:104740006303152BF6D801A050F823F0A547000805
:10475000B9470008354700083547000835470008C5
:1047600035470008B94700083547000835470008B5
:104770003547000835470008C7480008E9470008E2
:10478000A94800083547000835470008E9480008EF
:1047900035470008E9470008354700083547000855
:1047A000B14800080B6804F142061A1D1B680A6034
:1047B00084F842300123A4E0256808682E0600F141
:1047C00004030AD505680B60002D03DA2D236D4222
:1047D00084F843300A235E4819E015F0400F05685D
:1047E0000B6018BF2DB2EFE70B682568181D086035
:1047F000280601D51D6802E06906FBD51D886F2FCC
:104800000CBF08230A235248002184F8431066682D
:10481000002EA8BF2168A660A4BF21F0040121607A
:104820000DB9002E4DD01646B5FBF3F103FB115721
:10483000C75D06F8017D2F46BB420D46F4D9082B13
:104840000BD12368DF0708D5236961689942DEBF71
:10485000302306F8013C06F1FF36921B22614B46DD
:1048600021464046CDF800A003AAFFF7DFFE013045
:104870004CD14FF0FF3004B0BDE8F087344884F8E5
:1048800045700E68236856F8045B1F060E6014D549
:10489000D90744BF43F0200323601DB9236823F0E8
:1048A000200323601023AFE7236843F02003236035
:1048B0007823284884F84530E3E75E0648BFADB268
:1048C000E6E71646BBE70B6826681D1D60690D60AC
:1048D00035061B6801D5186002E07106FBD518800B
:1048E000002316462361BAE70B681A1D0A601E688A
:1048F00000213046626800F02FF808B1801B60602C
:1049000063682361002384F84330A8E732464946B0
:1049100040462369D0470130ABD023689B0713D4AE
:10492000E068039B9842B8BF1846A4E701233246CB
:1049300049464046D04701309BD00135E368039992
:104940005B1AAB42F2DCEBE7002504F11906F5E750
:10495000D84F0008E94F0008034610B5C9B2024419
:104960009342184601D1002003E0047801338C42C1
:10497000F6D110BD884210B501EB020402D9844281
:10498000234607D8431EA14208D011F8012B03F893
:10499000012FF8E7014602448A4200D110BD13F806
:1049A000014D02F8014DF7E738B50546002943D01F
:1049B00051F8043C0C1F002BB8BFE41800F0D0F8ED
:1049C0001E4A1368104633B9636014602846BDE878
:1049D000384000F0CBB8A3420AD92168621893424C
:1049E00001BF1A685B685218226063600460EDE7DB
:1049F0001A465B680BB1A342FAD911685018A0425D
:104A00000BD120680144501883421160DED1186830
:104A10005B68014411605360D8E702D90C232B6016
:104A2000D4E7206821188B4201BF19685B68091818
:104A3000216063605460C9E738BD00BFA802002050
:104A4000F8B5CD1C25F0030508350C2D38BF0C2515
:104A5000002D064601DBA94203D90C233360002058
:104A6000F8BD00F07DF821490A6814469CB9204F32
:104A70003B6823B92146304600F062F83860294689
:104A8000304600F05DF8431C23D10C2330463360E0
:104A900000F06CF8E3E723685B1B17D40B2B03D9FA
:104AA00023601C44256004E06368A2420CBF0B60D5
:104AB0005360304600F05AF804F10B00231D20F03B
:104AC0000700C21ACCD01B1AA350C9E7224664685B
:104AD000CCE7C41C24F00304A042E3D0211A3046E2
:104AE00000F02EF80130DDD1CFE700BFA802002092
:104AF000AC020020F8B5074614460E4621B911460F
:104B0000BDE8F840FFF79CBF22B9FFF74DFF2546EF
:104B10002846F8BD00F030F8A0420FD221463846B2
:104B2000FFF78EFF05460028F2D031462246FFF7F8
:104B300021FB31463846FFF737FFE9E73546E7E71F
:104B400038B50023054D044608462B60FCF708FEE7
:104B5000431C02D12B6803B1236038BD78050020C7
:104B6000014800F011B800BF80050020014800F0A6
:104B70000CB800BF8005002051F8043C181F002B22
:104B8000BCBF0B58C018704770477047F8B500BFDE
:104B9000F8BC08BC9E467047F8B500BFF8BC08BC1E
:044BA0009E46704776
:104BA40032353500646576696365206F6B0A0000F1
:104BB400646576696365206E6F74206F6B0A00000C
:104BC4000D0A5374617274696E672049324320532D
:104BD40063616E2E2E2E0D0A00000000202D20444D
:104BE400657669636520666F756E64206174203034
:104BF40078253032580D0A00493243205363616EE0
:104C040020436F6D706C657465642E0D0A0D0A0087
:104C1400727373693A2025640A000000576169744D
:104C2400696E6720666F72206E6F6465732E2E2E18
:104C34000D0A00005265636569766564206E6F64D1
:104C4400652049443A2025640D0A00004E6F6465CE
:104C540020256420616464656420617420696E6445
:104C640065782025640D0A002564000042726F6196
:104C74006463617374206761746577617920494462
:104C84003A2025730D0A000046696E6973686564ED
:104C9400206C697374656E696E673A206E6F646523
:104CA4007320646973636F76657265642E0D0A0000
:104CB40054696D656F7574207265616368656420FD
:104CC400776974686F757420646973636F7665724D
:104CD400696E67206E6F6465732E0D0A0000000014
:104CE400547279696E6720746F2066696E642072ED
:104CF400656C61792E2E2E0D0A000000436F6E6ED6
:104D0400656374656420746F2072656C61792049F1
:104D1400443A2025640D0A004661696C6564207478
:104D24006F20636F6E6E65637420746F2072656CA0
:104D34006179206166746572203520617474656DD3
:104D4400707473210D0A0000436F6E6E65637465A1
:104D5400642E2057616974696E6720666F72206ED5
:104D640065696768626F72206E6F6465732E2E2E9C
:104D74000D0A000042726F616463617374206E6F88
:104D8400646520494420746F2068656C70206469F0
:104D940073636F766572793A2025730D0A000000FB
:104DA4004E6F646520646973636F766572792066FB
:104DB400696E697368656420286E6F646573206129
:104DC40064646564292E0D0A000000004E6F64655A
:104DD40020646973636F766572792074696D6564A4
:104DE400206F757420286E6F206E6F646573206168
:104DF40064646564292E0D0A00000000636865631D
:104E04006B5F6D6F64652072783A2025730A000029
:104E14006E6F646520746F206761746577617920B3
:104E24006D6F64650D0A00006E6F646520746F20F9
:104E34006E6F6465206D6F64650D0A00436F6E6666
:104E440069677572696E67204C6F5261206D6F647B
:104E5400756C650D0A000000446F6E6520636F6E0B
:104E64006669677572696E67204C6F52614D6F6435
:104E7400756C650D0A000000FFFCF9F606070809C9
:104E84000A0B0C00000102030405060708090000D0
:104E94000102030401000000000000000000000003
:104EA40001020304060708090000000001020304CC
:104EB40002030405060708090A0B0C0D0E0F101057
:104EC400010200202020202020202020282828281B
:104ED40028202020202020202020202020202020C6
:104EE4002020208810101010101010101010101016
:104EF4001010100404040404040404040410101026
:104F040010101010414141414141010101010101D1
:104F1400010101010101010101010101010110105F
:104F240010101010424242424242020202020202A5
:104F34000202020202020202020202020202101031
:104F4400101020000000000000000000000000001D
:104F5400000000000000000000000000000000004D
:104F6400000000000000000000000000000000003D
:104F7400000000000000000000000000000000002D
:104F8400000000000000000000000000000000001D
:104F9400000000000000000000000000000000000D
:104FA40000000000000000000000000000000000FD
:104FB40000000000000000000000000000000000ED
:104FC400000000232D302B2000686C4C00656667C0
:104FD400454647003031323334353637383941426B
:104FE400434445460030313233343536373839613D
:084FF4006263646566000000C1
:084FFC0084B1FF7F01000000F9
:04500400350100086A
:04500800110100088A
:10500C0000127A00100000000100000010000020C7
:10501C000000000000000000000000000000000084
:10502C000000000000000000000000000000000074
:10503C000000000000000000000000000000000064
:10504C000000000000000000000000000000000054
:10505C000000000000000000000000000000000044
:10506C000000000000000000000000000000000034
:04000005080017D9FF
:00000001FF
