:020000040800F2
:10000000005000208D200008D51F0008DB1F0008CD
:10001000E11F0008E71F0008ED1F000800000000B6
:100020000000000000000000000000001176000841
:10003000F31F000800000000F1770008397800087D
:10004000D5200008D5200008D5200008D5200008BC
:10005000D5200008D5200008D5200008D5200008AC
:10006000D5200008D5200008D5200008D52000089C
:10007000D5200008D5200008D5200008D52000088C
:10008000D5200008D5200008D5200008D52000087C
:10009000D5200008D5200008D5200008D52000086C
:1000A000D5200008D5200008D5200008D52000085C
:1000B000D5200008D520000801200008D520000820
:1000C000D5200008D5200008D5200008D52000083C
:1000D000D5200008D5200008D5200008D52000082C
:1000E000D5200008D5200008D52000080000000019
:1000F0000000000000000000000000000000000000
:0C01000000000000000000005FF808F1A3
:1001100010B5054C237833B9044B13B10448AFF341
:1001200000800123237010BD780000200000000033
:10013000EC86000808B5034B1BB103490348AFF335
:10014000008008BD000000007C000020EC86000854
:1001500080F0004002E000BF81F0004142001FBF7C
:100160005FEA410392EA030F7FEA226C7FEA236C85
:100170006AD04FEA1262D2EB1363C1BFD21841407A
:1001800048404140B8BF5B42192B88BF704710F010
:10019000004F40F4000020F07F4018BF404211F0B3
:1001A000004F41F4000121F07F4118BF494292EA1B
:1001B000030F3FD0A2F1010241FA03FC10EB0C0047
:1001C000C3F1200301FA03F100F0004302D54942D4
:1001D00060EB4000B0F5000F13D3B0F1807F06D381
:1001E00040084FEA310102F10102FE2A51D2B1F179
:1001F000004F40EBC25008BF20F0010040EA03006E
:100200007047490040EB0000013A28BFB0F5000FED
:10021000EDD2B0FA80FCACF1080CB2EB0C0200FAA3
:100220000CF0AABF00EBC25052421843BCBFD040F2
:100230001843704792F0000F81F4000106BF80F46C
:1002400000000132013BB5E74FEA41037FEA226C2F
:1002500018BF7FEA236C21D092EA030F04D092F0FA
:10026000000F08BF0846704790EA010F1CBF00202E
:10027000704712F07F4F04D1400028BF40F000408B
:10028000704712F100723CBF00F50000704700F0AB
:10029000004343F0FE4040F4000070477FEA2262D2
:1002A00016BF08467FEA23630146420206BF5FEAA3
:1002B000412390EA010F40F4800070474FF00003A3
:1002C00004E000BF10F0004348BF40425FEA000C6A
:1002D00008BF704743F0964301464FF000001CE012
:1002E00050EA010208BF70474FF000030AE000BF68
:1002F00050EA010208BF704711F0004302D54042A6
:1003000061EB41015FEA010C02BF84460146002017
:1003100043F0B64308BFA3F18053A3F50003BCFA32
:100320008CF2083AA3EBC25310DB01FA02FC6344DF
:1003300000FA02FCC2F12002BCF1004F20FA02F2E6
:1003400043EB020008BF20F00100704702F12002D9
:1003500001FA02FCC2F1200250EA4C0021FA02F23A
:1003600043EB020008BF20EADC7070474FF0FF0C3F
:100370001CEAD0521EBF1CEAD15392EA0C0F93EA3A
:100380000C0F6FD01A4480EA010C400218BF5FEADC
:1003900041211ED04FF0006343EA501043EA51114F
:1003A000A0FB01310CF00040B1F5000F3EBF490049
:1003B00041EAD3715B0040EA010062F17F02FD2A4D
:1003C0001DD8B3F1004F40EBC25008BF20F0010030
:1003D000704790F0000F0CF0004C08BF49024CEA47
:1003E000502040EA51207F3AC2BFD2F1FF0340EAD9
:1003F000C250704740F400004FF00003013A5DDC4A
:1004000012F1190FDCBF00F000407047C2F100028A
:10041000410021FA02F1C2F1200200FA02FC5FEA77
:10042000310040F1000053EA4C0308BF20EADC70C1
:10043000704792F0000F00F0004C02BF400010F433
:10044000000F013AF9D040EA0C0093F0000F01F0E0
:10045000004C02BF490011F4000F013BF9D041EA02
:100460000C018FE70CEAD15392EA0C0F18BF93EA04
:100470000C0F0AD030F0004C18BF31F0004CD8D12E
:1004800080EA010000F00040704790F0000F17BFB5
:1004900090F0004F084691F0000F91F0004F14D0FB
:1004A00092EA0C0F01D142020FD193EA0C0F03D153
:1004B0004B0218BF084608D180EA010000F0004056
:1004C00040F0FE4040F40000704740F0FE4040F431
:1004D000400070474FF0FF0C1CEAD0521EBF1CEAD0
:1004E000D15392EA0C0F93EA0C0F69D0A2EB0302EE
:1004F00080EA010C49024FEA402037D04FF0805388
:1005000043EA111143EA10130CF000408B4238BF4C
:100510005B0042F17D024FF4000C8B4224BF5B1A5A
:1005200040EA0C00B3EB510F24BFA3EB510340EAA8
:100530005C00B3EB910F24BFA3EB910340EA9C0056
:10054000B3EBD10F24BFA3EBD10340EADC001B01C6
:1005500018BF5FEA1C1CE0D1FD2A3FF650AF8B426A
:1005600040EBC25008BF20F0010070470CF0004C77
:100570004CEA50207F32C2BFD2F1FF0340EAC250A2
:10058000704740F400004FF00003013A37E792F063
:10059000000F00F0004C02BF400010F4000F013AC1
:1005A000F9D040EA0C0093F0000F01F0004C02BFBC
:1005B000490011F4000F013BF9D041EA0C0195E725
:1005C0000CEAD15392EA0C0F08D142027FF47DAFBE
:1005D00093EA0C0F7FF470AF084676E793EA0C0FAE
:1005E00004D14B023FF44CAF08466EE730F0004CAC
:1005F00018BF31F0004CCAD130F000427FF45CAF3C
:1006000031F000437FF43CAF5FE700BF42000ED201
:10061000B2F1FE4F0BD34FF09E03B3EB126209D43D
:100620004FEA002343F0004323FA02F070474FF0F3
:100630000000704712F1610F01D1420202D14FF068
:10064000FF3070474FF00000704700BF53B94AB900
:10065000002908BF00281CBF4FF0FF314FF0FF30CA
:1006600000F06EB9ADF1080C6DE904CE00F006F8AB
:10067000DDF804E0DDE9022304B070472DE9F0471E
:10068000089E0D4604468E46002B40F083808A4229
:10069000174647D9B2FA82F34BB1C3F1200105FAEC
:1006A00003FE20FA01F19F4041EA0E0E9C404FEA02
:1006B0001748BEFBF8FC1FFA87F908FB1CE20CFB8D
:1006C00009F0210C41EA024290420AD9BA180CF111
:1006D000FF3180F01881904240F21581ACF1020C9C
:1006E0003A44121AB2FBF8F008FB102200FB09F1A1
:1006F000A4B244EA0244A14209D93C1900F1FF32F4
:1007000080F00381A14240F2008102383C44641A27
:10071000002140EA0C401EB10022DC40C6E9004244
:10072000BDE8F08702B9FFDEB2FA82F3002B4FD1A9
:100730008D1A01214FEA124E1FFA82F8B5FBFEFC1A
:100740000EFB1C5508FB0CF0220C42EA0545A842A2
:1007500007D97D190CF1FF3202D2A84200F2E980DC
:1007600094462D1AB5FBFEF00EFB105508FB00F861
:10077000A4B244EA0544A04507D93C1900F1FF3270
:1007800002D2A04500F2D9801046A4EB080440EA4A
:100790000C40C0E78B4208D9002E00F0B180002148
:1007A000C6E900050846BDE8F087B3FA83F10029E1
:1007B0004BD1AB4202D3824200F2B980841A65EB7E
:1007C000030301209E46002EAAD0C6E9004EA7E7EB
:1007D0009F40C3F12002D1404FEA174EB1FBFEF01B
:1007E0001FFA87F80EFB101124FA02F29D4000FB5D
:1007F00008FC2A43150C45EA0145AC4504FA03F40C
:1008000009D97D1900F1FF3180F08F80AC4540F2AD
:100810008C8002383D44A5EB0C05B5FBFEF10EFBC8
:10082000115C01FB08F995B245EA0C45A94507D9C9
:100830007D1901F1FF3274D2A94572D902393D44C4
:10084000A5EB090541EA004178E7C1F120078B409B
:1008500022FA07FC4CEA030C25FA07F44FEA1C4E77
:10086000B4FBFEF91FFA8CF80EFB194420FA07F3CB
:1008700009FB08FA8D401D432B0C43EA0444A245B2
:1008800002FA01F200FA01F309D91CEB040409F1A0
:10089000FF3048D2A24546D9A9F102096444A4EB2D
:1008A0000A04B4FBFEF00EFB104400FB08FAADB2E4
:1008B00045EA0444A24508D91CEB040400F1FF35C5
:1008C0002DD2A2452BD90238644440EA0940A0FB4E
:1008D0000289A4EB0A044C45C6464D4619D316D0EE
:1008E0005EB1B3EB0E0264EB050404FA07F722FADB
:1008F00001F31F43CC40C6E900740021BDE8F08736
:10090000314630460CE78C46EBE61046FFE64345A1
:10091000E6D2B8EB020E69EB0C050138E0E7284699
:10092000D3E711468CE78146B9E7084673E70846E6
:1009300049E7ACF1020C3D4413E702383C4424E79C
:10094000704700BF80B586B002AF78600B46FB7081
:100950000C4A07F10C031268114619800233120C7D
:100960001A70FB7899B207F10C02642300930323F9
:10097000786802F0F1F9502001F0E0FB00BF103779
:10098000BD4680BD0487000880B58AB002AFF8601C
:100990000B467A60FB7200233B610023BB82FB7A2B
:1009A0001946F868FFF7CEFFFB7A99B207F11002FB
:1009B000642300930623F86802F0CCFA3B7C5BB218
:1009C000002B01DA002354E03B7C5BB2002B50DBB0
:1009D0007B7C1A03BB7C1B011343FA7C1209D2B245
:1009E0001343FB61F869FFF769FC03462349184686
:1009F000FFF7BCFC03464FF093411846FFF76AFD32
:100A000003461E491846FFF7B1FC03461846FFF798
:100A1000FDFD03469AB27B681A80FB7C1B0403F43D
:100A200070223B7D1B0213437A7D1343BB61B8697F
:100A3000FFF744FC034612491846FFF797FC0346AC
:100A40004FF093411846FFF745FD03460D49184600
:100A5000FFF782FB034609491846FFF787FC034668
:100A60001846FFF7D3FD03469AB27B685A800123EC
:100A7000FFE718462037BD4680BD00BF0000C842D2
:100A8000000048430000484280B584B000AF786061
:100A90000B46FB707B681B68FA781146184600F01D
:100AA000D0FB7B681B68184600F0EBFB0346FB732A
:100AB0007B681B680121184600F088FBFB7B184609
:100AC0001037BD4680BD80B582B000AF78600B4660
:100AD000FB701346BB707B681B680021184600F052
:100AE00075FB7B681A68FB7863F07F03DBB21946FD
:100AF000104600F0A6FB7B681B68BA7811461846C2
:100B000000F09FFB7B681B680121184600F05EFB2C
:100B100000BF0837BD4680BD90B587B000AFF86014
:100B20007A601A460B46FB721346BB72BB7A012BE6
:100B300027D9FB681B680021184600F047FBFB68BB
:100B40001B68FA7A1146184600F07BFB0023FB7500
:100B50000CE0FB681968FB7D7A68D418084600F041
:100B600090FB03462370FB7D0133FB75FA7DBB7A56
:100B70009A42EED3FB681B680121184600F026FB61
:100B800000E000BF1C37BD4690BD80B586B000AF09
:100B9000F8607A601A460B46FB721346BB72BB7A4A
:100BA000012B29D9FB681B680021184600F00EFBB9
:100BB000FB681A68FB7A63F07F03DBB219461046C4
:100BC00000F03FFB0023FB750BE0FB681868FB7D22
:100BD0007A6813441B78194600F033FBFB7D013320
:100BE000FB75FA7DBB7A9A42EFD3FB681B68012143
:100BF000184600F0EBFA00E000BF1837BD4680BD94
:100C000080B586B000AF7860786800F00DF90F20ED
:100C100000F05DFB786800F017F97B68D3E90223E8
:100C20004FF000004FF00001D90441EA5231D004E6
:100C30006F4A4FF00003FFF709FD02460B46C7E974
:100C40000423D7E904014FF000024FF00003020C27
:100C500042EA01420B0CD3B23B73D7E904014FF0D7
:100C600000024FF00003020A42EA01620B0AD3B20B
:100C70007B733B7CBB7307F10C020323062178686E
:100C8000FFF783FF342239217868FFF71CFF7B6868
:100C90001B7C1A46574B9B5C1A4609217868FFF764
:100CA00012FF0B220B217868FFF70DFF23220C2186
:100CB0007868FFF708FF7B685B7C1A464E4B9B5CAD
:100CC000062B47D17B689B7C1A464C4B9B5C1B01D7
:100CD000DAB27B68DB7C1946494B5B5C5B00DBB2BC
:100CE0001344DBB20133DBB21A461D217868FFF7EB
:100CF000EAFE7B685B7C1A463F4B9B5C1B01DAB2C9
:100D00007B681B7D19463F4B5B5C9B00DBB2134449
:100D1000DBB20333DBB21A461E217868FFF7D3FE3D
:100D200031217868FFF7B0FE0346FB73FB7B23F0AD
:100D30000703FB73FB7B43F00503FB73FB7B1A4646
:100D400031217868FFF7BFFE0C2237217868FFF762
:100D5000BAFE29E07B689B7C1A46284B9B5C1B01F2
:100D6000DAB27B68DB7C1946254B5B5C5B00DBB24F
:100D70001344DBB21A461D217868FFF7A4FE7B6896
:100D80005B7C1A461C4B9B5C1B01DAB27B681B7DAB
:100D900019461C4B5B5C9B00DBB21344DBB21A466A
:100DA0001E217868FFF78FFE042226217868FFF75E
:100DB0008AFE08221F217868FFF785FE0022202185
:100DC0007868FFF780FE082221217868FFF77BFE14
:100DD000012241217868FFF776FE7B68002283F8C4
:100DE0001721786800F010F800BF1837BD4680BDA5
:100DF0000048E8010C8A0008108A0008188A0008D8
:100E0000248A0008288A000880B582B000AF786084
:100E1000092201217868FFF756FE7B6801229A7546
:100E200000BF0837BD4680BD80B582B000AF786096
:100E3000082201217868FFF746FE7B6800229A7538
:100E400000BF0837BD4680BD80B582B000AF786076
:100E5000882201217868FFF736FE00BF0837BD46BB
:100E600080BD80B582B000AF7860FF221221786823
:100E7000FFF729FE00BF0837BD4680BD80B586B0AC
:100E800000AFF8600B467A60FB72FB68FA7A5A751D
:100E9000F868FFF7B5FE84224D21F868FFF713FECE
:100EA000FF222421F868FFF70EFE01224021F86896
:100EB000FFF709FE3F221121F868FFF704FEF868EA
:100EC000FFF7CFFFFB7A1A462221F868FFF7FBFDF8
:100ED0000F21F868FFF7D8FD0346FB75FB7D1A4626
:100EE0000D21F868FFF7EFFD8D220121F868FFF76B
:100EF000EAFDFB68002283F817211821F868FFF744
:100F0000C3FD034603F00403042B04D1FB68032252
:100F10009A75012313E07B68013B7B607B68002BA3
:100F200009D1FB681B68184600F067F9F868FFF7FD
:100F300067FE002303E0012000F0C9F9DDE7184651
:100F40001837BD4680BD80B584B000AF78607B683F
:100F50001B68184600F0C6F90346002B30D07B68AA
:100F600017334FF480720021184606F009FF102154
:100F70007868FFF789FD0346BB73BB7B1A460D21DA
:100F80007868FFF7A0FD7B685B7C002B03D17B6852
:100F90005B7DFB7305E013217868FFF775FD034661
:100FA000FB737B6803F11702FB7B00217868FFF776
:100FB000B3FD7B68FA7B83F817217868FFF751FF50
:100FC0007B6893F8173118461037BD4680BD80B551
:100FD00086B000AFF8600B467A60FB72FB68FA7A65
:100FE0005A75F868FFF70CFE87224D21F868FFF765
:100FF0006AFD00222421F868FFF765FD41224021A7
:10100000F868FFF760FDF868FFF72BFFF722112162
:10101000F868FFF758FDFB7A1A462221F868FFF7B7
:1010200052FD0E21F868FFF72FFD0346FB75FB7D8F
:101030001A460D21F868FFF746FD2221F868FFF7F0
:1010400023FD0346BB75BA7DFB7A9A4204D1FB6847
:1010500002229A7501230EE07B68013B7B607B686E
:10106000002BEAD1FB681B68184600F0C6F8F86848
:10107000FFF7C6FD002318461837BD4680BD80B572
:1010800084B000AFF860B9603B601346FB71FB7938
:10109000BA680021F868FFF778FD8B220121F86813
:1010A000FFF711FDFB681B68184600F01BF90346AB
:1010B000002B0BD01221F868FFF7E6FCF868FFF769
:1010C000D0FEF868FFF7A0FE012313E03B68013B68
:1010D0003B603B68002B09D1FB681B68184600F099
:1010E0008CF8F868FFF78CFD002303E0012000F086
:1010F000EEF8D7E718461037BD4680BD80B584B0FE
:1011000000AFF860C7E90023FB681B68184600F0D1
:1011100048F8F968D7E90023C1E90223FB683A7E61
:101120001A74FB683A7F5A74FB6897F820209A7407
:10113000FB6897F82420DA74FB6897F828201A7562
:10114000FB6897F82C205A75F868FFF759FD00BF27
:101150001037BD4680BD80B584B000AFF860B9607F
:101160001346FB71FB6893F81731FA799A4203D062
:10117000FB6893F81731FB71FB681733FA7919464E
:10118000B86806F0EFFDFB79BA68134400221A70C4
:10119000FB68002283F81721FB7918461037BD46FB
:1011A00080BD80B582B000AF78600121786800F022
:1011B0000DF87B6858687B681B689BB20122194652
:1011C00001F06DFC00BF0837BD4680BD80B582B020
:1011D00000AF786039607B6858697B681B6999B299
:1011E0003B68012B0CBF01230023DBB21A4601F040
:1011F00056FC00BF0837BD4680BD80B582B000AF49
:10120000786001217868FFF7E1FF7B6858687B68A8
:101210001B689BB20022194601F041FC012000F03E
:1012200056F87B6858687B681B689BB20122194698
:1012300001F035FC642000F04AF800BF0837BD46D5
:1012400080BD80B582B000AF78600B46FB70002196
:101250007868FFF7BBFF7B689869F91C4FF47A73D5
:10126000012203F0E1F900BF7B689B69184603F097
:10127000C8FC0346012BF7D100BF00BF0837BD46AD
:1012800080BD80B586B002AF78600023FB73002379
:10129000BB7300217868FFF799FF7B68986907F1B5
:1012A0000E0207F10F014FF47A730093012303F04C
:1012B000FFFA00BF7B689B69184603F0A2FC034657
:1012C000012BF7D1BB7B18461037BD4680BD80B5DA
:1012D00082B000AF7860786800F030FF00BF083758
:1012E000BD4680BD80B582B000AF78607B68DA68AB
:1012F0007B689B689BB21946104601F0B9FB034618
:10130000012B0CBF01230023DBB218460837BD4672
:1013100080BD000080B485B000AFF860B9607A602D
:10132000FB68064A1A60BB68054A1A607B6880221F
:101330001A6000BF1437BD4680BC7047940000207F
:10134000480100200FB480B5A2B000AF07F19403AC
:101350003B60381D3B68D7F89020802106F018FECE
:10136000C7F88400D7F88430002B0FDDD7F884301D
:10137000802B02D98023C7F88430D7F884309AB202
:10138000391D4FF4FA73054803F090FF00BF88370A
:10139000BD46BDE8804004B0704700BFB0110020DA
:1013A00080B584B000AF78603960642000F0C6FE7C
:1013B0002048FFF7C7FF3B68DBB24FF4FA621946DB
:1013C0001D48FFF704FEB860B9681C48FFF7BAFF74
:1013D000BB68002B01D1002328E01948FFF7B2FFBA
:1013E0000023FB600AE0FB687A6813441B78194607
:1013F0001448FFF7A7FFFB680133FB60FB683A68FE
:101400009A42F0D81048FFF79DFF3B68DAB24FF4DC
:10141000FA6379680848FFF732FEB860B9680B488C
:10142000FFF790FF0A48FFF78DFF0123184610379A
:10143000BD4680BD20870008501200203487000878
:10144000408700084C870008548700085887000828
:101450006C87000880B584B000AF786039603B6865
:10146000DBB24FF4FA6219462948FFF707FDB8606E
:10147000B9682848FFF766FFBB68002B01D100233D
:1014800041E04FF4487000F059FE2348FFF75AFF3F
:101490001F48FFF758FD0346BB60B9681F48FFF7B8
:1014A00051FFBB68002B2ADDBB68DBB21A467968A6
:1014B0001748FFF750FE1A48FFF744FF0023FB6070
:1014C00016E0FB687A6813441B7819461548FFF745
:1014D00039FFFB68002B08D1FB687A681344197840
:1014E000114AFB6813440A461A70FB680133FB601B
:1014F000FA68BB689A42E4DB0C48FFF723FF0C480C
:10150000FFF720FFBB6818461037BD4680BD00BFFF
:10151000501200208087000898870008B0870008D4
:10152000C48700084C87000848030020548700083F
:10153000D487000880B586B000AF78607B681B78E0
:10154000102B51D0102B7EDC012B02D0022B3ED071
:1015500079E07B6801331B78FF2B76D14048FFF799
:10156000F1FE0023FB750023BB7501233B6113E0F3
:101570003B697A6813441B78012B02D10123FB7568
:101580000DE03B697A6813441B78002B01D10123DD
:10159000BB753B6901333B613B69052BE8DDFB7D96
:1015A000002B03D02F48FFF7CDFE55E0BB7D002B6D
:1015B00009D02D48FFF7C6FE2C4BFF225A702B4B4B
:1015C00001229A7048E02A48FFF7BCFE44E07B689D
:1015D00001331B78012B3AD17B6802331B78194603
:1015E0002448FFF7AFFE37E07B6801331B78012BFF
:1015F0002FD1214B1B79002B2DD10023FB601EE046
:101600007B6802331A781C49FB680B441B789A42AA
:1016100003D11A48FFF796FE0EE0174AFB68134401
:101620001B78002B08D17B689978134AFB68134418
:101630000A461A7000BF0FE0FB680133FB60FB68CD
:10164000042BDDDD08E000BF06E000BF04E000BFC2
:1016500002E000BF00E000BF00BF1837BD4680BDFC
:10166000EC870008FC870008148800084803002065
:101670003888000854880008540300206C8800084B
:10168000B0B59AB006AF00F027FD00F0B3F800F057
:10169000D7F900F047F900F073F900F0A7F900F06E
:1016A00003F9474B474ADA60454B04229A60444BA2
:1016B000444A5A61424B10221A61414B414A5A60D6
:1016C0003F4B08221A603E4B3F4A9A613F4B3C4ACF
:1016D0001A603F48FFF736FE0A2305930023049360
:1016E0000023039307230293012301930023009314
:1016F00031A3D3E900233548FFF700FD3548FFF754
:1017000021FE4FF4FA6210213048FFF7B7FB0023A7
:10171000BB640023FB6407F148030121184604F071
:1017200028F803462C4A136000233B6400237B64A3
:1017300007F140030121184604F01BF80346274A2D
:1017400013600023BB630023FB6307F1380301210F
:10175000184604F00EF80346214A1360214B07F1A6
:101760001C041D460FCD0FC495E8070084E8070050
:1017700007F11C030021184603F09BFF03461A4A99
:1017800013601A4B3C461D460FCD0FC495E8070069
:1017900084E807003B460021184603F08AFF034611
:1017A000134A136003F07EFF002318465037BD46EE
:1017B000B0BD00BFAFF300808050DE190000000014
:1017C0006813002000080140F8110020501200208A
:1017D00084880008A08800084411002040110020DF
:1017E000C4100020C088000848110020DC880008D0
:1017F000C010002080B594B000AF07F12803282264
:101800000021184606F0BCFA07F1140300221A6002
:101810005A609A60DA601A613B1D00221A605A60B1
:101820009A60DA600123BB624FF48033FB620023CD
:101830003B630123BB6302237B644FF48033BB64AF
:101840000023FB6407F12803184602F075F90346EC
:10185000002B01D000F018FA0F237B610223BB613B
:101860008023FB614FF480633B624FF480637B62B3
:1018700007F114030021184602F0DEFB0346002B9B
:1018800001D000F001FA02237B600023FB603B1DC6
:10189000184602F08FFD0346002B01D000F0F4F94A
:1018A00000BF5037BD4680BD80B584B000AF3B1D42
:1018B00000221A605A609A60184B194A1A60174B36
:1018C00000229A60154B00221A73144B00221A75DD
:1018D000124B4FF46022DA61104B00225A600F4B1A
:1018E00001221A610D4800F04DFC0346002B01D087
:1018F00000F0CAF900237B600123BB600023FB607A
:101900003B1D1946054800F015FD0346002B01D08C
:1019100000F0BAF900BF1037BD4680BD801100202D
:101920000024014080B500AF124B134A1A60114BDE
:10193000124A5A600F4B00229A600E4B0022DA6066
:101940000C4B4FF480421A610A4B00225A61094B3A
:1019500000229A61074B0022DA61064B00221A62CC
:10196000044801F0B5F80346002B01D000F08CF9D3
:1019700000BF80BDC810002000540040A0860100B8
:1019800080B500AF174B184A1A60164B4FF482729D
:101990005A60144B00229A60124B0022DA60114BFD
:1019A00000221A610F4B00225A610E4B4FF4007255
:1019B0009A610C4B1822DA610A4B00221A62094B19
:1019C00000225A62074B00229A62064B0A22DA6210
:1019D000044802F0A5FD0346002B01D000F054F9A5
:1019E00000BF80BDF81100200030014080B500AF7D
:1019F000114B124A1A60104B4FF4E1325A600E4BF1
:101A000000229A600C4B0022DA600B4B00221A6114
:101A1000094B0C225A61084B00229A61064B0022A6
:101A2000DA61054803F0F2FB0346002B01D000F019
:101A30002BF900BF80BD00BFB0110020003801406D
:101A400080B588B000AF07F1100300221A605A6019
:101A50009A60DA60334B9B69324A43F0100393611A
:101A6000304B9B6903F01003FB60FB682D4B9B69B7
:101A70002C4A43F0200393612A4B9B6903F0200317
:101A8000BB60BB68274B9B69264A43F00403936104
:101A9000244B9B6903F004037B607B68214B9B69AB
:101AA000204A43F0080393611E4B9B6903F008032F
:101AB0003B603B6800224FF400511B4800F0EFFFF1
:101AC00000221821194800F0EAFF4FF400533B614F
:101AD00001237B610023BB610223FB6107F110033B
:101AE0001946114800F040FE04233B6100237B614E
:101AF0000023BB6107F1100319460C4800F034FEC7
:101B000018233B6101237B610023BB610223FB613E
:101B100007F110031946054800F026FE00BF2037E4
:101B2000BD4680BD00100240001001400008014089
:101B300080B584B000AF786032210D48FFF78AFC91
:101B4000F860FB68002B03DD0A48FFF7FBFB02E0AF
:101B50000948FFF7F7FB0648FFF7ECFC074B1B684B
:101B6000184603F087FE642003F0EFFDE4E700BFB2
:101B70004C110020F88800080C890008441100204E
:101B800080B582B000AF78602B4B1B684FF0FF31FF
:101B9000184603F021FE0346002BF5D1274A702199
:101BA0002748FEF7F1FE0346002B41D0254B0122CA
:101BB0009A70224B5B881B0A9BB2DAB2214BDA7017
:101BC0001E4B5B88DAB21F4B1A711C4B1B881B0A19
:101BD0009BB2DAB21B4B5A71184B1B88DAB2194B05
:101BE0009A711948FFF7AEFB144B5B881946134BEB
:101BF0001B881A461548FFF7A5FB1548FFF7A2FBFF
:101C00001448FFF79FFB0B210E48FFF7C9FB034663
:101C1000002B09D00B4B5B7819460A4B9B781A4670
:101C20000D48FFF78FFBAFE70C48FFF78BFBABE7E7
:101C30000B48FFF787FBA7E7441100201C11002089
:101C4000C810002048030020248900083C890008AF
:101C5000548900087889000890890008BC89000828
:101C6000D089000880B582B000AF78607B681B68BF
:101C7000044A934201D100F045FA00BF0837BD463F
:101C800080BD00BF0008004080B400AF00BFBD466B
:101C900080BC704780B584B000AF184B9B69174A71
:101CA00043F001039361154B9B6903F00103BB6093
:101CB000BB68124BDB69114A43F08053D3610F4B71
:101CC000DB6903F080537B607B6800220F216FF09B
:101CD000010000F01EFD0A4B5B68FB60FB6823F00F
:101CE000E063FB60FB6843F08063FB60044AFB68D1
:101CF000536000BF1037BD4680BD00BF00100240DA
:101D00000000014080B588B000AF786007F1100393
:101D100000221A605A609A60DA607B681B68144A75
:101D2000934221D1134B9B69124A43F40073936190
:101D3000104B9B6903F40073FB60FB680D4B9B69C0
:101D40000C4A43F0040393610A4B9B6903F00403BC
:101D5000BB60BB6801233B6103237B6107F1100378
:101D60001946054800F000FD00BF2037BD4680BD84
:101D700000240140001002400008014080B588B0F6
:101D800000AF786007F1100300221A605A609A6071
:101D9000DA607B681B68154A934223D1144B9B6918
:101DA000134A43F008039361114B9B6903F0080346
:101DB000FB60FB68C0233B6112237B610323FB6153
:101DC00007F1100319460B4800F0CEFC084BDB6905
:101DD000074A43F40013D361054BDB6903F4001396
:101DE000BB60BB6800BF2037BD4680BD00540040CB
:101DF00000100240000C014080B588B000AF786050
:101E000007F1100300221A605A609A60DA607B685A
:101E10001B681B4A93422FD11A4B9B69194A43F402
:101E200080539361174B9B6903F48053FB60FB68FD
:101E3000144B9B69134A43F004039361114B9B6954
:101E400003F00403BB60BB68A0233B6102237B61FA
:101E50000323FB6107F1100319460B4800F084FCD3
:101E600040233B6100237B610023BB6107F110032A
:101E70001946054800F078FC00BF2037BD4680BDFC
:101E800000300140001002400008014080B588B0D9
:101E900000AF786007F1100300221A605A609A6060
:101EA000DA607B681B681C4A934231D11B4B9B69EB
:101EB0001A4A43F480439361184B9B6903F48043AF
:101EC000FB60FB68154B9B69144A43F00403936164
:101ED000124B9B6903F00403BB60BB684FF40073B3
:101EE0003B6102237B610323FB6107F11003194669
:101EF0000B4800F039FC4FF480633B6100237B61A9
:101F00000023BB6107F110031946054800F02CFCC3
:101F100000BF2037BD4680BD0038014000100240A0
:101F20000008014080B58CB000AF78600023FB62F0
:101F30000023BB62002279681E2000F0EAFB1E200D
:101F400000F003FC1F4BDB691E4A43F00403D3611E
:101F50001C4BDB6903F00403FB60FB6807F1100214
:101F600007F114031146184602F0D6F902F0ACF955
:101F700003465B00FB62FB6A134AA2FB03239B0C34
:101F8000013BBB62114B124A1A60104B40F2E73220
:101F9000DA600E4ABB6A53600C4B00221A610B4B8D
:101FA00000229A60094802F0F2FE0346002B04D199
:101FB000064802F045FF034600E00123184630378B
:101FC000BD4680BD0010024083DE1B438813002005
:101FD0000008004080B400AFFEE780B400AFFEE729
:101FE00080B400AFFEE780B400AFFEE780B400AF7E
:101FF000FEE780B400AF00BFBD4680BC7047000064
:1020000080B500AF024802F06DFF00BF80BD00BF89
:102010008813002080B586B000AF7860144A154B55
:10202000D31A7B617B693B61134B1B68002B02D188
:10203000114B124A1A60104B1A687B6813443A69B4
:102040009A4207D205F062FE03460C221A604FF056
:10205000FF3309E0084B1B68FB60074B1A687B687D
:102060001344054A1360FB6818461837BD4680BD07
:1020700000500020000400005C030020E813002052
:1020800080B400AF00BFBD4680BC7047FFF7F8FFCB
:102090000B480C490C4A002302E0D458C4500433C6
:1020A000C4188C42F9D3094A094C002301E013609B
:1020B0000432A242FBD305F02FFEFFF7E1FA70478E
:1020C0000000002074000020FC8A00087800002036
:1020D000E4130020FEE7000080B500AF084B1B684A
:1020E000074A43F010031360032000F007FB0F20A2
:1020F000FFF718FFFFF7CEFD0023184680BD00BF95
:102100000020024080B400AF054B1B781A46054BF7
:102110001B681344034A136000BFBD4680BC704770
:1021200008000020D013002080B400AF024B1B68D1
:102130001846BD4680BC7047D013002080B584B0DF
:1021400000AF7860FFF7F0FFB8607B68FB60FB686A
:10215000B3F1FF3F05D00A4B1B781A46FB681344C6
:10216000FB6000BFFFF7E0FF0246BB68D31AFA68C6
:102170009A42F7D800BF00BF1037BD4680BD00BFF0
:102180000800002080B586B000AF78600023FB75A2
:1021900000233B610023BB600023FB607B68002BB6
:1021A00001D10123BEE07B689B68002B7B689B6AA2
:1021B000002B09D17B680022DA627B68002283F859
:1021C00024207868FFF79EFD786800F0ABF903469D
:1021D000FB757B689B6A03F01003002B40F099802D
:1021E000FB7D002B40F095807B689B6A23F488532D
:1021F00023F0020343F002027B689A627B685A680C
:102200007B68DB691A437B681B7B5B001343BA68FE
:102210001343BB607B689B68B3F5807F03D07B680A
:102220009B68012B02D14FF4807300E000233A69D0
:1022300013433B617B681B7D012B19D17B681B7BA2
:10224000002B09D17B689B69013B5A033B6913430F
:1022500043F400633B610BE07B689B6A43F0200220
:102260007B689A627B68DB6A43F001027B68DA6212
:102270007B681B685B6823F469417B681B683A696B
:102280000A435A607B681B689A68284B13407A6837
:102290001268B9680B4393607B689B68B3F5807FD5
:1022A00003D07B689B68012B04D17B681B69013BD1
:1022B0001B05FB607B681B68DB6A23F470017B688D
:1022C0001B68FA680A43DA627B681B689A68184BD5
:1022D0001340BA689A420BD17B680022DA627B68AD
:1022E0009B6A23F0030343F001027B689A6218E0C3
:1022F0007B689B6A23F0120343F010027B689A62AA
:102300007B68DB6A43F001027B68DA620123FB75BC
:1023100007E07B689B6A43F010027B689A620123A6
:10232000FB75FB7D18461837BD4680BDFDF7E1FF04
:10233000FE0E1FFF80B485B000AF786039600023C7
:10234000FB730023BB607B6893F82430012B01D121
:102350000223DCE07B68012283F824203B685B6871
:10236000062B1CD87B681B68596B3B685A68134660
:102370009B001344053B1F2202FA03F3DB43194081
:102380003B6818683B685A6813469B001344053B3A
:1023900000FA03F27B681B680A435A633CE03B681F
:1023A0005B680C2B1CD87B681B68196B3B685A68F0
:1023B00013469B001344233B1F2202FA03F3DB4323
:1023C00019403B6818683B685A6813469B001344E1
:1023D000233B00FA03F27B681B680A431A631BE085
:1023E0007B681B68D96A3B685A6813469B00134494
:1023F000413B1F2202FA03F3DB4319403B68186894
:102400003B685A6813469B001344413B00FA03F2B1
:102410007B681B680A43DA623B681B68092B1CD97E
:102420007B681B68D9683B681A6813465B001344D5
:102430001E3B072202FA03F3DB4319403B6898680E
:102440003B681A6813465B0013441E3B00FA03F214
:102450007B681B680A43DA6019E07B681B681969AE
:102460003B681A6813465B001344072202FA03F321
:10247000DB4319403B6898683B681A6813465B0069
:10248000134400FA03F27B681B680A431A613B6835
:102490001B68102B03D03B681B68112B32D17B6863
:1024A0001B681D4A934225D17B681B689B6803F417
:1024B0000003002B26D17B681B689A687B681B6829
:1024C00042F400029A603B681B68102B1AD1134B30
:1024D0001B68134AA2FB03239A0C13469B00134468
:1024E0005B00BB6002E0BB68013BBB60BB68002BCC
:1024F000F9D107E07B689B6A43F020027B689A620F
:102500000123FB737B68002283F82420FB7B1846A1
:102510001437BD4680BC70470024014000000020F5
:1025200083DE1B4380B584B000AF78600023FB607E
:102530007B681B689B6803F00103012B2ED17B682D
:102540001B689A687B681B6822F001029A60FFF79B
:10255000EBFDF8601BE0FFF7E7FD0246FB68D31ACE
:10256000022B14D97B681B689B6803F00103012BC5
:102570000DD17B689B6A43F010027B689A627B688E
:10258000DB6A43F001027B68DA62012307E07B68C3
:102590001B689B6803F00103012BDCD00023184665
:1025A0001037BD4680BD000080B485B000AF7860B4
:1025B0007B6803F00703FB600C4BDB68BB60BA6809
:1025C0004FF6FF031340BB60FB681A02BB6813435E
:1025D00043F0BF6343F40033BB60044ABB68D3607D
:1025E00000BF1437BD4680BC704700BF00ED00E05F
:1025F00080B400AF044BDB681B0A03F007031846E6
:10260000BD4680BC704700BF00ED00E080B483B0E1
:1026100000AF0346FB7197F90730002B0BDBFB790A
:1026200003F01F02064997F907305B09012000FA01
:1026300002F241F8232000BF0C37BD4680BC704732
:1026400000E100E080B483B000AF03463960FB7165
:1026500097F90730002B0ADB3B68DAB20C4997F98F
:1026600007301201D2B20B4483F800230AE03B6822
:10267000DAB20849FB7903F00F03043B1201D2B22E
:102680000B441A7600BF0C37BD4680BC704700BFB4
:1026900000E100E000ED00E080B489B000AFF86038
:1026A000B9607A60FB6803F00703FB61FB69C3F163
:1026B0000703042B28BF0423BB61FB690433062BEB
:1026C00002D9FB69033B00E000237B614FF0FF323E
:1026D000BB6902FA03F3DA43BB681A407B699A408C
:1026E0004FF0FF317B6901FA03F3D9437B680B405C
:1026F000134318462437BD4680BC704780B582B06E
:1027000000AF78607868FFF74FFF00BF0837BD461D
:1027100080BD80B586B000AF0346B9607A60FB73B8
:1027200000237B61FFF764FF78617A68B968786994
:10273000FFF7B2FF024697F90F3011461846FFF730
:1027400081FF00BF1837BD4680BD80B582B000AFA5
:102750000346FB7197F907301846FFF757FF00BF94
:102760000837BD4680BD000080B48BB000AF7860F4
:10277000396000237B6200233B6269E101227B6AAE
:1027800002FA03F3FB613B681B68FA691340BB6103
:10279000BA69FB699A4240F058813B685B689A4A83
:1027A00093425ED0984A934275D8984A934258D043
:1027B000964A93426FD8964A934252D0944A934293
:1027C00069D8944A93424CD0924A934263D8924A31
:1027D000934246D0904A93425DD8122B2AD8122BAE
:1027E00059D801A252F823F0632800083D280008B8
:1027F0004F2800089128000897280008972800080B
:1028000097280008972800089728000897280008AC
:10281000972800089728000897280008972800089C
:1028200097280008972800089728000845280008DE
:1028300059280008794A934213D02CE03B68DB68A2
:102840003B6229E03B68DB6804333B6224E03B6881
:10285000DB6808333B621FE03B68DB680C333B629C
:102860001AE03B689B68002B02D104233B6213E013
:102870003B689B68012B05D108233B627B68FA69A2
:102880001A6109E008233B627B68FA695A6103E038
:1028900000233B6200E000BFBB69FF2B01D87B68CF
:1028A00001E07B6804337B61BB69FF2B02D87B6A44
:1028B0009B0002E07B6A083B9B003B617B691A68D6
:1028C0000F213B6901FA03F3DB431A40396A3B6984
:1028D00001FA03F31A437B691A603B685B6803F0F3
:1028E0008053002B00F0B1804D4B9B694C4A43F064
:1028F000010393614A4B9B6903F00103BB60BB6812
:10290000484A7B6A9B08023352F82330FB607B6A9B
:1029100003F003039B000F2202FA03F3DB43FA6880
:102920001340FB607B68404A934213D07B683F4A68
:1029300093420DD07B683E4A934207D07B683D4A64
:10294000934201D1032306E0042304E0022302E0C2
:10295000012300E000237A6A02F003029200934010
:10296000FA681343FB602F497B6A9B080233FA68BD
:1029700041F823203B685B6803F48013002B06D0EA
:102980002D4B9A682C49BB6913438B6006E02A4B98
:102990009A68BB69DB43284913408B603B685B68DE
:1029A00003F40013002B06D0234BDA682249BB69DD
:1029B0001343CB6006E0204BDA68BB69DB431E495A
:1029C0001340CB603B685B6803F40033002B06D0F8
:1029D000194B5A681849BB6913434B6006E0164B04
:1029E0005A68BB69DB43144913404B603B685B6822
:1029F00003F48033002B21D00F4B1A680E49BB69BA
:102A000013430B6021E000BF0000321000003110C2
:102A10000000221000002110000012100000111010
:102A2000001002400000014000080140000C01407D
:102A30000010014000140140000401400B4B1A68D3
:102A4000BB69DB43094913400B607B6A01337B623E
:102A50003B681A687B6A22FA03F3002B7FF48EAE80
:102A600000BF00BF2C37BD4680BC7047000401404A
:102A700080B485B000AF78600B467B807B689A6835
:102A80007B881340002B02D00123FB7301E000235D
:102A9000FB73FB7B18461437BD4680BC704780B47F
:102AA00083B000AF78600B467B8013467B707B78E9
:102AB000002B03D07A887B681A6103E07B881A04B4
:102AC0007B681A6100BF0C37BD4680BC70470000B0
:102AD00080B584B000AF78607B68002B01D1012302
:102AE0002BE17B6893F83D30DBB2002B06D17B688D
:102AF000002283F83C207868FFF740F97B682422A5
:102B000083F83D207B681B681A687B681B6822F08D
:102B100001021A607B681B681A687B681B6842F4B4
:102B200000421A607B681B681A687B681B6822F485
:102B300000421A6001F0C8FBF8607B685B68814A5C
:102B4000934207D8FB68804A934294BF0123002335
:102B5000DBB206E0FB687D4A934294BF0123002369
:102B6000DBB2002B01D00123E7E0FB68784AA2FB2F
:102B700003239B0CBB607B681B685B6823F03F01F1
:102B80007B681B68BA680A435A607B681B681B6ACB
:102B900023F03F017B685B686A4A934202D8BB68B6
:102BA000013309E0BB684FF4967202FB03F3694AF4
:102BB000A2FB03239B0901337A6812680B4313625B
:102BC0007B681B68DB6923F44F4222F0FF027B68BD
:102BD0005B685C498B4219D8FB68591E7B685B684F
:102BE0005B00B1FBF3F3591C40F6FC730B40002B68
:102BF0000AD0FB68591E7B685B685B00B1FBF3F38E
:102C00000133C3F30B0351E004234FE07B689B685F
:102C1000002B11D1FB68581E7B6859680B465B007E
:102C20000B44B0FBF3F30133C3F30B03002B0CBFD6
:102C300001230023DBB212E0FB68581E7B68596851
:102C40000B469B000B4499000B44B0FBF3F301339C
:102C5000C3F30B03002B0CBF01230023DBB2002BBB
:102C600001D0012322E07B689B68002B0ED1FB681A
:102C7000581E7B6859680B465B000B44B0FBF3F3AE
:102C80000133C3F30B0343F400430FE0FB68581E0A
:102C90007B6859680B469B000B4499000B44B0FBC2
:102CA000F3F30133C3F30B0343F44043796809683A
:102CB0001343CB617B681B681B6823F0C0017B68F2
:102CC000DA697B681B6A1A437B681B680A431A60CF
:102CD0007B681B689B6823F4034323F0FF037A6837
:102CE00011697A68D26811437A6812680B4393605D
:102CF0007B681B68DB6823F0FF017B685A697B688F
:102D00009B691A437B681B680A43DA607B681B680F
:102D10001A687B681B6842F001021A607B68002217
:102D20001A647B68202283F83D207B6800221A63A6
:102D30007B68002283F83E20002318461037BD46EA
:102D400080BD00BFA08601007F841E00FF083D00FB
:102D500083DE1B43D34D621080B588B002AFF860AC
:102D60007A601A460B467B8113463B81FFF7DCF9FC
:102D70007861FB6893F83D30DBB2202B40F0E080B7
:102D80007B690093192301227049F86800F09EFCCA
:102D90000346002B01D00223D3E0FB6893F83C30BC
:102DA000012B01D10223CCE0FB68012283F83C20F7
:102DB000FB681B681B6803F00103012B07D0FB684D
:102DC0001B681A68FB681B6842F001021A60FB6806
:102DD0001B681A68FB681B6822F400621A60FB68B3
:102DE000212283F83D20FB68102283F83E20FB68F7
:102DF00000221A64FB687A685A62FB683A895A852D
:102E0000FB685B8D9AB2FB681A85FB68504ADA62F0
:102E100079897B693A6AF86800F008FB0346002B61
:102E200001D001238DE000233B61FB681B685B69D7
:102E30003B61FB681B689B693B613B6966E07A69A3
:102E4000396AF86800F05CFD0346002B0DD0FB6882
:102E50001B6C042B07D1FB681B681A68FB681B6896
:102E600042F400721A6001236BE0FB685B6A1A7817
:102E7000FB681B681A61FB685B6A5A1CFB685A6234
:102E8000FB685B8D9BB2013B9AB2FB685A85FB687D
:102E90001B8D013B9AB2FB681A85FB681B685B6956
:102EA00003F00403042B1BD1FB681B8D002B17D0F0
:102EB000FB685B6A1A78FB681B681A61FB685B6ACF
:102EC0005A1CFB685A62FB685B8D9BB2013B9AB24D
:102ED000FB685A85FB681B8D013B9AB2FB681A851B
:102EE0007A69396AF86800F053FD0346002B0DD06B
:102EF000FB681B6C042B07D1FB681B681A68FB6816
:102F00001B6842F400721A6001231AE0FB681B8DF3
:102F1000002B94D1FB681B681A68FB681B6842F49D
:102F200000721A60FB68202283F83D20FB680022B3
:102F300083F83E20FB68002283F83C20002300E059
:102F4000022318461837BD4680BD00BF020010009E
:102F50000000FFFF80B58CB002AFF8607A601A46BF
:102F60000B467B8113463B8100233B62FFF7DCF875
:102F70007862FB6893F83D30DBB2202B40F04B8247
:102F80007B6A0093192301227F49F86800F09EFBB9
:102F90000346002B01D002233EE2FB6893F83C304D
:102FA000012B01D1022337E2FB68012283F83C2088
:102FB000FB681B681B6803F00103012B07D0FB684B
:102FC0001B681A68FB681B6842F001021A60FB6804
:102FD0001B681A68FB681B6822F400621A60FB68B1
:102FE000222283F83D20FB68102283F83E20FB68F4
:102FF00000221A64FB687A685A62FB683A895A852B
:10300000FB685B8D9AB2FB681A85FB685F4ADA62DF
:1030100079897B6A3A6BF86800F08AFA0346002BDC
:1030200001D00123F8E1FB681B8D002B13D1002395
:10303000FB61FB681B685B69FB61FB681B689B6944
:10304000FB61FB69FB681B681A68FB681B6842F43C
:1030500000721A60CCE1FB681B8D012B1ED1FB684E
:103060001B681A68FB681B6822F480621A6072B6DB
:1030700000BF0023BB61FB681B685B69BB61FB6829
:103080001B689B69BB61BB69FB681B681A68FB68AE
:103090001B6842F400721A6062B635E0FB681B8D53
:1030A000022B1ED1FB681B681A68FB681B6842F480
:1030B00000621A6072B600BF00237B61FB681B6868
:1030C0005B697B61FB681B689B697B617B69FB6853
:1030D0001B681A68FB681B6822F480621A6062B67B
:1030E00012E0FB681B681A68FB681B6842F4806288
:1030F0001A6000233B61FB681B685B693B61FB68EE
:103100001B689B693B613B6972E1FB681B8D032B6C
:1031100000F21F81FB681B8D012B23D17A6A396B6A
:10312000F86800F07DFC0346002B01D0012373E119
:10313000FB681B681A69FB685B6AD2B21A70FB688D
:103140005B6A5A1CFB685A62FB681B8D013B9AB292
:10315000FB681A85FB685B8D9BB2013B9AB2FB68EA
:103160005A8545E1FB681B8D022B52D17B6A009387
:103170003B6B00220649F86800F0A8FA0346002BD2
:1031800008D0012348E100BF020010000000FFFF4B
:103190000400010072B600BFFB681B681A68FB6878
:1031A0001B6842F400721A60FB681B681A69FB68AE
:1031B0005B6AD2B21A70FB685B6A5A1CFB685A627F
:1031C000FB681B8D013B9AB2FB681A85FB685B8D1F
:1031D0009BB2013B9AB2FB685A8562B600BFFB689E
:1031E0001B681A69FB685B6AD2B21A70FB685B6A7B
:1031F0005A1CFB685A62FB681B8D013B9AB2FB6844
:103200001A85FB685B8D9BB2013B9AB2FB685A85BD
:10321000EEE07B6A00933B6B00228149F86800F086
:1032200055FA0346002B01D00123F5E0FB681B682B
:103230001A68FB681B6822F480621A6072B600BFCD
:10324000FB681B681A69FB685B6AD2B21A70FB687C
:103250005B6A5A1CFB685A62FB681B8D013B9AB281
:10326000FB681A85FB685B8D9BB2013B9AB2FB68D9
:103270005A856C4B1B68DB086B4AA2FB03231A0AB6
:1032800013469B001344DA00D31A3B623B6A013BAE
:103290003B623B6A002B18D1FB6800221A63FB6873
:1032A000202283F83D20FB68002283F83E20FB6843
:1032B0001B6C43F02002FB681A6462B600BFFB6817
:1032C000002283F83C200123A6E0FB681B685B69B1
:1032D00003F00403042BD9D1FB681B681A68FB6850
:1032E0001B6842F400721A60FB681B681A69FB686D
:1032F0005B6AD2B21A70FB685B6A5A1CFB685A623E
:10330000FB681B8D013B9AB2FB681A85FB685B8DDD
:103310009BB2013B9AB2FB685A8562B600BFFB685C
:103320001B681A69FB685B6AD2B21A70FB685B6A39
:103330005A1CFB685A62FB681B8D013B9AB2FB6802
:103340001A85FB685B8D9BB2013B9AB2FB685A857C
:103350004EE07A6A396BF86800F062FB0346002B96
:1033600001D0012358E0FB681B681A69FB685B6A9F
:10337000D2B21A70FB685B6A5A1CFB685A62FB681F
:103380001B8D013B9AB2FB681A85FB685B8D9BB273
:10339000013B9AB2FB685A85FB681B685B6903F0C6
:1033A0000403042B24D1FB681B8D032B07D1FB687E
:1033B0001B681A68FB681B6822F480621A60FB684D
:1033C0001B681A69FB685B6AD2B21A70FB685B6A99
:1033D0005A1CFB685A62FB681B8D013B9AB2FB6862
:1033E0001A85FB685B8D9BB2013B9AB2FB685A85DC
:1033F000FB681B8D002B7FF488AEFB68202283F8CE
:103400003D20FB68002283F83E20FB68002283F801
:103410003C20002300E0022318462837BD4680BD2B
:10342000040001000000002089B5F81480B588B0C0
:1034300002AFF8607A603B600B467B81FB68DB6A19
:103440007B617B69082B06D07B69012B03D07B69EC
:1034500013F5803F08D1FB681B681A68FB681B687E
:1034600042F480721A600BE0FB681B6B122B07D1D1
:10347000FB681B681A68FB681B6842F480721A605C
:103480003B6800937B6800224FF00111F86800F060
:103490001DF90346002B0DD0FB681B681B6803F465
:1034A0008073B3F5807F03D1FB684FF400721A6418
:1034B000032335E0FB681B69B3F5804F08D17B8996
:1034C000DBB21A46FB681B6802F0FE021A611BE0C1
:1034D0007B89DB11DBB203F00603DBB263F00F0381
:1034E000DAB2FB681B681A613B687A680E49F868B3
:1034F00000F066F90346002B01D0012310E07B8920
:10350000DAB2FB681B681A613B687A680749F86899
:1035100000F056F90346002B01D0012300E0002300
:1035200018461837BD4680BD0800010002000100A2
:1035300080B588B002AFF8607A603B600B467B8153
:10354000FB68DB6A7B61FB681B681A68FB681B68A9
:1035500042F480621A607B69082B06D07B69012BDC
:1035600003D07B6913F5803F08D1FB681B681A689C
:10357000FB681B6842F480721A600BE0FB681B6BEF
:10358000112B07D1FB681B681A68FB681B6842F4A3
:1035900080721A603B6800937B6800224FF0011133
:1035A000F86800F093F80346002B0DD0FB681B6809
:1035B0001B6803F48073B3F5807F03D1FB684FF47D
:1035C00000721A64032379E0FB681B69B3F5804F2E
:1035D00008D17B89DBB243F00103DAB2FB681B68D8
:1035E0001A615FE07B89DB11DBB203F00603DBB21B
:1035F00063F00F03DAB2FB681B681A613B687A68F4
:103600003049F86800F0DCF80346002B01D00123B4
:1036100054E07B89DAB2FB681B681A613B687A6800
:103620002949F86800F0CCF80346002B01D00123AB
:1036300044E000233B61FB681B685B693B61FB68FE
:103640001B689B693B613B69FB681B681A68FB68E8
:103650001B6842F480721A603B6800937B6800220A
:103660004FF00111F86800F031F80346002B0DD03F
:10367000FB681B681B6803F48073B3F5807F03D17C
:10368000FB684FF400721A64032317E07B89DB1197
:10369000DBB203F00603DBB263F00E03DAB2FB68C1
:1036A0001B681A613B687A680749F86800F088F877
:1036B0000346002B01D0012300E0002318461837F1
:1036C000BD4680BD080001000200010080B584B045
:1036D00000AFF860B9603B601346FB7148E03B689F
:1036E000B3F1FF3F44D0FEF71FFD0246BB69D31A7A
:1036F0003A689A4202D33B68002B39D1BB681B0C55
:10370000DBB2012B0DD1FB681B685B69DA43BB6838
:1037100013409BB2002B0CBF01230023DBB21A46DF
:103720000CE0FB681B689B69DA43BB6813409BB2E3
:10373000002B0CBF01230023DBB21A46FB799A420F
:1037400016D1FB6800221A63FB68202283F83D2013
:10375000FB68002283F83E20FB681B6C43F02002CC
:10376000FB681A64FB68002283F83C20012323E0F5
:10377000BB681B0CDBB2012B0DD1FB681B685B69BE
:10378000DA43BB6813409BB2002B0CBF012300231C
:10379000DBB21A460CE0FB681B689B69DA43BB6826
:1037A00013409BB2002B0CBF01230023DBB21A464F
:1037B000FB799A4293D0002318461037BD4680BD4E
:1037C00080B584B000AFF860B9607A603B6071E0AA
:1037D000FB681B685B6903F48063B3F5806F23D1DA
:1037E000FB681B681A68FB681B6842F400721A6069
:1037F000FB681B686FF480625A61FB6800221A63E1
:10380000FB68202283F83D20FB68002283F83E20DD
:10381000FB681B6C43F00402FB681A64FB6800221F
:1038200083F83C20012367E07B68B3F1FF3F41D080
:10383000FEF77AFC02463B68D31A7A689A4202D3B2
:103840007B68002B36D1BB681B0CDBB2012B0CD183
:10385000FB681B685B69DA43BB6813409BB2002BB3
:1038600014BF01230023DBB20BE0FB681B689B69DC
:10387000DA43BB6813409BB2002B14BF0123002323
:10388000DBB2002B16D0FB6800221A63FB682022F3
:1038900083F83D20FB68002283F83E20FB681B6C08
:1038A00043F02002FB681A64FB68002283F83C2086
:1038B000012321E0BB681B0CDBB2012B0CD1FB68A0
:1038C0001B685B69DA43BB6813409BB2002B14BFD3
:1038D00001230023DBB20BE0FB681B689B69DA4322
:1038E000BB6813409BB2002B14BF01230023DBB243
:1038F000002B7FF46DAF002318461037BD4680BD06
:1039000080B584B000AFF860B9607A6034E0F868E0
:1039100000F0E3F80346002B01D0012334E0BB683C
:10392000B3F1FF3F28D0FEF7FFFB02467B68D31AB6
:10393000BA689A4202D3BB68002B1DD1FB681B6892
:103940005B6903F08003802B16D0FB6800221A63AA
:10395000FB68202283F83D20FB68002283F83E208C
:10396000FB681B6C43F02002FB681A64FB680022B2
:1039700083F83C20012307E0FB681B685B6903F0C8
:103980008003802BC3D1002318461037BD4680BD6D
:1039900080B584B000AFF860B9607A6034E0F86850
:1039A00000F09BF80346002B01D0012334E0BB68F4
:1039B000B3F1FF3F28D0FEF7B7FB02467B68D31A6E
:1039C000BA689A4202D3BB68002B1DD1FB681B6802
:1039D0005B6903F00403042B16D0FB6800221A6312
:1039E000FB68202283F83D20FB68002283F83E20FC
:1039F000FB681B6C43F02002FB681A64FB68002222
:103A000083F83C20012307E0FB681B685B6903F037
:103A10000403042BC3D1002318461037BD4680BDD4
:103A200080B584B000AFF860B9607A6049E0FB68A7
:103A30001B685B6903F01003102B19D1FB681B682E
:103A40006FF010025A61FB6800221A63FB682022A3
:103A500083F83D20FB68002283F83E20FB681A6C47
:103A6000FB681A64FB68002283F83C20012330E0E5
:103A7000FEF75AFB02467B68D31ABA689A4202D311
:103A8000BB68002B1DD1FB681B685B6903F040031A
:103A9000402B16D0FB6800221A63FB68202283F8B3
:103AA0003D20FB68002283F83E20FB681B6C43F03E
:103AB0002002FB681A64FB68002283F83C20012383
:103AC00007E0FB681B685B6903F04003402BAED145
:103AD000002318461037BD4680BD80B483B000AFC8
:103AE00078607B681B685B6903F48063B3F5806F63
:103AF0001BD17B681B686FF480625A617B6800226F
:103B00001A637B68202283F83D207B68002283F8BB
:103B10003E207B681B6C43F004027B681A647B6860
:103B2000002283F83C20012300E0002318460C37D4
:103B3000BD4680BC7047000080B586B000AF78609D
:103B40007B68002B01D101236CE27B681B6803F0CA
:103B50000103002B00F08780924B5B6803F00C039D
:103B6000042B0CD08F4B5B6803F00C03082B12D195
:103B70008C4B5B6803F48033B3F5803F0BD1894BEA
:103B80001B6803F40033002B6CD07B685B68002B50
:103B900068D1012346E27B685B68B3F5803F06D1BC
:103BA000804B1B687F4A43F4803313602EE07B68B0
:103BB0005B68002B0CD17B4B1B687A4A23F4803363
:103BC0001360784B1B68774A23F4802313601DE051
:103BD0007B685B68B3F5A02F0CD1724B1B68714AF0
:103BE00043F4802313606F4B1B686E4A43F48033A9
:103BF00013600BE06B4B1B686A4A23F4803313603D
:103C0000684B1B68674A23F4802313607B685B68FA
:103C1000002B13D0FEF788FA386108E0FEF784FA2B
:103C200002463B69D31A642B01D90323FAE15D4BA9
:103C30001B6803F40033002BF0D014E0FEF774FA95
:103C4000386108E0FEF770FA02463B69D31A642B2C
:103C500001D90323E6E1534B1B6803F40033002B27
:103C6000F0D100E000BF7B681B6803F00203002B6B
:103C700063D04C4B5B6803F00C03002B0BD0494B1B
:103C80005B6803F00C03082B1CD1464B5B6803F404
:103C90008033002B16D1434B1B6803F00203002B2B
:103CA00005D07B681B69012B01D00123BAE13D4B94
:103CB0001B6823F0F8027B685B69DB00394913431A
:103CC0000B603AE07B681B69002B20D0364B012249
:103CD0001A60FEF729FA386108E0FEF725FA024675
:103CE0003B69D31A022B01D903239BE12D4B1B689F
:103CF00003F00203002BF0D02A4B1B6823F0F802DC
:103D00007B685B69DB00274913430B6015E0264B9A
:103D100000221A60FEF708FA386108E0FEF704FA9C
:103D200002463B69D31A022B01D903237AE11D4BCA
:103D30001B6803F00203002BF0D17B681B6803F0C3
:103D40000803002B3AD07B689B69002B19D0174BD6
:103D500001221A60FEF7E8F9386108E0FEF7E4F99D
:103D600002463B69D31A022B01D903235AE10D4BBA
:103D70005B6A03F00203002BF0D0012000F0FCFA94
:103D80001CE00A4B00221A60FEF7CEF938610FE002
:103D9000FEF7CAF902463B69D31A022B08D903235E
:103DA00040E100BF00100240000042428004424255
:103DB0009E4B5B6A03F00203002BE9D17B681B6812
:103DC00003F00403002B00F0A6800023FB75974B43
:103DD000DB6903F08053002B0DD1944BDB69934AD0
:103DE00043F08053D361914BDB6903F08053BB6098
:103DF000BB680123FB758E4B1B6803F48073002B9B
:103E000018D18B4B1B688A4A43F480731360FEF70A
:103E10008BF9386108E0FEF787F902463B69D31A4F
:103E2000642B01D90323FDE0814B1B6803F48073ED
:103E3000002BF0D07B68DB68012B06D17B4B1B6A23
:103E40007A4A43F0010313622DE07B68DB68002BA4
:103E50000CD1764B1B6A754A23F001031362734B36
:103E60001B6A724A23F0040313621CE07B68DB6860
:103E7000052B0CD16D4B1B6A6C4A43F00403136293
:103E80006A4B1B6A694A43F0010313620BE0674BFC
:103E90001B6A664A23F001031362644B1B6A634A80
:103EA00023F0040313627B68DB68002B15D0FEF758
:103EB0003BF938610AE0FEF737F902463B69D31A4D
:103EC00041F28832934201D90323ABE0574B1B6A7E
:103ED00003F00203002BEED014E0FEF725F9386161
:103EE0000AE0FEF721F902463B69D31A41F2883213
:103EF000934201D9032395E04C4B1B6A03F0020364
:103F0000002BEED1FB7D012B05D1484BDB69474AE5
:103F100023F08053D3617B68DB69002B00F0818044
:103F2000424B5B6803F00C03082B61D07B68DB69B4
:103F3000022B46D13F4B00221A60FEF7F5F838619C
:103F400008E0FEF7F1F802463B69D31A022B01D9CB
:103F5000032367E0354B1B6803F00073002BF0D19F
:103F60007B681B6AB3F5803F08D1304B5B6823F454
:103F700000327B689B682D4913434B602B4B5B6879
:103F800023F474127B68196A7B685B6A0B432749C8
:103F900013434B60274B01221A60FEF7C5F83861C6
:103FA00008E0FEF7C1F802463B69D31A022B01D99B
:103FB000032337E01D4B1B6803F00073002BF0D088
:103FC0002FE01C4B00221A60FEF7AEF8386108E0C3
:103FD000FEF7AAF802463B69D31A022B01D9032344
:103FE00020E0124B1B6803F00073002BF0D118E0A7
:103FF0007B68DB69012B01D1012313E00B4B5B686C
:10400000FB60FB6803F480327B681B6A9A4206D12E
:10401000FB6803F470127B685B6A9A4201D001234B
:1040200000E0002318461837BD4680BD001002404E
:10403000007000406000424280B584B000AF7860FC
:1040400039607B68002B01D10123D0E06A4B1B68EB
:1040500003F007033A689A4210D9674B1B6823F0B4
:10406000070265493B6813430B60634B1B6803F011
:1040700007033A689A4201D00123B8E07B681B68C5
:1040800003F00203002B20D07B681B6803F00403BD
:10409000002B05D0594B5B68584A43F4E0635360EA
:1040A0007B681B6803F00803002B05D0534B5B684B
:1040B000524A43F460535360504B5B6823F0F00264
:1040C0007B689B684D4913434B607B681B6803F01A
:1040D0000103002B40D07B685B68012B07D1474B65
:1040E0001B6803F40033002B15D101237FE07B68AC
:1040F0005B68022B07D1414B1B6803F00073002B58
:1041000009D1012373E03D4B1B6803F00203002B30
:1041100001D101236BE0394B5B6823F003027B681C
:104120005B68364913434B60FDF7FEFFF8600AE019
:10413000FDF7FAFF0246FB68D31A41F28832934238
:1041400001D9032353E02D4B5B6803F00C027B681D
:104150005B689B009A42EBD1274B1B6803F0070377
:104160003A689A4210D2244B1B6823F00702224976
:104170003B6813430B60204B1B6803F007033A684E
:104180009A4201D0012332E07B681B6803F00403EC
:10419000002B08D0194B5B6823F4E0627B68DB6876
:1041A000164913434B607B681B6803F00803002B20
:1041B00009D0124B5B6823F460527B681B69DB00FB
:1041C0000E4913434B6000F021F802460B4B5B682D
:1041D0001B0903F00F030A49CB5C22FA03F3094AD7
:1041E0001360094B1B681846FDF79CFE0023184618
:1041F0001037BD4680BD00BF0020024000100240C5
:104200002C8A0008000000200400002080B487B041
:1042100000AF0023FB600023BB6000237B61002311
:104220007B6000233B611E4B5B68FB60FB6803F017
:104230000C03042B02D0082B03D027E0194B3B6161
:1042400027E0FB689B0C03F00F03174AD35C7B60ED
:10425000FB6803F48033002B10D0114B5B685B0CC0
:1042600003F00103114AD35CBB607B680D4A02FB7B
:1042700003F2BB68B2FBF3F37B6104E07B680C4A9A
:1042800002FB03F37B617B693B6102E0054B3B6111
:1042900000BF3B6918461C37BD4680BC704700BF55
:1042A0000010024000127A00448A0008548A000874
:1042B00000093D0080B400AF024B1B681846BD46A4
:1042C00080BC70470000002080B500AFFFF7F2FF10
:1042D0000246054B5B681B0A03F007030349CB5CEE
:1042E00022FA03F3184680BD001002403C8A000801
:1042F00080B500AFFFF7DEFF0246054B5B68DB0AC7
:1043000003F007030349CB5C22FA03F3184680BD90
:10431000001002403C8A000880B483B000AF78608F
:1043200039607B680F221A60114B5B6803F003024F
:104330007B685A600E4B5B6803F0F0027B689A6002
:104340000B4B5B6803F4E0627B68DA60084B5B68E8
:10435000DB0803F4E0627B681A61064B1B6803F01C
:1043600007023B681A6000BF0C37BD4680BC70472F
:10437000001002400020024080B485B000AF786099
:104380000A4B1B680A4AA2FB03235B0A7A6802FBFA
:1043900003F3FB6000BFFB685A1EFA60002BF9D1E3
:1043A00000BF00BF1437BD4680BC7047000000202E
:1043B000D34D621080B586B000AF786000233B61BA
:1043C0000023FB607B681B6803F00103002B7DD09A
:1043D0000023FB754F4BDB6903F08053002B0DD19D
:1043E0004C4BDB694B4A43F08053D361494BDB694B
:1043F00003F08053BB60BB680123FB75464B1B6811
:1044000003F48073002B18D1434B1B68424A43F4DA
:1044100080731360FDF788FE386108E0FDF784FEC5
:1044200002463B69D31A642B01D903236DE03A4B52
:104430001B6803F48073002BF0D0364B1B6A03F427
:104440004073FB60FB68002B2ED07B685B6803F435
:104450004073FA689A4227D02E4B1B6A23F44073AC
:10446000FB602E4B01221A602C4B00221A60294A55
:10447000FB681362FB6803F00103002B14D0FDF707
:1044800053FE38610AE0FDF74FFE02463B69D31A3E
:1044900041F28832934201D9032336E01D4B1B6A57
:1044A00003F00203002BEED01A4B1B6A23F4407278
:1044B0007B685B68174913430B62FB7D012B05D1B9
:1044C000144BDB69134A23F08053D3617B681B686C
:1044D00003F00203002B08D00E4B5B6823F440422C
:1044E0007B689B680B4913434B607B681B6803F038
:1044F0001003002B08D0074B5B6823F480027B6815
:10450000DB68044913434B60002318461837BD4647
:1045100080BD00BF001002400070004040044242D5
:1045200080B582B000AF78607B68002B01D1012399
:1045300076E07B685B6A002B08D17B685B68B3F52B
:10454000827F09D07B680022DA6105E07B68002267
:104550001A617B6800225A617B6800229A627B683C
:1045600093F85130DBB2002B06D17B68002283F830
:1045700050207868FDF740FC7B68022283F85120C8
:104580007B681B681A687B681B6822F040021A600F
:104590007B685B6803F482727B689B6803F4044366
:1045A0001A437B68DB6803F400631A437B681B696A
:1045B00003F002031A437B685B6903F001031A43AB
:1045C0007B689B6903F400731A437B68DB6903F023
:1045D00038031A437B681B6A03F0800342EA030135
:1045E0007B689B6A03F400527B681B680A431A606D
:1045F0007B689B691A0C7B681B6802F004025A6096
:104600007B681B68DA697B681B6822F40062DA61E8
:104610007B6800225A657B68012283F851200023C1
:1046200018460837BD4680BD80B588B000AFF86039
:10463000B9603B601346FB80FDF776FDF861FB88AF
:104640007B83FB6893F85130DBB2012B01D002234E
:104650002AE1BB68002B02D0FB88002B01D101238B
:1046600022E1FB6893F85030012B01D102231BE1BA
:10467000FB68012283F85020FB68032283F8512055
:10468000FB6800225A65FB68BA681A63FB68FA88FF
:104690009A86FB68FA88DA86FB6800229A63FB68D0
:1046A00000229A87FB680022DA87FB6800225A649E
:1046B000FB6800221A64FB689B68B3F5004F0FD1BA
:1046C000FB681B681A68FB681B6822F040021A60CE
:1046D000FB681B681A68FB681B6842F480421A601A
:1046E000FB681B681B6803F04003402B07D0FB6886
:1046F0001B681A68FB681B6842F040021A60FB687E
:10470000DB68B3F5006F52D1FB685B68002B02D009
:104710007B8B012B45D1FB681B6B1A88FB681B68E0
:10472000DA60FB681B6B9A1CFB681A63FB68DB8E04
:104730009BB2013B9AB2FB68DA8632E0FB681B68E9
:104740009B6803F00203022B12D1FB681B6B1A88D3
:10475000FB681B68DA60FB681B6B9A1CFB681A63BA
:10476000FB68DB8E9BB2013B9AB2FB68DA8618E0ED
:10477000FDF7DAFC0246FB69D31A3A689A4203D87D
:104780003B68B3F1FF3F02D13B68002B09D1FB68C6
:10479000012283F85120FB68002283F85020032374
:1047A00082E0FB68DB8E9BB2002BC7D153E0FB6835
:1047B0005B68002B02D07B8B012B47D1FB681A6B07
:1047C000FB681B680C3312781A70FB681B6B5A1C51
:1047D000FB681A63FB68DB8E9BB2013B9AB2FB68F5
:1047E000DA8633E0FB681B689B6803F00203022B48
:1047F00013D1FB681A6BFB681B680C3312781A70B4
:10480000FB681B6B5A1CFB681A63FB68DB8E9BB250
:10481000013B9AB2FB68DA8618E0FDF785FC024698
:10482000FB69D31A3A689A4203D83B68B3F1FF3F59
:1048300002D13B68002B09D1FB68012283F851208B
:10484000FB68002283F8502003232DE0FB68DB8EF9
:104850009BB2002BC6D1FA693968F86800F066FA95
:104860000346002B02D0FB6820225A65FB689B6838
:10487000002B0AD100237B61FB681B68DB687B612E
:10488000FB681B689B687B617B69FB68012283F87E
:104890005120FB68002283F85020FB685B6D002BE1
:1048A00001D0012300E0002318462037BD4680BD1B
:1048B00080B58AB000AFF860B9607A607B80012370
:1048C0007B62FDF731FC3862FB6893F85130FB776F
:1048D000FB685B68BB617B88FB82FB7F012B0CD094
:1048E000BB69B3F5827F06D1FB689B68002B02D1C0
:1048F000FB7F042B01D002237FE1BB68002B05D096
:104900007B68002B02D07B88002B01D1012374E14E
:10491000FB6893F85030012B01D102236DE1FB6855
:10492000012283F85020FB6893F85130DBB2042B4E
:1049300003D0FB68052283F85120FB6800225A65EA
:10494000FB687A689A63FB687A88DA87FB687A88FA
:104950009A87FB68BA681A63FB687A88DA86FB680C
:104960007A889A86FB6800221A64FB6800225A64DF
:10497000FB681B681B6803F04003402B07D0FB68F3
:104980001B681A68FB681B6842F040021A60FB68EB
:10499000DB68B3F5006F7ED1FB685B68002B02D04B
:1049A000FB8A012B6CD1FB681B6B1A88FB681B68A8
:1049B000DA60FB681B6B9A1CFB681A63FB68DB8E72
:1049C0009BB2013B9AB2FB68DA8659E0FB681B6830
:1049D0009B6803F00203022B1BD1FB68DB8E9BB2AA
:1049E000002B16D07B6A012B13D1FB681B6B1A8836
:1049F000FB681B68DA60FB681B6B9A1CFB681A6318
:104A0000FB68DB8E9BB2013B9AB2FB68DA8600231F
:104A10007B62FB681B689B6803F00103012B19D1C3
:104A2000FB68DB8F9BB2002B14D0FB681B68DA6835
:104A3000FB689B6B92B21A80FB689B6B9A1CFB68AD
:104A40009A63FB68DB8F9BB2013B9AB2FB68DA8703
:104A500001237B62FDF768FB02463B6AD31A3A6B7F
:104A60009A420DD83B6BB3F1FF3F09D0FB6801229E
:104A700083F85120FB68002283F850200323BCE018
:104A8000FB68DB8E9BB2002BA0D1FB68DB8F9BB257
:104A9000002B9BD182E0FB685B68002B02D0FB8A75
:104AA000012B71D1FB681A6BFB681B680C33127801
:104AB0001A70FB681B6B5A1CFB681A63FB68DB8E61
:104AC0009BB2013B9AB2FB68DA865DE0FB681B682B
:104AD0009B6803F00203022B1CD1FB68DB8E9BB2A8
:104AE000002B17D07B6A012B14D1FB681A6BFB6873
:104AF0001B680C3312781A70FB681B6B5A1CFB681E
:104B00001A63FB68DB8E9BB2013B9AB2FB68DA86C4
:104B100000237B62FB681B689B6803F00103012B89
:104B200019D1FB68DB8F9BB2002B14D0FB681B688C
:104B3000DA68FB689B6BD2B21A70FB689B6B5A1CDD
:104B4000FB689A63FB68DB8F9BB2013B9AB2FB6800
:104B5000DA8701237B62FDF7E7FA02463B6AD31A44
:104B60003A6B9A4203D83B6BB3F1FF3F02D13B6BE8
:104B7000002B09D1FB68012283F85120FB68002239
:104B800083F85020032338E0FB68DB8E9BB2002BB8
:104B90009CD1FB68DB8F9BB2002B97D13A6A396BB3
:104BA000F86800F0C3F80346002B08D0FB68202209
:104BB0005A65FB68002283F8502001231DE0FB6842
:104BC0009B68002B0AD100233B61FB681B68DB68F4
:104BD0003B61FB681B689B683B613B69FB6801228A
:104BE00083F85120FB68002283F85020FB685B6D3E
:104BF000002B01D0012300E0002318462837BD46D2
:104C000080BD80B483B000AF78607B6893F851308A
:104C1000DBB218460C37BD4680BC704780B588B003
:104C200000AFF860B9603B601346FB71FDF77CFA9A
:104C30000246BB6A9B1A3A681344FB61FDF774FA9B
:104C4000B861394B1B685B011B0DFA6902FB03F36A
:104C50007B6154E03B68B3F1FF3F50D0FDF764FA4D
:104C60000246BB69D31AFA699A4202D9FB69002B42
:104C70003DD1FB681B685A68FB681B6822F0E002A4
:104C80005A60FB685B68B3F5827F11D1FB689B6853
:104C9000B3F5004F04D0FB689B68B3F5806F07D174
:104CA000FB681B681A68FB681B6822F040021A60E8
:104CB000FB689B6AB3F5005F0FD1FB681B681A683D
:104CC000FB681B6822F400521A60FB681B681A68B4
:104CD000FB681B6842F400521A60FB68012283F8EB
:104CE0005120FB68002283F85020032317E07B69E2
:104CF000002B01D10023FB617B69013B7B61FB68D9
:104D00001B689A68BB681340BA689A420CBF0123BB
:104D10000023DBB21A46FB799A429BD10023184646
:104D20002037BD4680BD00BF0000002080B586B0A2
:104D300002AFF860B9607A607B680093BB680122BB
:104D40000221F868FFF76AFF0346002B07D0FB68D3
:104D50005B6D43F02002FB685A65032313E07B6818
:104D60000093BB6800228021F868FFF757FF0346D5
:104D7000002B07D0FB685B6D43F02002FB685A658F
:104D8000032300E0002318461037BD4680BD80B5E0
:104D900082B000AF78607B68002B01D1012341E035
:104DA0007B6893F83D30DBB2002B06D17B68002294
:104DB00083F83C20786800F039F87B68022283F899
:104DC0003D207B681A687B6804331946104600F062
:104DD0009DF97B68012283F846207B68012283F8D5
:104DE0003E207B68012283F83F207B68012283F804
:104DF00040207B68012283F841207B68012283F8F0
:104E000042207B68012283F843207B68012283F8DB
:104E100044207B68012283F845207B68012283F8C7
:104E20003D20002318460837BD4680BD80B483B0BE
:104E300000AF786000BF0C37BD4680BC70470000F3
:104E400080B485B000AF78607B6893F83D30DBB20A
:104E5000012B01D001233AE07B68022283F83D2038
:104E60007B681B68DA687B681B6842F00102DA60C5
:104E70007B681B68184A93420ED07B681B68B3F1AD
:104E8000804F09D07B681B68144A934204D07B682A
:104E90001B68134A934211D17B681B689B6803F01F
:104EA0000703FB60FB68062B10D07B681B681A6841
:104EB0007B681B6842F001021A6007E07B681B6890
:104EC0001A687B681B6842F001021A6000231846CA
:104ED0001437BD4680BC7047002C014000040040E0
:104EE0000008004080B584B000AF78607B681B6824
:104EF000DB68FB607B681B681B69BB60BB6803F0F9
:104F00000203002B20D0FB6803F00203002B1BD010
:104F10007B681B686FF002021A617B6801221A77B6
:104F20007B681B689B6903F00303002B03D0786840
:104F300000F0D1F805E0786800F0C4F8786800F077
:104F4000D3F87B6800221A77BB6803F00403002BB8
:104F500020D0FB6803F00403002B1BD07B681B6888
:104F60006FF004021A617B6802221A777B681B6863
:104F70009B6903F44073002B03D0786800F0ABF812
:104F800005E0786800F09EF8786800F0ADF87B687E
:104F900000221A77BB6803F00803002B20D0FB68BF
:104FA00003F00803002B1BD07B681B686FF008021E
:104FB0001A617B6804221A777B681B68DB6903F03F
:104FC0000303002B03D0786800F085F805E07868CB
:104FD00000F078F8786800F087F87B6800221A778C
:104FE000BB6803F01003002B20D0FB6803F0100314
:104FF000002B1BD07B681B686FF010021A617B6866
:1050000008221A777B681B68DB6903F44073002B66
:1050100003D0786800F05FF805E0786800F052F897
:10502000786800F061F87B6800221A77BB6803F0AB
:105030000103002B0CD0FB6803F00103002B07D009
:105040007B681B686FF001021A617868FCF70AFE42
:10505000BB6803F08003002B0CD0FB6803F08003D7
:10506000002B07D07B681B686FF080021A6178689C
:1050700000F0C3F8BB6803F04003002B0CD0FB68C2
:1050800003F04003002B07D07B681B686FF04002E1
:105090001A61786800F031F8BB6803F02003002B38
:1050A0000CD0FB6803F02003002B07D07B681B6843
:1050B0006FF020021A61786800F096F800BF103790
:1050C000BD4680BD80B483B000AF786000BF0C37B0
:1050D000BD4680BC704780B483B000AF786000BF2D
:1050E0000C37BD4680BC704780B483B000AF786099
:1050F00000BF0C37BD4680BC704780B483B000AFA2
:10510000786000BF0C37BD4680BC704780B485B066
:1051100000AF786039607B681B68FB607B682F4A52
:1051200093420BD07B68B3F1804F07D07B682C4A49
:10513000934203D07B682B4A934208D1FB6823F04B
:105140007003FB603B685B68FA681343FB607B6835
:10515000224A93420BD07B68B3F1804F07D07B6823
:105160001F4A934203D07B681E4A934208D1FB68D2
:1051700023F44073FB603B68DB68FA681343FB6011
:10518000FB6823F080023B685B691343FB607B682C
:10519000FA681A603B689A687B68DA623B681A684A
:1051A0007B689A627B680D4A934203D13B681A6917
:1051B0007B681A637B6801225A617B681B6903F074
:1051C0000103002B05D07B681B6923F001027B687B
:1051D0001A6100BF1437BD4680BC7047002C0140E7
:1051E000000400400008004080B483B000AF786045
:1051F00000BF0C37BD4680BC704780B483B000AFA1
:10520000786000BF0C37BD4680BC704780B582B067
:1052100000AF78607B68002B01D1012342E07B68FE
:1052200093F84130DBB2002B06D17B68002283F873
:1052300040207868FCF72AFE7B68242283F841200E
:105240007B681B68DA687B681B6822F40052DA60AE
:10525000786800F071F97B681B681A697B681B68C5
:1052600022F490421A617B681B685A697B681B684C
:1052700022F02A025A617B681B68DA687B681B6827
:1052800042F40052DA607B6800225A647B68202274
:1052900083F841207B68202283F842207B6800222B
:1052A0005A63002318460837BD4680BD80B58AB0D2
:1052B00002AFF860B9603B601346FB8000237B615E
:1052C000FB6893F84130DBB2202B75D1BB68002B13
:1052D00002D0FB88002B01D101236EE0FB68002285
:1052E0005A64FB68212283F84120FCF71DFF786196
:1052F000FB68FA889A84FB68FA88DA84FB689B6802
:10530000B3F5805F08D1FB681B69002B04D1002333
:10531000FB61BB68BB6103E0BB68FB610023BB6151
:105320002EE03B6800937B6900228021F86800F042
:1053300048F80346002B05D0FB68202283F8412063
:1053400003233AE0FB69002B0BD1BB691B881A468B
:10535000FB681B68C2F308025A60BB690233BB6179
:1053600007E0FB691A78FB681B685A60FB69013328
:10537000FB61FB68DB8C9BB2013B9AB2FB68DA8471
:10538000FB68DB8C9BB2002BCBD13B6800937B6925
:1053900000224021F86800F014F80346002B05D0E5
:1053A000FB68202283F84120032306E0FB682022CB
:1053B00083F84120002300E0022318462037BD4631
:1053C00080BD80B586B000AFF860B9603B60134621
:1053D000FB713BE03B6AB3F1FF3F37D0FCF7A4FE23
:1053E00002463B68D31A3A6A9A4202D33B6A002BC0
:1053F00001D103233AE0FB681B68DB6803F0040378
:10540000002B23D0BB68802B20D0BB68402B1DD045
:10541000FB681B681B6803F00803082B16D10023E8
:105420007B61FB681B681B687B61FB681B685B68B2
:105430007B617B69F86800F01DF8FB6808225A64FC
:10544000FB68002283F8402001230FE0FB681B6803
:105450001A68BB681340BA689A420CBF0123002344
:10546000DBB21A46FB799A42B4D0002318461837AB
:10547000BD4680BD80B495B000AF78607B681B6886
:105480000C337B637B6B53E8003F3B633B6B23F444
:105490009073FB647B681B680C33FA6C3A64FB63A3
:1054A000F96B3A6C41E80023BB63BB6B002BE5D181
:1054B0007B681B6814333B623B6A53E8003FFB6127
:1054C000FB6923F00103BB647B681B681433BA6C6F
:1054D000FA62BB62B96AFA6A41E800237B627B6ABE
:1054E000002BE5D17B681B6B012B19D17B681B68F6
:1054F0000C33FB60FB6853E8003FBB60BB6823F0E4
:1055000010037B647B681B680C337A6CBA617B6127
:105510007969BA6941E800233B613B69002BE5D119
:105520007B68202283F842207B6800221A6300BF38
:105530005437BD4680BC704780B584B000AF7860FA
:105540007B681B681B6923F440517B68DA687B68C1
:105550001B680A431A617B689A687B681B691A4357
:105560007B685B691343BB607B681B68DB6823F463
:10557000B05323F00C037A681268B9680B43D36008
:105580007B681B685B6923F440717B689A697B6860
:105590001B680A435A617B681B682C4A934203D1FB
:1055A000FEF7A6FEF86002E0FEF78EFEF860FA68ED
:1055B00013469B0013449A001A447B685B689B0067
:1055C000B2FBF3F3224AA2FB03235B091901FA6839
:1055D00013469B0013449A001A447B685B689B0047
:1055E000B2FBF3F21A4BA3FB02035B09642000FB3E
:1055F00003F3D31A1B013233154AA2FB03235B09C1
:1056000003F0F0031944FA6813469B0013449A0010
:105610001A447B685B689B00B2FBF3F20C4BA3FB64
:1056200002035B09642000FB03F3D31A1B0132332E
:10563000074AA2FB03235B0903F00F027B681B6888
:105640000A449A6000BF1037BD4680BD0038014053
:105650001F85EB5180B485B000AF0346FB8000236B
:10566000FB60B7F90630842B05D0B7F90620FB683C
:1056700013440333FB60FB6818461437BD4680BCF7
:10568000704780B483B000AFEFF305837B607B6825
:10569000002B14BF01230023DBB218460C37BD4694
:1056A00080BC704780B500AF01F022F90023184696
:1056B00080BDF0B589B004AF786039607B685B6904
:1056C000002B20D07B689B69002B1CD07B685C681A
:1056D0007B681D687B681E697B68B3F908301846D3
:1056E000FFF7B8FF01467B685B697A6892690292AE
:1056F000019300913B6832462946204600F019FF8D
:105700000346FB601CE07B685C687B681D687B6807
:105710001B699EB27B68B3F908301846FFF79AFF01
:10572000024607F10C03019300923B68324629467A
:10573000204600F05BFF0346012B01D0002300E070
:10574000FB6818461437BD46F0BD80B584B000AF85
:1057500078607B68FB60FB68002B01D0FB6800E091
:105760000123184601F090F8002318461037BD4673
:1057700080BD80B586B002AF786039607B685B68B9
:10578000002B0FD03B68012B0AD17B685B6803229A
:10579000009200220021012000F0BAF9034616E031
:1057A000002314E03B68012B10D1032200210120CB
:1057B00000F026FAF860FB68002B05D000230022D9
:1057C0000021F86800F076FAFB6800E00023184634
:1057D0001037BD4680BD000080B584B000AF786052
:1057E00039600023BB607B68002B01D180233AE045
:1057F0000023FB603B68B3F1FF3F03D14FF0FF3361
:10580000FB6009E03B68002B06D03B68FB60FB684F
:10581000002B01D10123FB60FFF733FF0346002B70
:1058200017D007F108031A460021786800F0DAFC67
:105830000346012B01D0FF2315E0BB68002B11D0DC
:105840000B4B4FF080521A60BFF34F8FBFF36F8F37
:1058500008E0F968786800F0B9FB0346012B01D035
:10586000FF2300E0002318461037BD4680BD00BF6F
:1058700004ED00E080B584B000AF78600023FB60E9
:105880000023BB60FFF7FDFE0346002B16D007F197
:1058900008031946786800F00BFB0346012B01D082
:1058A000FF2317E0BB68002B13D00C4B4FF0805246
:1058B0001A60BFF34F8FBFF36F8F0AE000230022FF
:1058C0000021786800F0F6F90346012B01D0FF2390
:1058D000FB60FB6818461037BD4680BD04ED00E054
:1058E00080B483B000AF78607B6803F108027B6806
:1058F0005A607B684FF0FF329A607B6803F10802C0
:105900007B68DA607B6803F108027B681A617B6858
:1059100000221A6000BF0C37BD4680BC704780B4BF
:1059200083B000AF78607B6800221A6100BF0C373B
:10593000BD4680BC704780B485B000AF78603960E8
:105940007B685B68FB603B68FA685A60FB689A6832
:105950003B689A60FB689B683A685A60FB683A68E3
:105960009A603B687A681A617B681B685A1C7B687E
:105970001A6000BF1437BD4680BC704780B485B044
:1059800000AF786039603B681B68BB60BB68B3F1EF
:10599000FF3F03D17B681B69FB600CE07B68083329
:1059A000FB6002E0FB685B68FB60FB685B681B6890
:1059B000BA689A42F6D2FB685A683B685A603B68FC
:1059C0005B683A689A603B68FA689A60FB683A6874
:1059D0005A603B687A681A617B681B685A1C7B684E
:1059E0001A6000BF1437BD4680BC704780B485B0D4
:1059F00000AF78607B681B69FB607B685B687A68D6
:105A000092689A607B689B687A6852685A60FB6803
:105A10005B687A689A4203D17B689A68FB685A602F
:105A20007B6800221A61FB681B685A1EFB681A60BB
:105A3000FB681B6818461437BD4680BC70470000E1
:105A400080B584B000AF786039607B68FB60FB682C
:105A5000002B0AD14FF0500383F31188BFF36F8FEF
:105A6000BFF34F8FBB6000BFFEE701F067FEFB682E
:105A70001A68FB68DB6BF968096C01FB03F31A44D5
:105A8000FB689A60FB6800229A63FB681A68FB68EF
:105A90005A60FB681A68FB68DB6B013BF968096CAC
:105AA00001FB03F31A44FB68DA60FB68FF2283F80A
:105AB0004420FB68FF2283F845203B68002B14D16B
:105AC000FB681B69002B1AD0FB681033184601F0E5
:105AD00061F90346002B12D00C4B4FF080521A6034
