:020000040800F2
:100000000050002045220008692100086F210008E7
:10001000752100087B2100088121000800000000F4
:100020000000000000000000000000008721000820
:1000300093210008000000009F210008AB21000868
:100040008D2200088D2200088D2200088D220008D4
:100050008D2200088D2200088D2200088D220008C4
:100060008D2200088D2200088D2200088D220008B4
:100070008D2200088D2200088D2200088D220008A4
:100080008D2200088D2200088D2200088D22000894
:100090008D2200088D2200088D2200088D22000884
:1000A0008D2200088D2200088D2200088D22000874
:1000B0008D2200088D220008B92100088D22000839
:1000C0008D2200088D2200088D2200088D22000854
:1000D0008D2200088D2200088D2200088D22000844
:1000E0008D2200088D2200088D22000800000000EB
:1000F0000000000000000000000000000000000000
:0C01000000000000000000005FF808F1A3
:1001100010B5054C237833B9044B13B10448AFF341
:1001200000800123237010BD780000200000000033
:100130003853000808B5034B1BB103490348AFF31C
:10014000008008BD000000007C000020385300083B
:1001500053B94AB9002908BF00281CBF4FF0FF312E
:100160004FF0FF3000F06EB9ADF1080C6DE904CE30
:1001700000F006F8DDF804E0DDE9022304B0704782
:100180002DE9F047089E0D4604468E46002B40F0B0
:1001900083808A42174647D9B2FA82F34BB1C3F142
:1001A000200105FA03FE20FA01F19F4041EA0E0EFC
:1001B0009C404FEA1748BEFBF8FC1FFA87F908FB82
:1001C0001CE20CFB09F0210C41EA024290420AD9E0
:1001D000BA180CF1FF3180F01881904240F215817D
:1001E000ACF1020C3A44121AB2FBF8F008FB1022F0
:1001F00000FB09F1A4B244EA0244A14209D93C1926
:1002000000F1FF3280F00381A14240F20081023808
:100210003C44641A002140EA0C401EB10022DC403C
:10022000C6E90042BDE8F08702B9FFDEB2FA82F308
:10023000002B4FD18D1A01214FEA124E1FFA82F87E
:10024000B5FBFEFC0EFB1C5508FB0CF0220C42EA31
:100250000545A84207D97D190CF1FF3202D2A84208
:1002600000F2E98094462D1AB5FBFEF00EFB105506
:1002700008FB00F8A4B244EA0544A04507D93C199C
:1002800000F1FF3202D2A04500F2D9801046A4EB63
:10029000080440EA0C40C0E78B4208D9002E00F069
:1002A000B1800021C6E900050846BDE8F087B3FA31
:1002B00083F100294BD1AB4202D3824200F2B980D4
:1002C000841A65EB030301209E46002EAAD0C6E9DE
:1002D000004EA7E79F40C3F12002D1404FEA174EDE
:1002E000B1FBFEF01FFA87F80EFB101124FA02F2A0
:1002F0009D4000FB08FC2A43150C45EA0145AC452E
:1003000004FA03F409D97D1900F1FF3180F08F80E0
:10031000AC4540F28C8002383D44A5EB0C05B5FBA2
:10032000FEF10EFB115C01FB08F995B245EA0C45A4
:10033000A94507D97D1901F1FF3274D2A94572D9B7
:1003400002393D44A5EB090541EA004178E7C1F1D6
:1003500020078B4022FA07FC4CEA030C25FA07F42D
:100360004FEA1C4EB4FBFEF91FFA8CF80EFB194441
:1003700020FA07F309FB08FA8D401D432B0C43EAD2
:100380000444A24502FA01F200FA01F309D91CEB78
:10039000040409F1FF3048D2A24546D9A9F1020967
:1003A0006444A4EB0A04B4FBFEF00EFB104400FB13
:1003B00008FAADB245EA0444A24508D91CEB04048E
:1003C00000F1FF352DD2A2452BD90238644440EA12
:1003D0000940A0FB0289A4EB0A044C45C6464D46E1
:1003E00019D316D05EB1B3EB0E0264EB050404FA28
:1003F00007F722FA01F31F43CC40C6E9007400213D
:10040000BDE8F087314630460CE78C46EBE61046F7
:10041000FFE64345E6D2B8EB020E69EB0C05013866
:10042000E0E72846D3E711468CE78146B9E708465E
:1004300073E7084649E7ACF1020C3D4413E7023884
:100440003C4424E7704700BF80B584B000AF7860BB
:100450000B46FB707B681B68FA781146184600F063
:10046000D0FB7B681B68184600F0EBFB0346FB7370
:100470007B681B680121184600F088FBFB7B18464F
:100480001037BD4680BD80B582B000AF78600B46A6
:10049000FB701346BB707B681B680021184600F098
:1004A00075FB7B681A68FB7863F07F03DBB2194643
:1004B000104600F0A6FB7B681B68BA781146184608
:1004C00000F09FFB7B681B680121184600F05EFB73
:1004D00000BF0837BD4680BD90B587B000AFF8605B
:1004E0007A601A460B46FB721346BB72BB7A012B2D
:1004F00027D9FB681B680021184600F047FBFB6802
:100500001B68FA7A1146184600F07BFB0023FB7546
:100510000CE0FB681968FB7D7A68D418084600F087
:1005200090FB03462370FB7D0133FB75FA7DBB7A9C
:100530009A42EED3FB681B680121184600F026FBA7
:1005400000E000BF1C37BD4690BD80B586B000AF4F
:10055000F8607A601A460B46FB721346BB72BB7A90
:10056000012B29D9FB681B680021184600F00EFBFF
:10057000FB681A68FB7A63F07F03DBB2194610460A
:1005800000F03FFB0023FB750BE0FB681868FB7D68
:100590007A6813441B78194600F033FBFB7D013366
:1005A000FB75FA7DBB7A9A42EFD3FB681B68012189
:1005B000184600F0EBFA00E000BF1837BD4680BDDA
:1005C00080B586B000AF7860786800F00DF90F2034
:1005D00000F05DFB786800F017F97B68D3E902232F
:1005E0004FF000004FF00001D90441EA5231D0042D
:1005F0006F4A4FF00003FFF7ABFD02460B46C7E919
:100600000423D7E904014FF000024FF00003020C6D
:1006100042EA01420B0CD3B23B73D7E904014FF01D
:1006200000024FF00003020A42EA01620B0AD3B251
:100630007B733B7CBB7307F10C02032306217868B4
:10064000FFF783FF342239217868FFF71CFF7B68AE
:100650001B7C1A46574B9B5C1A4609217868FFF7AA
:1006600012FF0B220B217868FFF70DFF23220C21CC
:100670007868FFF708FF7B685B7C1A464E4B9B5CF3
:10068000062B47D17B689B7C1A464C4B9B5C1B011D
:10069000DAB27B68DB7C1946494B5B5C5B00DBB202
:1006A0001344DBB20133DBB21A461D217868FFF731
:1006B000EAFE7B685B7C1A463F4B9B5C1B01DAB20F
:1006C0007B681B7D19463F4B5B5C9B00DBB2134490
:1006D000DBB20333DBB21A461E217868FFF7D3FE84
:1006E00031217868FFF7B0FE0346FB73FB7B23F0F4
:1006F0000703FB73FB7B43F00503FB73FB7B1A468D
:1007000031217868FFF7BFFE0C2237217868FFF7A8
:10071000BAFE29E07B689B7C1A46284B9B5C1B0138
:10072000DAB27B68DB7C1946254B5B5C5B00DBB295
:100730001344DBB21A461D217868FFF7A4FE7B68DC
:100740005B7C1A461C4B9B5C1B01DAB27B681B7DF1
:1007500019461C4B5B5C9B00DBB21344DBB21A46B0
:100760001E217868FFF78FFE042226217868FFF7A4
:100770008AFE08221F217868FFF785FE00222021CB
:100780007868FFF780FE082221217868FFF77BFE5A
:10079000012241217868FFF776FE7B68002283F80A
:1007A0001721786800F010F800BF1837BD4680BDEB
:1007B0000048E801045600080856000810560008D2
:1007C0001C5600082056000880B582B000AF786043
:1007D000092201217868FFF756FE7B6801229A758D
:1007E00000BF0837BD4680BD80B582B000AF7860DD
:1007F000082201217868FFF746FE7B6800229A757F
:1008000000BF0837BD4680BD80B582B000AF7860BC
:10081000882201217868FFF736FE00BF0837BD4601
:1008200080BD80B582B000AF7860FF221221786869
:10083000FFF729FE00BF0837BD4680BD80B586B0F2
:1008400000AFF8600B467A60FB72FB68FA7A5A7563
:10085000F868FFF7B5FE84224D21F868FFF713FE14
:10086000FF222421F868FFF70EFE01224021F868DC
:10087000FFF709FE3F221121F868FFF704FEF86830
:10088000FFF7CFFFFB7A1A462221F868FFF7FBFD3E
:100890000F21F868FFF7D8FD0346FB75FB7D1A466C
:1008A0000D21F868FFF7EFFD8D220121F868FFF7B1
:1008B000EAFDFB68002283F817211821F868FFF78A
:1008C000C3FD034603F00403042B04D1FB68032299
:1008D0009A75012313E07B68013B7B607B68002BEA
:1008E00009D1FB681B68184600F067F9F868FFF744
:1008F00067FE002303E0012000F0C9F9DDE7184698
:100900001837BD4680BD80B584B000AF78607B6885
:100910001B68184600F0C6F90346002B30D07B68F0
:1009200017334FF480720021184604F0B7F81021F5
:100930007868FFF789FD0346BB73BB7B1A460D2120
:100940007868FFF7A0FD7B685B7C002B03D17B6898
:100950005B7DFB7305E013217868FFF775FD0346A7
:10096000FB737B6803F11702FB7B00217868FFF7BC
:10097000B3FD7B68FA7B83F817217868FFF751FF96
:100980007B6893F8173118461037BD4680BD80B597
:1009900086B000AFF8600B467A60FB72FB68FA7AAB
:1009A0005A75F868FFF70CFE87224D21F868FFF7AB
:1009B0006AFD00222421F868FFF765FD41224021ED
:1009C000F868FFF760FDF868FFF72BFFF7221121A9
:1009D000F868FFF758FDFB7A1A462221F868FFF7FE
:1009E00052FD0E21F868FFF72FFD0346FB75FB7DD6
:1009F0001A460D21F868FFF746FD2221F868FFF737
:100A000023FD0346BB75BA7DFB7A9A4204D1FB688D
:100A100002229A7501230EE07B68013B7B607B68B4
:100A2000002BEAD1FB681B68184600F0C6F8F8688E
:100A3000FFF7C6FD002318461837BD4680BD80B5B8
:100A400084B000AFF860B9603B601346FB71FB797E
:100A5000BA680021F868FFF778FD8B220121F86859
:100A6000FFF711FDFB681B68184600F01BF90346F1
:100A7000002B0BD01221F868FFF7E6FCF868FFF7AF
:100A8000D0FEF868FFF7A0FE012313E03B68013BAE
:100A90003B603B68002B09D1FB681B68184600F0DF
:100AA0008CF8F868FFF78CFD002303E0012000F0CC
:100AB000EEF8D7E718461037BD4680BD80B584B044
:100AC00000AFF860C7E90023FB681B68184600F018
:100AD00048F8F968D7E90023C1E90223FB683A7EA8
:100AE0001A74FB683A7F5A74FB6897F820209A744E
:100AF000FB6897F82420DA74FB6897F828201A75A9
:100B0000FB6897F82C205A75F868FFF759FD00BF6D
:100B10001037BD4680BD80B584B000AFF860B960C5
:100B20001346FB71FB6893F81731FA799A4203D0A8
:100B3000FB6893F81731FB71FB681733FA79194694
:100B4000B86803F09DFFFB79BA68134400221A705D
:100B5000FB68002283F81721FB7918461037BD4641
:100B600080BD80B582B000AF78600121786800F068
:100B70000DF87B6858687B681B689BB20122194698
:100B800002F069F800BF0837BD4680BD80B582B06D
:100B900000AF786039607B6858697B681B6999B2DF
:100BA0003B68012B0CBF01230023DBB21A4602F085
:100BB00052F800BF0837BD4680BD80B582B000AF97
:100BC000786001217868FFF7E1FF7B6858687B68EF
:100BD0001B689BB20022194602F03DF8012000F08C
:100BE00056F87B6858687B681B689BB201221946DF
:100BF00002F031F8642000F04AF800BF0837BD4623
:100C000080BD80B582B000AF78600B46FB700021DC
:100C10007868FFF7BBFF7B689869F91C4FF47A731B
:100C2000012202F0EDFE00BF7B689B69184603F0CD
:100C3000D4F90346012BF7D100BF00BF0837BD46EA
:100C400080BD80B586B002AF78600023FB730023BF
:100C5000BB7300217868FFF799FF7B68986907F1FB
:100C60000E0207F10F014FF47A730093012303F092
:100C70000BF800BF7B689B69184603F0AEF903468A
:100C8000012BF7D1BB7B18461037BD4680BD80B520
:100C900082B000AF7860786801F02CFB00BF0837A5
:100CA000BD4680BD80B582B000AF78607B68DA68F1
:100CB0007B689B689BB21946104601F0B5FF03465E
:100CC000012B0CBF01230023DBB218460837BD46B9
:100CD00080BD00000FB480B5A2B000AF07F194034F
:100CE0003B60381D3B68D7F89020802103F00AFF55
:100CF000C7F88400D7F88430002B0FDDD7F8843094
:100D0000802B02D98023C7F88430D7F884309AB278
:100D1000391D4FF4FA73054803F0B4FC00BF88375F
:100D2000BD46BDE8804004B0704700BFEC01002024
:100D300080B584B000AF786039607B68DBB23A6818
:100D400019460748FFF723FE0346FB73FB7B194652
:100D50000448FFF7BFFFFB7B18461037BD4680BD38
:100D6000D00200205053000880B586B000AFF86074
:100D7000B9607A601548FFF7ADFF00237B610AE098
:100D8000FA687B6913441B7819461148FFF7A2FFE4
:100D90007B6901337B617A69BB689A42F0D30D4865
:100DA000FFF798FFBB68DAB27B68F9680A48FFF77B
:100DB00046FE0346FB74FB7C19460848FFF78AFF92
:100DC000FB7C18461837BD4680BD00BF6453000841
:100DD000745300087C530008D002002080530008A0
:100DE00080B584B000AF786039607B68DBB23A6868
:100DF00019460748FFF722FD0346FB73FB7B1946A4
:100E00000448FFF767FFFB7B18461037BD4680BDDF
:100E1000D00200209453000880B584B000AF786001
:100E2000C82001F067FA1A48FFF76DFD0346BB734F
:100E3000BB7B002B26D0BB7B1A4679681448FFF792
:100E40006AFE1448FFF746FF0023FB730AE0FB7BB2
:100E50007A6813441B7819460F48FFF73BFFFB7B6A
:100E60000133FB73FA7BBB7B9A42F0D30B48FFF74D
:100E700031FFBB7B642B03D964213C20FFF7B0FF1B
:100E8000BB7B00E0002318461037BD4680BD00BF85
:100E9000D0020020A8530008745300087C530008B7
:100EA00080B485B000AF03463960FB71FB79202B1D
:100EB0004ADC002B40F32D81013B1F2B00F22981DE
:100EC00001A252F823F000BF510F0008750F00086F
:100ED0001311000813110008131100081311000862
:100EE0001311000813110008131100081311000852
:100EF0001311000813110008131100081311000842
:100F000013110008630F0008A11000081311000856
:100F10001311000813110008131100081311000821
:100F20001311000813110008131100081311000811
:100F30001311000813110008131100081311000801
:100F400013110008C50F0008992B00F0C380E0E0E2
:100F50003B6801221A703B68013336221A70022363
:100F6000D8E03B6810221A703B68013336221A70B1
:100F70000223CFE03B6802221A703B680133FF2254
:100F80001A703B68023336221A703B680333644A96
:100F900012781A703B680433624A12781A7005237B
:100FA000FB730AE0FB7B5A1FFB7B39680B445E49ED
:100FB0008A5C1A70FB7B0133FB73FB7B0C2BF1D932
:100FC0000D23A7E0594B1B78002B3AD00023BB73AD
:100FD00000237B730AE07B7B554AD35C002B02D055
:100FE000BB7B0133BB737B7B01337B737B7B042B2C
:100FF000F1D93B6820221A703B680133FF221A7036
:101000003B68023336221A70BB7B1A4652001A44E0
:1010100092001344DBB203333B7203233B730AE0B9
:101020003B7BDA1E3B7B39680B4442498A5C1A7071
:101030003B7B01333B733A7B3B7A9A42F0D33B7A5A
:1010400068E03D4B1B78002B28D03B6820221A70AB
:101050003B680133394A12781A703B6802333622F2
:101060001A703B6803332E4A12781A703B680433B7
:101070002C4A12781A700523FB720AE0FB7A5A1F79
:10108000FB7A39680B4428498A5C1A70FB7A013371
:10109000FB72FB7A0C2BF1D90D233BE0002339E0E6
:1010A0003B6811221A703B68013336221A70022302
:1010B000BB720AE0BB7A9A1EBB7A39680B441C49A2
:1010C0008A5C1A70BB7A0133BB72BB7A062BF1D9EA
:1010D00007231FE03B6899221A703B6801333622D0
:1010E0001A703B6802330F4A12781A7003237B721E
:1010F0000AE07B7ADA1E7B7A39680B440C498A5CF9
:101100001A707B7A01337B727B7A072BF1D9082323
:1011100000E0002318461437BD4680BC704700BF6E
:101120003101002032010020DC0000202D010020D0
:1011300028010020E40000202E01002000000020F3
:1011400080B588B000AF78600B46FB707B68002BE1
:1011500000F0FC81FB78002B00F0F8817B681B78A5
:10116000FB72FB7A332B51DC102BC0F2F181103B68
:10117000232B00F2ED8101A252F823F08F14000816
:10118000B712000851150008511500085115000844
:101190005115000851150008511500085115000897
:1011A0005115000851150008511500085115000887
:1011B00051150008511500085115000801140008C8
:1011C00051150008151200085115000851150008A6
:1011D0005115000851150008511500085115000857
:1011E0005115000851150008511500085115000847
:1011F0005115000851150008511500085115000837
:10120000511500085115000877130008992B00F0BC
:10121000D6809DE1FB78072B40F09C810023FB7773
:101220000023BB7702237B7718E07B7F7A68134427
:101230001B78362B07D10123FB777B7F023BDAB289
:10124000A74B1A700DE07B7F7A6813441B78002B44
:1012500001D10123BB777B7F01337B777B7F062B1B
:10126000E3D9FB7F002B14D09E4B1B78002B10D1B1
:101270009B4B1B781A4636219B48FFF72BFD9B4B57
:1012800001221A70974B00221A70994B00221A7093
:1012900071E1BB7F002B0AD036219648FFF71AFD7B
:1012A000934B01221A70914B00221A7063E192480D
:1012B000FFF710FD5FE1FB78072B40F04D817B6865
:1012C0005A788E4B1A7000233B770023FB7602235B
:1012D0007B6119E07B697A6813441B78362B08D14F
:1012E00001233B777B69DBB2023BDAB27C4B1A709D
:1012F0000DE07B697A6813441B78002B01D1012330
:10130000FB767B6901337B617B69062BE2DD3B7FEA
:10131000002B1AD0754B1B78002B16D1362178483C
:10132000FFF7D8FC6F4B01221A70764B00221A701F
:101330007B685A78714B1A706C4B00221A7000F05F
:10134000CFFF0346704A136015E1FB7E002B0AD0E5
:101350006A4B1B78362219466C48FFF7BBFC694B79
:1013600001221A7007E17B6801331B78194668482F
:10137000FFF7B0FCFFE05B4B1B78002B40F0EE80EA
:10138000574B1B7803337A6813441B78362B40F095
:10139000E780604B01221A707B689A785E4B1A7066
:1013A000C82000F0A7FF00F09BFF03465B4A1360D4
:1013B000594B1B7819465A48FFF78CFCDBE04B4B26
:1013C0001B78002B40F0CE80454B1B7803337A68A6
:1013D00013441B78362B40F0C780524B01221A7001
:1013E0007B689A784C4B1A7000F07AFF03464E4A9D
:1013F0001360494B1B7819464948FFF76BFCBAE06C
:10140000384B1B78002B40F0B1807B6801331B7890
:10141000362B40F0AD800023FB740023BB74002307
:101420007B740FE07B7C414AD25C7B6802331B7883
:101430009A4204D17B7CFB740123BB7405E07B7C66
:1014400001337B747B7C042BECD9BB7C002B00F03C
:101450009180FB7C1A4652001A4492001344BB72DE
:10146000BB7A3B740CE03A7CBB7AD31A1A467B6891
:101470001A443B7C11782E4AD1543B7C01333B7497
:10148000BB7A03F10C023B7C9A42ECDA73E0002356
:10149000FB6056E0254AFB6813441A787B680133E9
:1014A0001B789A4207D17B6801331B781946214883
:1014B000FFF710FC49E01D4AFB6813441B78002B22
:1014C0003CD17B685978194AFB6813440A461A7064
:1014D0007B6801331B7819461748FFF7FBFB34E0A4
:1014E000310100202E010020B85300082D010020FA
:1014F0002F010020E85300082054000800000020BD
:10150000545400083001002050010020805400088D
:10151000BC540008330100203201002034010020B7
:10152000F4540008380100203C010020280100206C
:10153000E40000202055000840550008FB680133F6
:10154000FB60FB68042BA5DD15E014E000BF12E092
:1015500000BF10E000BF0EE000BF0CE000BF0AE0DB
:1015600000BF08E000BF06E000BF04E000BF02E0EB
:1015700000BF00E000BF2037BD4680BD80B584B00D
:1015800000AF7860396000F0ABFEF8607B681B68E4
:10159000FA68D31A3A689A4204D87B68FA681A60E3
:1015A000012300E0002318461037BD4680BD00002F
:1015B00080B59AB006AF00F06BFE00F085FA00F03F
:1015C000A9FB00F019FB00F045FB00F079FB00F0EF
:1015D000D5FA994B994ADA60974B04229A60964B58
:1015E000964A5A61944B10221A61934B934A5A605F
:1015F000914B08221A60904B914A9A61914B8E4A06
:101600001A609148FFF766FB0F23059300230493AC
:1016100000230393082302930123019300230093E3
:1016200083A3D3E900238748FFF748FA8748FFF7E9
:1016300051FB4FF4FA6210218248FFF7FFF80023B4
:10164000FB600023BB6000237B60002387F84F30E2
:101650007F48FFF7E1FB034687F84C3097F84C30A2
:10166000002B05D097F84C3019467948FFF768FDF4
:10167000002387F84E30002387F84D300FE097F8AD
:101680004D30744AD35C002B04D097F84E300133B0
:1016900087F84E3097F84D30013387F84D3097F882
:1016A0004D30042BEBD997F84E30042B28D86A4BD9
:1016B0001B78002B24D007F10C0341F65831184653
:1016C000FFF75CFF0346002B1AD064491120FFF797
:1016D000E7FB034687F84B3097F84B304FF47A71AD
:1016E0001846FFF725FB97F84B304FF47A721946EE
:1016F0005A48FFF739FB4FF47A714120FFF770FB2E
:10170000574B1B78002B2DD0534B1B78002B29D126
:10171000544B1B78002B25D107F108034FF4FA61D5
:101720001846FFF72BFF0346002B1BD04B49012027
:10173000FFF7B6FB034687F84A3097F84A304FF474
:10174000FA711846FFF7F4FA97F84A304FF4FA7234
:1017500019464248FFF708FB4FF47A713C20FFF727
:101760003FFB2FE0404B1B78002B2BD03D4B1B78D1
:10177000002B27D1384B1B78002B23D13B1D4FF476
:10178000FA611846FFF7FAFE0346002B1AD03349D8
:101790001020FFF785FB034687F8493097F849305A
:1017A0004FF4FA711846FFF7C3FA97F849304FF42F
:1017B000FA7219462948FFF7D7FA4FF47A713C209C
:1017C000FFF70EFB294B1B78002B75D0224B1B78A3
:1017D000002B71D0234B1B78002B6DD1244B1B7831
:1017E000022B49D8234B1B78002B65D097F84F303C
:1017F000002B61D119499920FFF752FB034687F866
:1018000047304FF4FA710820FFF792FA97F8473003
:101810004FF4FA7219461148FFF7A6FA4FF47A719D
:101820004120FFF7DDFA012387F84F3044E000BF85
:10183000400ECF1900000000E8030020000801401E
:1018400034020020D00200206855000884550008AA
:101850008C020020280100202D010020940000208F
:101860002F0100202E010020300100203301002034
:10187000310100204001002097F84F30002B1BD190
:1018800084499920FFF70CFB034687F848304FF452
:10189000FA710820FFF74CFA97F848304FF4FA72C3
:1018A00019467C48FFF760FA4FF47A714120FFF740
:1018B00097FA012387F84F30774B1B78002B00F005
:1018C0008980764B1B78002B00F08480744B1B784A
:1018D000002B7FD100F004FD0246724B1B68D31A27
:1018E0003B64714B1B781A464FF4FA6303FB02F317
:1018F000FB63FB6B03F5C873BB63FB6B03F5C8634A
:101900007B636A4B1B78002B4ED13A6CBB6B9A42BF
:101910004AD33A6C7B6B9A4246D25E490220FFF76B
:10192000BFFA034687F833307A6B3B6CD31AFB62FD
:1019300097F83330F96A1846FFF7FAF997F8333019
:101940004FF4FA7219465348FFF70EFA034687F828
:101950002B3097F82B3019465548FFF7BBF94FF459
:10196000967000F0C7FC4B492020FFF799FA034618
:1019700087F8333097F83330F96A1846FFF7D8F90B
:1019800097F833304FF4FA7219464248FFF7ECF9F2
:10199000034687F82B3097F82B3019464548FFF758
:1019A00099F9424B01221A703B6C42F20F7293423A
:1019B00010D9002387F84F30374B00221A703B4B69
:1019C00000221A704FF47A713C20FFF709FA3A4866
:1019D000FFF780F9394B1B78002B56D02F4B1B7823
:1019E000002B52D12E4B1B78002B4ED000F078FCF0
:1019F0000246334B1B68D31A7B622B4B1B781A466B
:101A00004FF4487303FB02F33B623B6A6433FB61B0
:101A10003B6A03F52F73BB61244B1B78002B22D14B
:101A20007A6AFB699A421ED37A6ABB699A421AD2D1
:101A300018492020FFF734FA0346FB75BA697B6A20
:101A4000D31A3B61FA7D3B695B0819461046FFF7E4
:101A50006FF9F97D3B695B081A460E48FFF784F978
:101A6000124B01221A707B6AB3F57A6F0DD3134BB8
:101A700000221A700D4B00221A704FF47A713C202C
:101A8000FFF7AEF90F48FFF725F9C82000F032FC48
:101A9000DEE500BF94000020330100202D0100206E
:101AA0002E010020340100203101002040010020DF
:101AB000A4550008B8550008CC550008380100208E
:101AC0003C010020E855000880B594B000AF07F154
:101AD000280328220021184602F0E0FF07F1140332
:101AE00000221A605A609A60DA601A613B1D002277
:101AF0001A605A609A60DA600123BB624FF4803347
:101B0000FB6200233B630123BB6302237B644FF42E
:101B10008033BB640023FB6407F12803184601F0FF
:101B2000F7F90346002B01D000F07EF90F237B610B
:101B30000223BB618023FB614FF480633B624FF45F
:101B400080637B6207F114030021184601F060FCFA
:101B50000346002B01D000F067F902237B600023CD
:101B6000FB603B1D184601F011FE0346002B01D01F
:101B700000F05AF900BF5037BD4680BD80B584B033
:101B800000AF3B1D00221A605A609A60184B194A38
:101B90001A60174B00229A60154B00221A73144BDF
:101BA00000221A75124B4FF46022DA61104B0022AA
:101BB0005A600F4B01221A610D4800F0BFFB03462B
:101BC000002B01D000F030F900237B600123BB60C3
:101BD0000023FB603B1D1946054800F087FC0346C7
:101BE000002B01D000F020F900BF1037BD4680BDAA
:101BF000BC0100200024014080B500AF124B134A05
:101C00001A60114B124A5A600F4B00229A600E4B19
:101C10000022DA600C4B4FF480421A610A4B00221A
:101C20005A61094B00229A61074B0022DA61064B88
:101C300000221A62044801F027F80346002B01D065
:101C400000F0F2F800BF80BD5801002000540040B1
:101C5000A086010080B500AF174B184A1A60164BDA
:101C60004FF482725A60144B00229A60124B002289
:101C7000DA60114B00221A610F4B00225A610E4BA1
:101C80004FF400729A610C4B1822DA610A4B002261
:101C90001A62094B00225A62074B00229A62064BD5
:101CA0000A22DA62044801F027FE0346002B01D025
:101CB00000F0BAF800BF80BD3402002000300140BF
:101CC00080B500AF114B124A1A60104B4FF4E1324D
:101CD0005A600E4B00229A600C4B0022DA600B4BCC
:101CE00000221A61094B0C225A61084B00229A61AA
:101CF000064B0022DA61054802F074FC0346002B13
:101D000001D000F091F800BF80BD00BFEC010020C1
:101D10000038014080B588B000AF07F11003002201
:101D20001A605A609A60DA60334B9B69324A43F01A
:101D300010039361304B9B6903F01003FB60FB6859
:101D40002D4B9B692C4A43F0200393612A4B9B69DE
:101D500003F02003BB60BB68274B9B69264A43F016
:101D600004039361244B9B6903F004037B607B684D
:101D7000214B9B69204A43F0080393611E4B9B69EA
:101D800003F008033B603B6800224FF400511B48FE
:101D900000F061FF00221821194800F05CFF4FF4A9
:101DA00000533B6101237B610023BB610223FB6184
:101DB00007F110031946114800F0B2FD04233B61FE
:101DC00000237B610023BB6107F1100319460C4817
:101DD00000F0A6FD18233B6101237B610023BB615A
:101DE0000223FB6107F110031946054800F098FD36
:101DF00000BF2037BD4680BD0010024000100140EA
:101E00000008014080B582B000AF78607B681B6835
:101E1000044A934201D100F051FA00BF0837BD4691
:101E200080BD00BF0008004080B400AF00BFBD46C9
:101E300080BC704780B485B000AF154B9B69144AD5
:101E400043F001039361124B9B6903F00103BB60F4
:101E5000BB680F4BDB690E4A43F08053D3610C4BD8
:101E6000DB6903F080537B607B680A4B5B68FB6037
:101E7000FB6823F0E063FB60FB6843F08063FB607A
:101E8000044AFB68536000BF1437BD4680BC7047EE
:101E9000001002400000014080B588B000AF7860BB
:101EA00007F1100300221A605A609A60DA607B68BA
:101EB0001B68144A934221D1134B9B69124A43F485
:101EC00000739361104B9B6903F40073FB60FB6824
:101ED0000D4B9B690C4A43F0040393610A4B9B69C9
:101EE00003F00403BB60BB6801233B6103237B61F8
:101EF00007F110031946054800F012FD00BF203716
:101F0000BD4680BD00240140001002400008014091
:101F100080B588B000AF786007F1100300221A6026
:101F20005A609A60DA607B681B68154A934223D135
:101F3000144B9B69134A43F008039361114B9B694F
:101F400003F00803FB60FB68C0233B6112237B6145
:101F50000323FB6107F1100319460B4800F0E0FC76
:101F6000084BDB69074A43F40013D361054BDB6977
:101F700003F40013BB60BB6800BF2037BD4680BDC3
:101F80000054004000100240000C014080B588B0B1
:101F900000AF786007F1100300221A605A609A605F
:101FA000DA607B681B681B4A93422FD11A4B9B69EE
:101FB000194A43F480539361174B9B6903F4805390
:101FC000FB60FB68144B9B69134A43F00403936165
:101FD000114B9B6903F00403BB60BB68A0233B610A
:101FE00002237B610323FB6107F1100319460B48B1
:101FF00000F096FC40233B6100237B610023BB6122
:1020000007F110031946054800F08AFC00BF20378D
:10201000BD4680BD00300140001002400008014074
:1020200080B588B000AF786007F1100300221A6015
:102030005A609A60DA607B681B681C4A934231D10F
:102040001B4B9B691A4A43F480439361184B9B696D
:1020500003F48043FB60FB68154B9B69144A43F013
:1020600004039361124B9B6903F00403BB60BB68DC
:102070004FF400733B6102237B610323FB6107F193
:10208000100319460B4800F04BFC4FF480633B6192
:1020900000237B610023BB6107F11003194605484B
:1020A00000F03EFC00BF2037BD4680BD0038014037
:1020B000001002400008014080B58CB000AF78608D
:1020C0000023FB620023BB62002279681E2000F01F
:1020D000FCFB1E2000F015FC1F4BDB691E4A43F081
:1020E0000403D3611C4BDB6903F00403FB60FB6852
:1020F00007F1100207F114031146184601F0F8FA2F
:1021000001F0CEFA03465B00FB62FB6A134AA2FBB6
:1021100003239B0C013BBB62114B124A1A60104B0C
:1021200040F2E732DA600E4ABB6A53600C4B002281
:102130001A610B4B00229A60094802F014F803461A
:10214000002B04D1064802F067F8034600E00123A3
:1021500018463037BD4680BD0010024083DE1B4369
:10216000040400200008004080B400AFFEE780B403
:1021700000AFFEE780B400AFFEE780B400AFFEE73B
:1021800080B400AFFEE780B400AF00BFBD4680BCA6
:10219000704780B400AF00BFBD4680BC704780B4BC
:1021A00000AF00BFBD4680BC704780B400AF00BF29
:1021B000BD4680BC7047000080B500AF024802F009
:1021C0007DF800BF80BD00BF0404002080B586B04C
:1021D00000AF7860144A154BD31A7B617B693B6171
:1021E000134B1B68002B02D1114B124A1A60104B83
:1021F0001A687B6813443A699A4207D202F016FCC7
:1022000003460C221A604FF0FF3309E0084B1B68AD
:10221000FB60074B1A687B681344054A1360FB6830
:1022200018461837BD4680BD00500020000400004D
:10223000440100206004002080B400AF00BFBD4610
:1022400080BC7047FFF7F8FF0B480C490C4A00238D
:1022500002E0D458C4500433C4188C42F9D3094A5C
:10226000094C002301E013600432A242FBD302F0C8
:10227000E3FBFFF79DF97047000000207400002089
:10228000945600087800002060040020FEE700005B
:1022900080B500AF084B1B68074A43F0100313607A
:1022A000032000F007FB0F20FFF706FFFFF7C2FD3A
:1022B0000023184680BD00BF0020024080B400AF5C
:1022C000054B1B781A46054B1B681344034A1360E1
:1022D00000BFBD4680BC70470C0000204C040020AD
:1022E00080B400AF024B1B681846BD4680BC7047E7
:1022F0004C04002080B584B000AF7860FFF7F0FF99
:10230000B8607B68FB60FB68B3F1FF3F05D00A4B08
:102310001B781A46FB681344FB6000BFFFF7E0FF21
:102320000246BB68D31AFA689A42F7D800BF00BFCA
:102330001037BD4680BD00BF0C00002080B586B0C0
:1023400000AF78600023FB7500233B610023BB6076
:102350000023FB607B68002B01D10123BEE07B687A
:102360009B68002B7B689B6A002B09D17B6800224D
:10237000DA627B68002283F824207868FFF78CFDFE
:10238000786800F0ABF90346FB757B689B6A03F045
:102390001003002B40F09980FB7D002B40F09580CE
:1023A0007B689B6A23F4885323F0020343F0020204
:1023B0007B689A627B685A687B68DB691A437B6832
:1023C0001B7B5B001343BA681343BB607B689B684D
:1023D000B3F5807F03D07B689B68012B02D14FF45B
:1023E000807300E000233A6913433B617B681B7DE7
:1023F000012B19D17B681B7B002B09D17B689B6962
:10240000013B5A033B69134343F400633B610BE018
:102410007B689B6A43F020027B689A627B68DB6A78
:1024200043F001027B68DA627B681B685B6823F417
:1024300069417B681B683A690A435A607B681B687C
:102440009A68284B13407A681268B9680B43936006
:102450007B689B68B3F5807F03D07B689B68012B0A
:1024600004D17B681B69013B1B05FB607B681B6813
:10247000DB6A23F470017B681B68FA680A43DA623E
:102480007B681B689A68184B1340BA689A420BD154
:102490007B680022DA627B689B6A23F0030343F0C7
:1024A00001027B689A6218E07B689B6A23F0120342
:1024B00043F010027B689A627B68DB6A43F001029A
:1024C0007B68DA620123FB7507E07B689B6A43F057
:1024D00010027B689A620123FB75FB7D1846183752
:1024E000BD4680BDFDF7E1FFFE0E1FFF80B485B045
:1024F00000AF786039600023FB730023BB607B680A
:1025000093F82430012B01D10223DCE07B68012207
:1025100083F824203B685B68062B1CD87B681B680B
:10252000596B3B685A6813469B001344053B1F22B6
:1025300002FA03F3DB4319403B6818683B685A68AA
:1025400013469B001344053B00FA03F27B681B68AB
:102550000A435A633CE03B685B680C2B1CD87B68E1
:102560001B68196B3B685A6813469B001344233B56
:102570001F2202FA03F3DB4319403B6818683B68EB
:102580005A6813469B001344233B00FA03F27B680E
:102590001B680A431A631BE07B681B68D96A3B68A7
:1025A0005A6813469B001344413B1F2202FA03F36F
:1025B000DB4319403B6818683B685A6813469B0028
:1025C0001344413B00FA03F27B681B680A43DA625A
:1025D0003B681B68092B1CD97B681B68D9683B6862
:1025E0001A6813465B0013441E3B072202FA03F3EA
:1025F000DB4319403B6898683B681A6813465B00E8
:1026000013441E3B00FA03F27B681B680A43DA603E
:1026100019E07B681B6819693B681A6813465B0000
:102620001344072202FA03F3DB4319403B6898681E
:102630003B681A6813465B00134400FA03F27B6898
:102640001B680A431A613B681B68102B03D03B6868
:102650001B68112B32D17B681B681D4A934225D120
:102660007B681B689B6803F40003002B26D17B6802
:102670001B689A687B681B6842F400029A603B689A
:102680001B68102B1AD1134B1B68134AA2FB0323A0
:102690009A0C13469B0013445B00BB6002E0BB68CE
:1026A000013BBB60BB68002BF9D107E07B689B6AEC
:1026B00043F020027B689A620123FB737B6800224F
:1026C00083F82420FB7B18461437BD4680BC704736
:1026D000002401400400002083DE1B4380B584B049
:1026E00000AF78600023FB607B681B689B6803F089
:1026F0000103012B2ED17B681B689A687B681B68DD
:1027000022F001029A60FFF7EBFDF8601BE0FFF793
:10271000E7FD0246FB68D31A022B14D97B681B68BD
:102720009B6803F00103012B0DD17B689B6A43F08A
:1027300010027B689A627B68DB6A43F001027B6867
:10274000DA62012307E07B681B689B6803F00103E2
:10275000012BDCD0002318461037BD4680BD000099
:1027600080B485B000AF78607B6803F00703FB603E
:102770000C4BDB68BB60BA684FF6FF031340BB60CD
:10278000FB681A02BB68134343F0BF6343F4003392
:10279000BB60044ABB68D36000BF1437BD4680BC31
:1027A000704700BF00ED00E080B400AF044BDB6871
:1027B0001B0A03F007031846BD4680BC704700BFE4
:1027C00000ED00E080B483B000AF0346FB7197F9E1
:1027D0000730002B0BDBFB7903F01F02064997F94A
:1027E00007305B09012000FA02F241F8232000BF04
:1027F0000C37BD4680BC704700E100E080B483B078
:1028000000AF03463960FB7197F90730002B0ADBF4
:102810003B68DAB20C4997F907301201D2B20B4487
:1028200083F800230AE03B68DAB20849FB7903F039
:102830000F03043B1201D2B20B441A7600BF0C37CF
:10284000BD4680BC704700BF00E100E000ED00E045
:1028500080B489B000AFF860B9607A60FB6803F0BB
:102860000703FB61FB69C3F10703042B28BF0423A3
:10287000BB61FB690433062B02D9FB69033B00E013
:1028800000237B614FF0FF32BB6902FA03F3DA43A6
:10289000BB681A407B699A404FF0FF317B6901FAAF
:1028A00003F3D9437B680B40134318462437BD46D6
:1028B00080BC704780B582B000AF78607868FFF761
:1028C0004FFF00BF0837BD4680BD80B586B000AF62
:1028D0000346B9607A60FB7300237B61FFF764FFF6
:1028E00078617A68B9687869FFF7B2FF024697F9AC
:1028F0000F3011461846FFF781FF00BF1837BD465D
:1029000080BD80B582B000AF0346FB7197F90730F8
:102910001846FFF757FF00BF0837BD4680BD0000CF
:1029200080B48BB000AF7860396000237B620023F5
:102930003B6269E101227B6A02FA03F3FB613B68B7
:102940001B68FA691340BB61BA69FB699A4240F09F
:1029500058813B685B689A4A93425ED0984A93429A
:1029600075D8984A934258D0964A93426FD8964A5F
:10297000934252D0944A934269D8944A93424CD09D
:10298000924A934263D8924A934246D0904A9342E5
:102990005DD8122B2AD8122B59D801A252F823F055
:1029A0001B2A0008F5290008072A0008492A000800
:1029B0004F2A00084F2A00084F2A00084F2A000813
:1029C0004F2A00084F2A00084F2A00084F2A000803
:1029D0004F2A00084F2A00084F2A00084F2A0008F3
:1029E0004F2A0008FD290008112A0008794A93425D
:1029F00013D02CE03B68DB683B6229E03B68DB6876
:102A000004333B6224E03B68DB6808333B621FE031
:102A10003B68DB680C333B621AE03B689B68002B29
:102A200002D104233B6213E03B689B68012B05D174
:102A300008233B627B68FA691A6109E008233B625C
:102A40007B68FA695A6103E000233B6200E000BF43
:102A5000BB69FF2B01D87B6801E07B6804337B6195
:102A6000BB69FF2B02D87B6A9B0002E07B6A083BB4
:102A70009B003B617B691A680F213B6901FA03F3F4
:102A8000DB431A40396A3B6901FA03F31A437B6955
:102A90001A603B685B6803F08053002B00F0B18044
:102AA0004D4B9B694C4A43F0010393614A4B9B6930
:102AB00003F00103BB60BB68484A7B6A9B08023392
:102AC00052F82330FB607B6A03F003039B000F2264
:102AD00002FA03F3DB43FA681340FB607B68404A69
:102AE000934213D07B683F4A93420DD07B683E4AA5
:102AF000934207D07B683D4A934201D1032306E00D
:102B0000042304E0022302E0012300E000237A6AA8
:102B100002F0030292009340FA681343FB602F49CE
:102B20007B6A9B080233FA6841F823203B685B68A4
:102B300003F48013002B06D02D4B9A682C49BB69F7
:102B400013438B6006E02A4B9A68BB69DB43284934
:102B500013408B603B685B6803F40013002B06D0C6
:102B6000234BDA682249BB691343CB6006E0204B54
:102B7000DA68BB69DB431E491340CB603B685B6886
:102B800003F40033002B06D0194B5A681849BB696F
:102B900013434B6006E0164B5A68BB69DB4314498C
:102BA00013404B603B685B6803F48033002B21D0FB
:102BB0000F4B1A680E49BB6913430B6021E000BF3D
:102BC000000032100000311000002210000021101F
:102BD000000012100000111000100240000001401F
:102BE00000080140000C01400010014000140140A9
:102BF000000401400B4B1A68BB69DB4309491340D1
:102C00000B607B6A01337B623B681A687B6A22FA3D
:102C100003F3002B7FF48EAE00BF00BF2C37BD4600
:102C200080BC70470004014080B485B000AF78607C
:102C30000B467B807B689A687B881340002B02D010
:102C40000123FB7301E00023FB73FB7B1846143761
:102C5000BD4680BC704780B483B000AF78600B463F
:102C60007B8013467B707B78002B03D07A887B684F
:102C70001A6103E07B881A047B681A6100BF0C3775
:102C8000BD4680BC7047000080B584B000AF78605E
:102C90007B68002B01D101232BE17B6893F83D3049
:102CA000DBB2002B06D17B68002283F83C207868D9
:102CB000FFF72EF97B68242283F83D207B681B6890
:102CC0001A687B681B6822F001021A607B681B6827
:102CD0001A687B681B6842F400421A607B681B68B4
:102CE0001A687B681B6822F400421A6000F0D8FC66
:102CF000F8607B685B68814A934207D8FB68804A2A
:102D0000934294BF01230023DBB206E0FB687D4AB7
:102D1000934294BF01230023DBB2002B01D0012397
:102D2000E7E0FB68784AA2FB03239B0CBB607B684F
:102D30001B685B6823F03F017B681B68BA680A4325
:102D40005A607B681B681B6A23F03F017B685B68E5
:102D50006A4A934202D8BB68013309E0BB684FF46A
:102D6000967202FB03F3694AA2FB03239B0901331A
:102D70007A6812680B4313627B681B68DB6923F473
:102D80004F4222F0FF027B685B685C498B4219D896
:102D9000FB68591E7B685B685B00B1FBF3F3591C51
:102DA00040F6FC730B40002B0AD0FB68591E7B6871
:102DB0005B685B00B1FBF3F30133C3F30B0351E03A
:102DC00004234FE07B689B68002B11D1FB68581EE1
:102DD0007B6859680B465B000B44B0FBF3F301338F
:102DE000C3F30B03002B0CBF01230023DBB212E063
:102DF000FB68581E7B6859680B469B000B44990082
:102E00000B44B0FBF3F30133C3F30B03002B0CBFF4
:102E100001230023DBB2002B01D0012322E07B68D9
:102E20009B68002B0ED1FB68581E7B6859680B46C7
:102E30005B000B44B0FBF3F30133C3F30B0343F428
:102E400000430FE0FB68581E7B6859680B469B00E7
:102E50000B4499000B44B0FBF3F30133C3F30B03B2
:102E600043F44043796809681343CB617B681B686E
:102E70001B6823F0C0017B68DA697B681B6A1A4310
:102E80007B681B680A431A607B681B689B6823F495
:102E9000034323F0FF037A6811697A68D26811430B
:102EA0007A6812680B4393607B681B68DB6823F0C9
:102EB000FF017B685A697B689B691A437B681B68C2
:102EC0000A43DA607B681B681A687B681B6842F0FB
:102ED00001021A607B6800221A647B68202283F852
:102EE0003D207B6800221A637B68002283F83E2025
:102EF000002318461037BD4680BD00BFA0860100E4
:102F00007F841E00FF083D0083DE1B43D34D62100B
:102F100080B586B000AF78607B68002B01D10123BB
:102F20006CE27B681B6803F00103002B00F08780D4
:102F3000924B5B6803F00C03042B0CD08F4B5B6847
:102F400003F00C03082B12D18C4B5B6803F4803325
:102F5000B3F5803F0BD1894B1B6803F40033002B82
:102F60006CD07B685B68002B68D1012346E27B68EC
:102F70005B68B3F5803F06D1804B1B687F4A43F402
:102F8000803313602EE07B685B68002B0CD17B4B99
:102F90001B687A4A23F480331360784B1B68774AA6
:102FA00023F4802313601DE07B685B68B3F5A02FDA
:102FB0000CD1724B1B68714A43F4802313606F4B32
:102FC0001B686E4A43F4803313600BE06B4B1B6845
:102FD0006A4A23F480331360684B1B68674A23F402
:102FE000802313607B685B68002B13D0FFF778F9B0
:102FF000386108E0FFF774F902463B69D31A642B85
:1030000001D90323FAE15D4B1B6803F40033002B65
:10301000F0D014E0FFF764F9386108E0FFF760F9D9
:1030200002463B69D31A642B01D90323E6E1534BD3
:103030001B6803F40033002BF0D100E000BF7B6875
:103040001B6803F00203002B63D04C4B5B6803F05A
:103050000C03002B0BD0494B5B6803F00C03082BCF
:103060001CD1464B5B6803F48033002B16D1434BD5
:103070001B6803F00203002B05D07B681B69012B42
:1030800001D00123BAE13D4B1B6823F0F8027B68B5
:103090005B69DB00394913430B603AE07B681B69CD
:1030A000002B20D0364B01221A60FFF719F9386146
:1030B00008E0FFF715F902463B69D31A022B01D944
:1030C00003239BE12D4B1B6803F00203002BF0D080
:1030D0002A4B1B6823F0F8027B685B69DB002749F9
:1030E00013430B6015E0264B00221A60FFF7F8F837
:1030F000386108E0FFF7F4F802463B69D31A022B67
:1031000001D903237AE11D4B1B6803F00203002B56
:10311000F0D17B681B6803F00803002B3AD07B6872
:103120009B69002B19D0174B01221A60FFF7D8F8C2
:10313000386108E0FFF7D4F802463B69D31A022B46
:1031400001D903235AE10D4B5B6A03F00203002B04
:10315000F0D0012000F0FCFA1CE00A4B00221A60BB
:10316000FFF7BEF838610FE0FFF7BAF802463B6997
:10317000D31A022B08D9032340E100BF00100240FC
:1031800000004242800442429E4B5B6A03F002030D
:10319000002BE9D17B681B6803F00403002B00F0CF
:1031A000A6800023FB75974BDB6903F08053002B4F
:1031B0000DD1944BDB69934A43F08053D361914B1B
:1031C000DB6903F08053BB60BB680123FB758E4B4A
:1031D0001B6803F48073002B18D18B4B1B688A4A41
:1031E00043F480731360FFF77BF8386108E0FFF762
:1031F00077F802463B69D31A642B01D90323FDE01B
:10320000814B1B6803F48073002BF0D07B68DB6874
:10321000012B06D17B4B1B6A7A4A43F001031362F0
:103220002DE07B68DB68002B0CD1764B1B6A754A5E
:1032300023F001031362734B1B6A724A23F00403E9
:1032400013621CE07B68DB68052B0CD16D4B1B6A9D
:103250006C4A43F0040313626A4B1B6A694A43F0E9
:10326000010313620BE0674B1B6A664A23F00103FC
:103270001362644B1B6A634A23F0040313627B6886
:10328000DB68002B15D0FFF72BF838610AE0FFF759
:1032900027F802463B69D31A41F28832934201D99A
:1032A0000323ABE0574B1B6A03F00203002BEED065
:1032B00014E0FFF715F838610AE0FFF711F802464D
:1032C0003B69D31A41F28832934201D9032395E036
:1032D0004C4B1B6A03F00203002BEED1FB7D012B4C
:1032E00005D1484BDB69474A23F08053D3617B68A3
:1032F000DB69002B00F08180424B5B6803F00C031C
:10330000082B61D07B68DB69022B46D13F4B002242
:103310001A60FEF7E5FF386108E0FEF7E1FF0246BC
:103320003B69D31A022B01D9032367E0354B1B6895
:1033300003F00073002BF0D17B681B6AB3F5803F6C
:1033400008D1304B5B6823F400327B689B682D49C1
:1033500013434B602B4B5B6823F474127B68196A30
:103360007B685B6A0B43274913434B60274B012261
:103370001A60FEF7B5FF386108E0FEF7B1FF0246BC
:103380003B69D31A022B01D9032337E01D4B1B687D
:1033900003F00073002BF0D02FE01C4B00221A60CA
:1033A000FEF79EFF386108E0FEF79AFF02463B6990
:1033B000D31A022B01D9032320E0124B1B6803F020
:1033C0000073002BF0D118E07B68DB69012B01D181
:1033D000012313E00B4B5B68FB60FB6803F4803256
:1033E0007B681B6A9A4206D1FB6803F470127B6803
:1033F0005B6A9A4201D0012300E000231846183787
:10340000BD4680BD00100240007000406000424296
:1034100080B584B000AF786039607B68002B01D143
:103420000123D0E06A4B1B6803F007033A689A4215
:1034300010D9674B1B6823F0070265493B681343AB
:103440000B60634B1B6803F007033A689A4201D094
:103450000123B8E07B681B6803F00203002B20D037
:103460007B681B6803F00403002B05D0594B5B6895
:10347000584A43F4E06353607B681B6803F0080319
:10348000002B05D0534B5B68524A43F460535360A2
:10349000504B5B6823F0F0027B689B684D491343F7
:1034A0004B607B681B6803F00103002B40D07B68F6
:1034B0005B68012B07D1474B1B6803F40033002BDB
:1034C00015D101237FE07B685B68022B07D1414B5C
:1034D0001B6803F00073002B09D1012373E03D4BFF
:1034E0001B6803F00203002B01D101236BE0394B71
:1034F0005B6823F003027B685B68364913434B60CB
:10350000FEF7EEFEF8600AE0FEF7EAFE0246FB6810
:10351000D31A41F28832934201D9032353E02D4B51
:103520005B6803F00C027B685B689B009A42EBD1FE
:10353000274B1B6803F007033A689A4210D2244BCA
:103540001B6823F0070222493B6813430B60204BA2
:103550001B6803F007033A689A4201D0012332E066
:103560007B681B6803F00403002B08D0194B5B68D1
:1035700023F4E0627B68DB68164913434B607B6889
:103580001B6803F00803002B09D0124B5B6823F47F
:1035900060527B681B69DB000E4913434B6000F0EF
:1035A00021F802460B4B5B681B0903F00F030A4925
:1035B000CB5C22FA03F3094A1360094B1B681846D7
:1035C000FEF77AFD002318461037BD4680BD00BFC8
:1035D0000020024000100240245600080400002091
:1035E0000800002080B487B000AF0023FB600023F8
:1035F000BB6000237B6100237B6000233B611E4B8B
:103600005B68FB60FB6803F00C03042B02D0082B03
:1036100003D027E0194B3B6127E0FB689B0C03F0CC
:103620000F03174AD35C7B60FB6803F48033002BE5
:1036300010D0114B5B685B0C03F00103114AD35CA3
:10364000BB607B680D4A02FB03F2BB68B2FBF3F37D
:103650007B6104E07B680C4A02FB03F37B617B69BE
:103660003B6102E0054B3B6100BF3B6918461C37DC
:10367000BD4680BC704700BF0010024000127A00B7
:103680003C5600084C56000800093D0080B400AFCD
:10369000024B1B681846BD4680BC704704000020E2
:1036A00080B500AFFFF7F2FF0246054B5B681B0ACF
:1036B00003F007030349CB5C22FA03F3184680BDED
:1036C000001002403456000880B500AFFFF7DEFF5F
:1036D0000246054B5B68DB0A03F007030349CB5C3A
:1036E00022FA03F3184680BD001002403456000849
:1036F00080B483B000AF786039607B680F221A60B5
:10370000114B5B6803F003027B685A600E4B5B68E9
:1037100003F0F0027B689A600B4B5B6803F4E06295
:103720007B68DA60084B5B68DB0803F4E0627B6867
:103730001A61064B1B6803F007023B681A6000BF62
:103740000C37BD4680BC704700100240002002408C
:1037500080B485B000AF78600A4B1B680A4AA2FBB0
:1037600003235B0A7A6802FB03F3FB6000BFFB687C
:103770005A1EFA60002BF9D100BF00BF1437BD46B6
:1037800080BC704704000020D34D621080B586B025
:1037900000AF786000233B610023FB607B681B68FF
:1037A00003F00103002B7DD00023FB754F4BDB6939
:1037B00003F08053002B0DD14C4BDB694B4A43F097
:1037C0008053D361494BDB6903F08053BB60BB6816
:1037D0000123FB75464B1B6803F48073002B18D143
:1037E000434B1B68424A43F480731360FEF778FD35
:1037F000386108E0FEF774FD02463B69D31A642B7A
:1038000001D903236DE03A4B1B6803F48073002B4E
:10381000F0D0364B1B6A03F44073FB60FB68002B4F
:103820002ED07B685B6803F44073FA689A4227D015
:103830002E4B1B6A23F44073FB602E4B01221A604F
:103840002C4B00221A60294AFB681362FB6803F0C4
:103850000103002B14D0FEF743FD38610AE0FEF7A8
:103860003FFD02463B69D31A41F28832934201D9A7
:10387000032336E01D4B1B6A03F00203002BEED03E
:103880001A4B1B6A23F440727B685B681749134329
:103890000B62FB7D012B05D1144BDB69134A23F02E
:1038A0008053D3617B681B6803F00203002B08D0B0
:1038B0000E4B5B6823F440427B689B680B491343C3
:1038C0004B607B681B6803F01003002B08D0074B8C
:1038D0005B6823F480027B68DB68044913434B6018
:1038E000002318461837BD4680BD00BF00100240B7
:1038F000007000404004424280B582B000AF786062
:103900007B68002B01D1012376E07B685B6A002B8A
:1039100008D17B685B68B3F5827F09D07B680022A1
:10392000DA6105E07B6800221A617B6800225A6137
:103930007B6800229A627B6893F85130DBB2002BDF
:1039400006D17B68002283F850207868FEF71EFBC2
:103950007B68022283F851207B681B681A687B68A9
:103960001B6822F040021A607B685B6803F4827275
:103970007B689B6803F404431A437B68DB6803F4A9
:1039800000631A437B681B6903F002031A437B68D8
:103990005B6903F001031A437B689B6903F40073BE
:1039A0001A437B68DB6903F038031A437B681B6AA0
:1039B00003F0800342EA03017B689B6A03F4005230
:1039C0007B681B680A431A607B689B691A0C7B68DA
:1039D0001B6802F004025A607B681B68DA697B6826
:1039E0001B6822F40062DA617B6800225A657B68FA
:1039F000012283F85120002318460837BD4680BDB8
:103A000080B588B000AFF860B9603B601346FB80BA
:103A1000FEF766FCF861FB887B83FB6893F8513006
:103A2000DBB2012B01D002232AE1BB68002B02D0BC
:103A3000FB88002B01D1012322E1FB6893F8503071
:103A4000012B01D102231BE1FB68012283F85020E6
:103A5000FB68032283F85120FB6800225A65FB684B
:103A6000BA681A63FB68FA889A86FB68FA88DA866D
:103A7000FB6800229A63FB6800229A87FB68002299
:103A8000DA87FB6800225A64FB6800221A64FB682C
:103A90009B68B3F5004F0FD1FB681B681A68FB6881
:103AA0001B6822F040021A60FB681B681A68FB68FA
:103AB0001B6842F480421A60FB681B681B6803F0B5
:103AC0004003402B07D0FB681B681A68FB681B6823
:103AD00042F040021A60FB68DB68B3F5006F52D118
:103AE000FB685B68002B02D07B8B012B45D1FB6808
:103AF0001B6B1A88FB681B68DA60FB681B6B9A1CDF
:103B0000FB681A63FB68DB8E9BB2013B9AB2FB68D1
:103B1000DA8632E0FB681B689B6803F00203022B25
:103B200012D1FB681B6B1A88FB681B68DA60FB68A4
:103B30001B6B9A1CFB681A63FB68DB8E9BB2013B14
:103B40009AB2FB68DA8618E0FEF7CAFB0246FB6908
:103B5000D31A3A689A4203D83B68B3F1FF3F02D1C7
:103B60003B68002B09D1FB68012283F85120FB68D8
:103B7000002283F85020032382E0FB68DB8E9BB297
:103B8000002BC7D153E0FB685B68002B02D07B8B16
:103B9000012B47D1FB681A6BFB681B680C3312784A
:103BA0001A70FB681B6B5A1CFB681A63FB68DB8E80
:103BB0009BB2013B9AB2FB68DA8633E0FB681B6874
:103BC0009B6803F00203022B13D1FB681A6BFB689E
:103BD0001B680C3312781A70FB681B6B5A1CFB684D
:103BE0001A63FB68DB8E9BB2013B9AB2FB68DA86F4
:103BF00018E0FEF775FB0246FB69D31A3A689A4251
:103C000003D83B68B3F1FF3F02D13B68002B09D1D9
:103C1000FB68012283F85120FB68002283F85020C2
:103C200003232DE0FB68DB8E9BB2002BC6D1FA6923
:103C30003968F86800F066FA0346002B02D0FB688A
:103C400020225A65FB689B68002B0AD100237B6108
:103C5000FB681B68DB687B61FB681B689B687B619A
:103C60007B69FB68012283F85120FB68002283F8FE
:103C70005020FB685B6D002B01D0012300E0002386
:103C800018462037BD4680BD80B58AB000AFF860C9
:103C9000B9607A607B8001237B62FEF721FB38628A
:103CA000FB6893F85130FB77FB685B68BB617B88EE
:103CB000FB82FB7F012B0CD0BB69B3F5827F06D161
:103CC000FB689B68002B02D1FB7F042B01D00223F1
:103CD0007FE1BB68002B05D07B68002B02D07B887E
:103CE000002B01D1012374E1FB6893F85030012BC4
:103CF00001D102236DE1FB68012283F85020FB68AB
:103D000093F85130DBB2042B03D0FB68052283F813
:103D10005120FB6800225A65FB687A689A63FB6849
:103D20007A88DA87FB687A889A87FB68BA681A63A8
:103D3000FB687A88DA86FB687A889A86FB680022B4
:103D40001A64FB6800225A64FB681B681B6803F056
:103D50004003402B07D0FB681B681A68FB681B6890
:103D600042F040021A60FB68DB68B3F5006F7ED159
:103D7000FB685B68002B02D0FB8A012B6CD1FB68CF
:103D80001B6B1A88FB681B68DA60FB681B6B9A1C4C
:103D9000FB681A63FB68DB8E9BB2013B9AB2FB683F
:103DA000DA8659E0FB681B689B6803F00203022B6C
:103DB0001BD1FB68DB8E9BB2002B16D07B6A012BDC
:103DC00013D1FB681B6B1A88FB681B68DA60FB6801
:103DD0001B6B9A1CFB681A63FB68DB8E9BB2013B72
:103DE0009AB2FB68DA8600237B62FB681B689B68DB
:103DF00003F00103012B19D1FB68DB8F9BB2002B71
:103E000014D0FB681B68DA68FB689B6B92B21A805F
:103E1000FB689B6B9A1CFB689A63FB68DB8F9BB209
:103E2000013B9AB2FB68DA8701237B62FEF758FAFE
:103E300002463B6AD31A3A6B9A420DD83B6BB3F1F8
:103E4000FF3F09D0FB68012283F85120FB68002264
:103E500083F850200323BCE0FB68DB8E9BB2002B71
:103E6000A0D1FB68DB8F9BB2002B9BD182E0FB686B
:103E70005B68002B02D0FB8A012B71D1FB681A6BA7
:103E8000FB681B680C3312781A70FB681B6B5A1C9A
:103E9000FB681A63FB68DB8E9BB2013B9AB2FB683E
:103EA000DA865DE0FB681B689B6803F00203022B67
:103EB0001CD1FB68DB8E9BB2002B17D07B6A012BD9
:103EC00014D1FB681A6BFB681B680C3312781A70EC
:103ED000FB681B6B5A1CFB681A63FB68DB8E9BB28A
:103EE000013B9AB2FB68DA8600237B62FB681B68A1
:103EF0009B6803F00103012B19D1FB68DB8F9BB298
:103F0000002B14D0FB681B68DA68FB689B6BD2B28D
:103F10001A70FB689B6B5A1CFB689A63FB68DB8F0B
:103F20009BB2013B9AB2FB68DA8701237B62FEF702
:103F3000D7F902463B6AD31A3A6B9A4203D83B6BD5
:103F4000B3F1FF3F02D13B6B002B09D1FB6801228B
:103F500083F85120FB68002283F85020032338E0C7
:103F6000FB68DB8E9BB2002B9CD1FB68DB8F9BB286
:103F7000002B97D13A6A396BF86800F0C3F8034612
:103F8000002B08D0FB6820225A65FB68002283F8CA
:103F9000502001231DE0FB689B68002B0AD1002301
:103FA0003B61FB681B68DB683B61FB681B689B68C7
:103FB0003B613B69FB68012283F85120FB680022CA
:103FC00083F85020FB685B6D002B01D0012300E0DB
:103FD000002318462837BD4680BD80B483B000AFAB
:103FE00078607B6893F85130DBB218460C37BD46D9
:103FF00080BC704780B588B000AFF860B9603B60A6
:104000001346FB71FEF76CF90246BB6A9B1A3A68CD
:104010001344FB61FEF764F9B861394B1B685B011F
:104020001B0DFA6902FB03F37B6154E03B68B3F1BB
:10403000FF3F50D0FEF754F90246BB69D31AFA6924
:104040009A4202D9FB69002B3DD1FB681B685A6874
:10405000FB681B6822F0E0025A60FB685B68B3F5FE
:10406000827F11D1FB689B68B3F5004F04D0FB68D9
:104070009B68B3F5806F07D1FB681B681A68FB6803
:104080001B6822F040021A60FB689B6AB3F5005F70
:104090000FD1FB681B681A68FB681B6822F400528A
:1040A0001A60FB681B681A68FB681B6842F40052C0
:1040B0001A60FB68012283F85120FB68002283F814
:1040C0005020032317E07B69002B01D10023FB6103
:1040D0007B69013B7B61FB681B689A68BB68134086
:1040E000BA689A420CBF01230023DBB21A46FB795F
:1040F0009A429BD1002318462037BD4680BD00BFA1
:104100000400002080B586B002AFF860B9607A6024
:104110007B680093BB6801220221F868FFF76AFF01
:104120000346002B07D0FB685B6D43F02002FB6861
:104130005A65032313E07B680093BB68002280214B
:10414000F868FFF757FF0346002B07D0FB685B6D4D
:1041500043F02002FB685A65032300E00023184661
:104160001037BD4680BD80B582B000AF78607B68F7
:10417000002B01D1012341E07B6893F83D30DBB295
:10418000002B06D17B68002283F83C20786800F081
:1041900039F87B68022283F83D207B681A687B68C7
:1041A00004331946104600F09DF97B68012283F81C
:1041B00046207B68012283F83E207B68012283F839
:1041C0003F207B68012283F840207B68012283F82E
:1041D00041207B68012283F842207B68012283F81A
:1041E00043207B68012283F844207B68012283F806
:1041F00045207B68012283F83D20002318460837BC
:10420000BD4680BD80B483B000AF786000BF0C377E
:10421000BD4680BC7047000080B485B000AF7860B8
:104220007B6893F83D30DBB2012B01D001233AE0EB
:104230007B68022283F83D207B681B68DA687B6814
:104240001B6842F00102DA607B681B68184A9342DF
:104250000ED07B681B68B3F1804F09D07B681B6868
:10426000144A934204D07B681B68134A934211D1CD
:104270007B681B689B6803F00703FB60FB68062BE9
:1042800010D07B681B681A687B681B6842F00102CB
:104290001A6007E07B681B681A687B681B6842F03D
:1042A00001021A60002318461437BD4680BC7047CF
:1042B000002C0140000400400008004080B584B09C
:1042C00000AF78607B681B68DB68FB607B681B68FD
:1042D0001B69BB60BB6803F00203002B20D0FB68A6
:1042E00003F00203002B1BD07B681B686FF00202F7
:1042F0001A617B6801221A777B681B689B6903F04F
:104300000303002B03D0786800F0D1F805E078684B
:1043100000F0C4F8786800F0D3F87B6800221A77C0
:10432000BB6803F00403002B20D0FB6803F00403F8
:10433000002B1BD07B681B686FF004021A617B683E
:1043400002221A777B681B689B6903F44073002B79
:1043500003D0786800F0ABF805E0786800F09EF8CC
:10436000786800F0ADF87B6800221A77BB6803F02C
:104370000803002B20D0FB6803F00803002B1BD0A0
:104380007B681B686FF008021A617B6804221A7749
:104390007B681B68DB6903F00303002B03D078689C
:1043A00000F085F805E0786800F078F8786800F0AB
:1043B00087F87B6800221A77BB6803F01003002B94
:1043C00020D0FB6803F01003002B1BD07B681B6818
:1043D0006FF010021A617B6808221A777B681B68ED
:1043E000DB6903F44073002B03D0786800F05FF8BA
:1043F00005E0786800F052F8786800F061F87B68B2
:1044000000221A77BB6803F00103002B0CD0FB6875
:1044100003F00103002B07D07B681B686FF00102DB
:104420001A617868FDF7EEFCBB6803F08003002B8F
:104430000CD0FB6803F08003002B07D07B681B685F
:104440006FF080021A61786800F0C3F8BB6803F06F
:104450004003002B0CD0FB6803F04003002B07D077
:104460007B681B686FF040021A61786800F031F8D1
:10447000BB6803F02003002B0CD0FB6803F0200383
:10448000002B07D07B681B686FF020021A617868E8
:1044900000F096F800BF1037BD4680BD80B483B0F1
:1044A00000AF786000BF0C37BD4680BC704780B459
:1044B00083B000AF786000BF0C37BD4680BC70474A
:1044C00080B483B000AF786000BF0C37BD4680BCBD
:1044D000704780B483B000AF786000BF0C37BD4632
:1044E00080BC704780B485B000AF786039607B686D
:1044F0001B68FB607B682F4A93420BD07B68B3F14B
:10450000804F07D07B682C4A934203D07B682B4AAC
:10451000934208D1FB6823F07003FB603B685B6843
:10452000FA681343FB607B68224A93420BD07B6896
:10453000B3F1804F07D07B681F4A934203D07B685A
:104540001E4A934208D1FB6823F44073FB603B682A
:10455000DB68FA681343FB60FB6823F080023B686A
:104560005B691343FB607B68FA681A603B689A6872
:104570007B68DA623B681A687B689A627B680D4ADE
:10458000934203D13B681A697B681A637B680122F6
:104590005A617B681B6903F00103002B05D07B681F
:1045A0001B6923F001027B681A6100BF1437BD4606
:1045B00080BC7047002C014000040040000800400F
:1045C00080B483B000AF786000BF0C37BD4680BCBC
:1045D000704780B483B000AF786000BF0C37BD4631
:1045E00080BC704780B582B000AF78607B68002BDC
:1045F00001D1012342E07B6893F84130DBB2002B0C
:1046000006D17B68002283F840207868FDF708FD1A
:104610007B68242283F841207B681B68DA687B680A
:104620001B6822F40052DA60786800F071F97B6848
:104630001B681A697B681B6822F490421A617B68C8
:104640001B685A697B681B6822F02A025A617B68E2
:104650001B68DA687B681B6842F40052DA607B688A
:1046600000225A647B68202283F841207B68202244
:1046700083F842207B6800225A63002318460837DB
:10468000BD4680BD80B58AB002AFF860B9603B60BE
:104690001346FB8000237B61FB6893F84130DBB25B
:1046A000202B75D1BB68002B02D0FB88002B01D1D9
:1046B00001236EE0FB6800225A64FB68212283F824
:1046C0004120FDF70DFE7861FB68FA889A84FB684B
:1046D000FA88DA84FB689B68B3F5805F08D1FB68D1
:1046E0001B69002B04D10023FB61BB68BB6103E0A5
:1046F000BB68FB610023BB612EE03B6800937B69D4
:1047000000228021F86800F048F80346002B05D00D
:10471000FB68202283F8412003233AE0FB69002B49
:104720000BD1BB691B881A46FB681B68C2F30802E1
:104730005A60BB690233BB6107E0FB691A78FB680A
:104740001B685A60FB690133FB61FB68DB8C9BB221
:10475000013B9AB2FB68DA84FB68DB8C9BB2002BCE
:10476000CBD13B6800937B6900224021F86800F0C0
:1047700014F80346002B05D0FB68202283F8412063
:10478000032306E0FB68202283F84120002300E099
:10479000022318462037BD4680BD80B586B000AFE5
:1047A000F860B9603B601346FB713BE03B6AB3F1D4
:1047B000FF3F37D0FDF794FD02463B68D31A3A6AB3
:1047C0009A4202D33B6A002B01D103233AE0FB68F3
:1047D0001B68DB6803F00403002B23D0BB68802B2D
:1047E00020D0BB68402B1DD0FB681B681B6803F002
:1047F0000803082B16D100237B61FB681B681B682C
:104800007B61FB681B685B687B617B69F86800F013
:104810001DF8FB6808225A64FB68002283F84020D8
:1048200001230FE0FB681B681A68BB681340BA6875
:104830009A420CBF01230023DBB21A46FB799A424D
:10484000B4D0002318461837BD4680BD80B495B05B
:1048500000AF78607B681B680C337B637B6B53E82D
:10486000003F3B633B6B23F49073FB647B681B68E6
:104870000C33FA6C3A64FB63F96B3A6C41E8002341
:10488000BB63BB6B002BE5D17B681B6814333B62B9
:104890003B6A53E8003FFB61FB6923F00103BB6403
:1048A0007B681B681433BA6CFA62BB62B96AFA6A35
:1048B00041E800237B627B6A002BE5D17B681B6BA0
:1048C000012B19D17B681B680C33FB60FB6853E834
:1048D000003FBB60BB6823F010037B647B681B68F0
:1048E0000C337A6CBA617B617969BA6941E800235B
:1048F0003B613B69002BE5D17B68202283F8422095
:104900007B6800221A6300BF5437BD4680BC7047E5
:1049100080B584B000AF78607B681B681B6923F4A6
:1049200040517B68DA687B681B680A431A617B68C0
:104930009A687B681B691A437B685B691343BB6099
:104940007B681B68DB6823F4B05323F00C037A68A0
:104950001268B9680B43D3607B681B685B6923F4FA
:1049600040717B689A697B681B680A435A617B685F
:104970001B682C4A934203D1FEF7A6FEF86002E0C2
:10498000FEF78EFEF860FA6813469B0013449A0007
:104990001A447B685B689B00B2FBF3F3224AA2FBDC
:1049A00003235B091901FA6813469B0013449A001C
:1049B0001A447B685B689B00B2FBF3F21A4BA3FBC3
:1049C00002035B09642000FB03F3D31A1B0132339B
:1049D000154AA2FB03235B0903F0F0031944FA68AC
:1049E00013469B0013449A001A447B685B689B0043
:1049F000B2FBF3F20C4BA3FB02035B09642000FB48
:104A000003F3D31A1B013233074AA2FB03235B09CA
:104A100003F00F027B681B680A449A6000BF1037DE
:104A2000BD4680BD003801401F85EB51014B186821
:104A3000704700BF1000002070B500260C4D0D4CD3
:104A4000641BA410A64209D100F076FC00260A4D92
:104A50000A4C641BA410A64205D170BD55F8043B56
:104A600098470136EEE755F8043B98470136F2E7E0
:104A70008C5600088C5600088C560008905600088A
:104A80000A44914200F1FF3300D1704710B511F88C
:104A9000014B914203F8014FF9D110BD0346024486
:104AA000934200D1704703F8011BF9E730B5141E9B
:104AB00005469BB0184605DA8B234FF0FF302B607C
:104AC0001BB030BD4FF40273ADF80C300CBF234661
:104AD00004F1FF33029305934FF6FF7302460091F2
:104AE0000491ADF80E3069461E9B284600F074F81C
:104AF000431CBCBF8B232B60002CE1D00022009B09
:104B00001A70DDE707B5009313460A4601460348CD
:104B10000068FFF7CBFF03B05DF804FB1000002036
:104B20002DE9F0478E6882469E420C4690461F460D
:104B300038D88A8912F4906F32D025680969013318
:104B4000A5EB010965694B4405EB450505EBD575FA
:104B50006D109D4238BF1D46530531D5294600F0E2
:104B600045FB064650B90C234FF0FF30CAF8003021
:104B7000A38943F04003A381BDE8F0874A46216939
:104B8000FFF77EFFA38923F4906343F08003A381A2
:104B900026614E4426603E466561A5EB0905A56089
:104BA000BE4200D93E4632464146206800F0B8FA7F
:104BB000A36822689B1B32440020A3602260DBE7CD
:104BC0002A4600F06DFB06460028E1D150462169D7
:104BD00000F0C0FAC7E700002DE9F04F98468B8936
:104BE00007461B060D4614469DB00ED50B6963B9EA
:104BF000402100F0FBFA2860286120B90C233B60BB
:104C00004FF0FF30D1E040236B6100230993202354
:104C10008DF8293030234FF00109CDF80C80DFF8F2
:104C2000A4818DF82A3023469A4613F8012B0AB145
:104C3000252AF9D1BAEB040B0BD05B462246294654
:104C40003846FFF76DFF013000F0AA80099A5A44F8
:104C500009929AF80030002B00F0A28000234FF058
:104C6000FF32CDE905230AF1010A049307938DF879
:104C700053301A935446052214F8011B514800F092
:104C800041FA049AD8B9D00644BF20238DF8533096
:104C9000110744BF2B238DF853309AF800302A2B8C
:104CA00015D0544600204FF00A0C079A214611F8FF
:104CB000013B303B092B4ED9B0B1079214E0A0EB79
:104CC000080309FA03F31343A2460493D2E7039BB4
:104CD000191D1B680391002BBBBF5B4242F002020F
:104CE00007930793B8BF049223782E2B0CD16378D7
:104CF0002A2B35D1039B02341A1D1B680392002B0B
:104D0000B8BF4FF0FF330593DFF8C8A00322504629
:104D1000217800F0F7F940B14023A0EB0A0003FA34
:104D200000F0049B01340343049314F8011B062292
:104D300025488DF8281000F0E5F9002838D0234BDD
:104D40001BBB039B073323F0070308330393099B23
:104D50003344099367E70C4601200CFB0232A5E7B8
:104D600000234FF00A0C194601340593204610F831
:104D7000012B303A092A03D9002BC5D00591C3E78E
:104D8000044601230CFB0121F0E703AB00932A4604
:104D900038460F4B04A9AFF30080421C0646D6D11B
:104DA000AB895B063FF52CAF09981DB0BDE8F08FCD
:104DB00003AB00932A463846054B04A900F07CF863
:104DC000EBE700BF4E5600085856000800000000F0
:104DD000214B0008545600082DE9F0471646994625
:104DE0008A680B6907469342B8BF1346336091F84F
:104DF00043200C46DDF820800AB10133336023687C
:104E0000990642BF336802333360256815F0060502
:104E100006D104F1190AE36832689B1AAB4228DC18
:104E200094F84320131E226818BF012392062DD444
:104E30004946384604F14302C047013020D0236878
:104E4000E56803F00603042B18BF002532684FF015
:104E50000006A36808BFAD1A226908BF25EAE575F8
:104E60009342C4BF9B1AED181A34B5421AD10020E0
:104E700008E00123524649463846C047013003D175
:104E80004FF0FF30BDE8F0870135C4E73020E1186E
:104E900081F843005A1C94F845102244023382F8EA
:104EA0004310C5E70123224649463846C047013032
:104EB000E6D00136D9E700002DE9FF470C46277EF2
:104EC0009146782F80469A460C9904F1430207D800
:104ED000622F0AD8002F00F0D980582F00F0A4804C
:104EE00004F1420684F842703AE0A7F16303152BFF
:104EF000F6D801A050F823F0514F0008654F000884
:104F0000E14E0008E14E0008E14E0008E14E0008C5
:104F1000654F0008E14E0008E14E0008E14E000830
:104F2000E14E000873500008954F000855500008E6
:104F3000E14E0008E14E000895500008E14E0008DF
:104F4000954F0008E14E0008E14E00085D50000852
:104F50000B6804F142061A1D1B680A6084F842308F
:104F60000123A4E0256808682E0600F104030AD591
:104F700005680B60002D03DA2D236D4284F8433061
:104F80000A235E4819E015F0400F05680B6018BF52
:104F90002DB2EFE70B682568181D0860280601D5BB
:104FA0001D6802E06906FBD51D886F2F0CBF082322
:104FB0000A235248002184F843106668002EA8BFD7
:104FC0002168A660A4BF21F0040121600DB9002E64
:104FD0004DD01646B5FBF3F103FB1157C75D06F83C
:104FE000017D2F46BB420D46F4D9082B0BD1236817
:104FF000DF0708D5236961689942DEBF302306F8D0
:10500000013C06F1FF36921B22614B462146404689
:10501000CDF800A003AAFFF7DFFE01304CD14FF01E
:10502000FF3004B0BDE8F087344884F845700E685E
:10503000236856F8045B1F060E6014D5D90744BFD9
:1050400043F0200323601DB9236823F0200323606D
:105050001023AFE7236843F0200323607823284818
:1050600084F84530E3E75E0648BFADB2E6E7164692
:10507000BBE70B6826681D1D60690D6035061B685F
:1050800001D5186002E07106FBD518800023164692
:105090002361BAE70B681A1D0A601E6800213046BA
:1050A000626800F02FF808B1801B606063682361BC
:1050B000002384F84330A8E7324649464046236936
:1050C000D0470130ABD023689B0713D4E068039B23
:1050D0009842B8BF1846A4E70123324649464046E5
:1050E000D04701309BD00135E36803995B1AAB428E
:1050F000F2DCEBE7002504F11906F5E75F5600083E
:1051000070560008034610B5C9B2024493421846CF
:1051100001D1002003E0047801338C42F6D110BDA8
:10512000884210B501EB020402D98442234607D815
:10513000431EA14208D011F8012B03F8012FF8E714
:10514000014602448A4200D110BD13F8014D02F815
:10515000014DF7E738B50546002943D051F8043C26
:105160000C1F002BB8BFE41800F0D0F81E4A1368DB
:10517000104633B9636014602846BDE8384000F03B
:10518000CBB8A3420AD921686218934201BF1A68BA
:105190005B685218226063600460EDE71A465B6842
:1051A0000BB1A342FAD911685018A0420BD1206864
:1051B0000144501883421160DED118685B680144D5
:1051C00011605360D8E702D90C232B60D4E7206824
:1051D00021188B4201BF19685B6809182160636060
:1051E0005460C9E738BD00BF48010020F8B5CD1CA8
:1051F00025F0030508350C2D38BF0C25002D06467B
:1052000001DBA94203D90C2333600020F8BD00F074
:105210007DF821490A6814469CB9204F3B6823B9A0
:105220002146304600F062F838602946304600F0EA
:105230005DF8431C23D10C233046336000F06CF83A
:10524000E3E723685B1B17D40B2B03D923601C44B3
:10525000256004E06368A2420CBF0B6053603046D7
:1052600000F05AF804F10B00231D20F00700C21AC9
:10527000CCD01B1AA350C9E722466468CCE7C41CF3
:1052800024F00304A042E3D0211A304600F02EF8A7
:105290000130DDD1CFE700BF480100204C010020E4
:1052A000F8B5074614460E4621B91146BDE8F84048
:1052B000FFF79CBF22B9FFF74DFF25462846F8BDF2
:1052C00000F030F8A0420FD221463846FFF78EFF9B
:1052D00005460028F2D031462246FFF7D1FB314681
:1052E0003846FFF737FFE9E73546E7E738B50023EB
:1052F000054D044608462B60FCF768FF431C02D1AD
:105300002B6803B1236038BD50040020014800F031
:1053100011B800BF58040020014800F00CB800BFCD
:105320005804002051F8043C181F002BBCBF0B5838
:10533000C018704770477047F8B500BFF8BC08BC8C
:105340009E467047F8B500BFF8BC08BC9E46704743
:105350005B54585D20456E7472792054583A20256C
:10536000640A00005B54585D205458204845583A60
:105370002000000025303258200000000A00000004
:105380005B54585D205472616E736D69743A2025C8
:10539000640A00005B52585D20456E747279205299
:1053A000583A2025640A00005B52585D20436F6E16
:1053B00074656E743A2000005B474154455741596B
:1053C0005F4144565D206E6F646520253032582061
:1053D000696E20636F6E6E656374696F6E2C2073E7
:1053E0006C6F742025640A005B474154455741594E
:1053F0005F4144565D20676174657761792072650D
:105400006D61696E20736C6F742C2061646420255B
:1054100030325820746F20736C6F740A00000000E3
:105420005B474154455741595F4144565D20676190
:105430007465776179206E6F20656D707479207363
:105440006C6F742C2063616E6E6F74206A6F696E6E
:105450000A0000005B4E4F44455F4144565D206E9C
:105460006F6465202530325820616C726561647903
:1054700020696E20636F6E6E656374696F6E0A00DB
:105480005B4E4F44455F4144565D20646573742014
:10549000253032582072656D61696E20736C6F74AF
:1054A0002C20616464206E6F6465202530325820A2
:1054B000746F20646573740A000000005B4E4F44F3
:1054C000455F4144565D2064657374202530325831
:1054D0002068617665206E6F20656D707479207329
:1054E0006C6F742C2063616E6E6F74206A6F696ECE
:1054F0000A0000005B474154455741595F4245410E
:10550000434F4E5D20626561636F6E2073746172FC
:10551000742C206672616D653A25640A00000000F3
:10552000446576696365202530325820616C726568
:1055300061647920636F6E6E65637465640A000050
:1055400041646465642064657620253032580A0021
:105550004465766963652025303258204F46464CB5
:10556000494E450A00000000436F6E666967757218
:10557000696E67204C6F5261206D6F64756C650DAC
:105580000A000000446F6E6520636F6E6669677580
:1055900072696E67204C6F52614D6F64756C650D5A
:1055A0000A00000073656E642073656E736F723A53
:1055B0002025640A0000000073656E6420666F7227
:1055C000776172643A2025640A0000005B54444D00
:1055D000415D20706172656E74206672616D652038
:1055E000656E6465640A00005B54444D415D206350
:1055F00068696C64206672616D6520656E646564BF
:105600000A000000FFFCF9F6060708090A0B0C0067
:105610000001020304050607080900000102030453
:10562000010000000000000000000000010203046F
:105630000607080900000000010203040203040534
:10564000060708090A0B0C0D0E0F10100102232D7E
:10565000302B2000686C4C0065666745464700307B
:1056600031323334353637383941424344454600C8
:1056700030313233343536373839616263646566C8
:045680000000000026
:08568400FCAAFF7F01000000F9
:04568C0035010008DC
:0456900011010008FC
:10569400FF00000000127A0010000000010000006A
:1056A40014000020000000000000000000000000C2
:1056B40000000000000000000000000000000000E6
:1056C40000000000000000000000000000000000D6
:1056D40000000000000000000000000000000000C6
:1056E40000000000000000000000000000000000B6
:1056F40000000000000000000000000000000000A6
:0457040000000000A1
:040000050800224588
:00000001FF
