:020000040800F2
:10000000005000204D2A00085D28000863280008E1
:10001000692800086F280008752800080000000003
:100020000000000000000000000000007B28000825
:100030008728000800000000932800089F28000877
:10004000952A0008952A0008952A0008952A000894
:10005000952A0008952A0008952A0008952A000884
:10006000952A0008952A0008952A0008952A000874
:10007000952A0008952A0008952A0008952A000864
:10008000952A0008952A0008952A0008952A000854
:10009000952A0008952A0008952A0008952A000844
:1000A000952A0008952A0008952A0008952A000834
:1000B000952A0008952A0008952A0008952A000824
:1000C000952A0008952A0008952A0008952A000814
:1000D000952A0008952A0008952A0008952A000804
:1000E000952A0008AD280008952A000800000000A5
:1000F0000000000000000000000000000000000000
:0C01000000000000000000005FF808F1A3
:1001100010B5054C237833B9044B13B10448AFF341
:1001200000800123237010BD80000020000000002B
:100130005472000808B5034B1BB103490348AFF3E1
:10014000008008BD000000008400002054720008F8
:1001500053B94AB9002908BF00281CBF4FF0FF312E
:100160004FF0FF3000F06EB9ADF1080C6DE904CE30
:1001700000F006F8DDF804E0DDE9022304B0704782
:100180002DE9F047089E0D4604468E46002B40F0B0
:1001900083808A42174647D9B2FA82F34BB1C3F142
:1001A000200105FA03FE20FA01F19F4041EA0E0EFC
:1001B0009C404FEA1748BEFBF8FC1FFA87F908FB82
:1001C0001CE20CFB09F0210C41EA024290420AD9E0
:1001D000BA180CF1FF3180F01881904240F215817D
:1001E000ACF1020C3A44121AB2FBF8F008FB1022F0
:1001F00000FB09F1A4B244EA0244A14209D93C1926
:1002000000F1FF3280F00381A14240F20081023808
:100210003C44641A002140EA0C401EB10022DC403C
:10022000C6E90042BDE8F08702B9FFDEB2FA82F308
:10023000002B4FD18D1A01214FEA124E1FFA82F87E
:10024000B5FBFEFC0EFB1C5508FB0CF0220C42EA31
:100250000545A84207D97D190CF1FF3202D2A84208
:1002600000F2E98094462D1AB5FBFEF00EFB105506
:1002700008FB00F8A4B244EA0544A04507D93C199C
:1002800000F1FF3202D2A04500F2D9801046A4EB63
:10029000080440EA0C40C0E78B4208D9002E00F069
:1002A000B1800021C6E900050846BDE8F087B3FA31
:1002B00083F100294BD1AB4202D3824200F2B980D4
:1002C000841A65EB030301209E46002EAAD0C6E9DE
:1002D000004EA7E79F40C3F12002D1404FEA174EDE
:1002E000B1FBFEF01FFA87F80EFB101124FA02F2A0
:1002F0009D4000FB08FC2A43150C45EA0145AC452E
:1003000004FA03F409D97D1900F1FF3180F08F80E0
:10031000AC4540F28C8002383D44A5EB0C05B5FBA2
:10032000FEF10EFB115C01FB08F995B245EA0C45A4
:10033000A94507D97D1901F1FF3274D2A94572D9B7
:1003400002393D44A5EB090541EA004178E7C1F1D6
:1003500020078B4022FA07FC4CEA030C25FA07F42D
:100360004FEA1C4EB4FBFEF91FFA8CF80EFB194441
:1003700020FA07F309FB08FA8D401D432B0C43EAD2
:100380000444A24502FA01F200FA01F309D91CEB78
:10039000040409F1FF3048D2A24546D9A9F1020967
:1003A0006444A4EB0A04B4FBFEF00EFB104400FB13
:1003B00008FAADB245EA0444A24508D91CEB04048E
:1003C00000F1FF352DD2A2452BD90238644440EA12
:1003D0000940A0FB0289A4EB0A044C45C6464D46E1
:1003E00019D316D05EB1B3EB0E0264EB050404FA28
:1003F00007F722FA01F31F43CC40C6E9007400213D
:10040000BDE8F087314630460CE78C46EBE61046F7
:10041000FFE64345E6D2B8EB020E69EB0C05013866
:10042000E0E72846D3E711468CE78146B9E708465E
:1004300073E7084649E7ACF1020C3D4413E7023884
:100440003C4424E7704700BF80B584B000AF7860BB
:100450000B46FB707B681B68FA781146184600F063
:10046000F5FB7B681B68184600F010FC0346FB7325
:100470007B681B680121184600F0ADFBFB7B18462A
:100480001037BD4680BD80B582B000AF78600B46A6
:10049000FB701346BB707B681B680021184600F098
:1004A0009AFB7B681A68FB7863F07F03DBB219461E
:1004B000104600F0CBFB7B681B68BA7811461846E3
:1004C00000F0C4FB7B681B680121184600F083FB29
:1004D00000BF0837BD4680BD90B587B000AFF8605B
:1004E0007A601A460B46FB721346BB72BB7A012B2D
:1004F00027D9FB681B680021184600F06CFBFB68DD
:100500001B68FA7A1146184600F0A0FB0023FB7521
:100510000CE0FB681968FB7D7A68D418084600F087
:10052000B5FB03462370FB7D0133FB75FA7DBB7A77
:100530009A42EED3FB681B680121184600F04BFB82
:1005400000E000BF1C37BD4690BD80B586B000AF4F
:10055000F8607A601A460B46FB721346BB72BB7A90
:10056000012B29D9FB681B680021184600F033FBDA
:10057000FB681A68FB7A63F07F03DBB2194610460A
:1005800000F064FB0023FB750BE0FB681868FB7D43
:100590007A6813441B78194600F058FBFB7D013341
:1005A000FB75FA7DBB7A9A42EFD3FB681B68012189
:1005B000184600F010FB00E000BF1837BD4680BDB4
:1005C00080B586B000AF7860786800F00DF90F2034
:1005D00000F082FB786800F017F97B68D3E902230A
:1005E0004FF000004FF00001D90441EA5231D0042D
:1005F0006F4A4FF00003FFF7ABFD02460B46C7E919
:100600000423D7E904014FF000024FF00003020C6D
:1006100042EA01420B0CD3B23B73D7E904014FF01D
:1006200000024FF00003020A42EA01620B0AD3B251
:100630007B733B7CBB7307F10C02032306217868B4
:10064000FFF783FF342239217868FFF71CFF7B68AE
:100650001B7C1A46574B9B5C1A4609217868FFF7AA
:1006600012FF0B220B217868FFF70DFF23220C21CC
:100670007868FFF708FF7B685B7C1A464E4B9B5CF3
:10068000062B47D17B689B7C1A464C4B9B5C1B011D
:10069000DAB27B68DB7C1946494B5B5C5B00DBB202
:1006A0001344DBB20133DBB21A461D217868FFF731
:1006B000EAFE7B685B7C1A463F4B9B5C1B01DAB20F
:1006C0007B681B7D19463F4B5B5C9B00DBB2134490
:1006D000DBB20333DBB21A461E217868FFF7D3FE84
:1006E00031217868FFF7B0FE0346FB73FB7B23F0F4
:1006F0000703FB73FB7B43F00503FB73FB7B1A468D
:1007000031217868FFF7BFFE0C2237217868FFF7A8
:10071000BAFE29E07B689B7C1A46284B9B5C1B0138
:10072000DAB27B68DB7C1946254B5B5C5B00DBB295
:100730001344DBB21A461D217868FFF7A4FE7B68DC
:100740005B7C1A461C4B9B5C1B01DAB27B681B7DF1
:1007500019461C4B5B5C9B00DBB21344DBB21A46B0
:100760001E217868FFF78FFE042226217868FFF7A4
:100770008AFE08221F217868FFF785FE00222021CB
:100780007868FFF780FE082221217868FFF77BFE5A
:10079000012241217868FFF776FE7B68002283F80A
:1007A0001721786800F010F800BF1837BD4680BDEB
:1007B0000048E801B0750008B4750008BC75000871
:1007C000C8750008CC75000880B582B000AF7860AD
:1007D000092201217868FFF756FE7B6801229A758D
:1007E00000BF0837BD4680BD80B582B000AF7860DD
:1007F000082201217868FFF746FE7B6800229A757F
:1008000000BF0837BD4680BD80B582B000AF7860BC
:10081000882201217868FFF736FE00BF0837BD4601
:1008200080BD80B582B000AF7860FF221221786869
:10083000FFF729FE00BF0837BD4680BD80B586B0F2
:1008400000AFF8600B467A60FB72FB68FA7A5A7563
:10085000F868FFF7B5FE84224D21F868FFF713FE14
:10086000FF222421F868FFF70EFE01224021F868DC
:10087000FFF709FE3F221121F868FFF704FEF86830
:10088000FFF7CFFFFB7A1A462221F868FFF7FBFD3E
:100890000F21F868FFF7D8FD0346FB75FB7D1A466C
:1008A0000D21F868FFF7EFFD8D220121F868FFF7B1
:1008B000EAFDFB68002283F817211821F868FFF78A
:1008C000C3FD034603F00403042B04D1FB68032299
:1008D0009A75012313E07B68013B7B607B68002BEA
:1008E00009D1FB681B68184600F08CF9F868FFF71F
:1008F00067FE002303E0012000F0EEF9DDE7184673
:100900001837BD4680BD80B584B000AF78607B6885
:100910001B68184600F0EBF90346002B30D07B68CB
:1009200017334FF480720021184605F073FA102136
:100930007868FFF789FD0346BB73BB7B1A460D2120
:100940007868FFF7A0FD7B685B7C002B03D17B6898
:100950005B7DFB7305E013217868FFF775FD0346A7
:10096000FB737B6803F11702FB7B00217868FFF7BC
:10097000B3FD7B68FA7B83F817217868FFF751FF96
:100980007B6893F8173118461037BD4680BD80B597
:1009900086B000AFF8600B467A60FB72FB68FA7AAB
:1009A0005A75F868FFF70CFE87224D21F868FFF7AB
:1009B0006AFD00222421F868FFF765FD41224021ED
:1009C000F868FFF760FDF868FFF72BFFF7221121A9
:1009D000F868FFF758FDFB7A1A462221F868FFF7FE
:1009E00052FD0E21F868FFF72FFD0346FB75FB7DD6
:1009F0001A460D21F868FFF746FD2221F868FFF737
:100A000023FD0346BB75BA7DFB7A9A4204D1FB688D
:100A100002229A7501230EE07B68013B7B607B68B4
:100A2000002BEAD1FB681B68184600F0EBF8F86869
:100A3000FFF7C6FD002318461837BD4680BD80B5B8
:100A400084B000AFF860B9603B601346FB71FB797E
:100A5000BA680021F868FFF778FD8B220121F86859
:100A6000FFF711FDFB681B68184600F040F90346CC
:100A7000002B0BD01221F868FFF7E6FCF868FFF7AF
:100A8000D0FEF868FFF7A0FE012313E03B68013BAE
:100A90003B603B68002B09D1FB681B68184600F0DF
:100AA000B1F8F868FFF78CFD002303E0012000F0A7
:100AB00013F9D7E718461037BD4680BD80B584B01E
:100AC00000AFF860C7E90023FB681B68184600F018
:100AD0006DF8F968D7E90023C1E90223FB683A7E83
:100AE0001A74FB683A7F5A74FB6897F820209A744E
:100AF000FB6897F82420DA74FB6897F828201A75A9
:100B0000FB6897F82C205A75F868FFF759FD00BF6D
:100B10001037BD4680BD80B584B000AFF860B960C5
:100B20001346FB71FB6893F81731FA799A4203D0A8
:100B3000FB6893F81731FB71FB681733FA79194694
:100B4000B86805F059F9FB79BA68134400221A70A5
:100B5000FB68002283F81721FB7918461037BD4641
:100B600080BD80B584B000AF78601A217868FFF747
:100B70006BFC0346FB73FB7B9BB29D3B9BB21BB2A2
:100B800018461037BD4680BD80B584B000AF786090
:100B900019217868FFF758FC0346FB7397F90F306B
:100BA0009B105BB218461037BD4680BD80B582B041
:100BB00000AF78600121786800F00DF87B68586814
:100BC0007B681B689BB20122194602F0C2FC00BF81
:100BD0000837BD4680BD80B582B000AF786039600F
:100BE0007B6858697B681B6999B23B68012B0CBF15
:100BF00001230023DBB21A4602F0ABFC00BF08372A
:100C0000BD4680BD80B582B000AF786001217868B4
:100C1000FFF7E1FF7B6858687B681B689BB2002286
:100C2000194602F096FC012000F056F87B685868DF
:100C30007B681B689BB20122194602F08AFC642083
:100C400000F04AF800BF0837BD4680BD80B582B0CD
:100C500000AF78600B46FB7000217868FFF7BBFFA0
:100C60007B689869F91C4FF47A73012204F0C2FA88
:100C700000BF7B689B69184604F0A9FD0346012B61
:100C8000F7D100BF00BF0837BD4680BD80B586B034
:100C900002AF78600023FB730023BB7300217868E8
:100CA000FFF799FF7B68986907F10E0207F10F01C2
:100CB0004FF47A730093012304F0E0FB00BF7B68DC
:100CC0009B69184604F083FD0346012BF7D1BB7BDB
:100CD00018461037BD4680BD80B582B000AF786041
:100CE000786801F03BFF00BF0837BD4680BD80B586
:100CF00082B000AF78607B68DA687B689B689BB2E3
:100D00001946104602F00EFC0346012B0CBF0123CE
:100D10000023DBB218460837BD4680BD0FB480B54E
:100D2000A2B000AF07F194033B60381D3B68D7F8D1
:100D30009020802105F010F9C7F88400D7F884309E
:100D4000002B0FDDD7F88430802B02D98023C7F821
:100D50008430D7F884309AB2391D4FF4FA730548BD
:100D600004F04BFE00BF8837BD46BDE8804004B0AC
:100D7000704700BFB402002080B588B000AF786033
:100D800007F10C0300221A605A6007F118030022D1
:100D900019462D4803F0E4FB07F11403002219461D
:100DA000294803F06BFD3B7E1A464FF4616303FB59
:100DB00002F27B7E19460B461B015B1A9B00134413
:100DC000BA7E13441A467B681344FB61FB691F4AD1
:100DD000A2FB0312120C1E4901FB02F29B1AFB61DB
:100DE000FB691C4AA2FB0323DB0ADBB23B73FA69F3
:100DF000184BA3FB0213DB0A4FF4616101FB03F301
:100E0000D31A154AA2FB03235B09DBB27B73F96992
:100E1000114BA3FB01235A0913461B019B1A9B008C
:100E2000CA1AD3B2BB7300233B610021064803F00A
:100E300031FE07F10C0300221946034803F072FD4E
:100E400000BF2037BD4680BDFC02002007452EC2F2
:100E500080510100C5B3A2918988888880B584B08B
:100E600000AF786039607B68DBB23A6819460748A2
:100E7000FFF78DFD0346FB73FB7B19460448FFF724
:100E80004DFFFB7B18461037BD4680BDF0030020A8
:100E90006C72000880B586B000AFF860B9607A6007
:100EA0001548FFF73BFF00237B610AE0FA687B6986
:100EB00013441B7819461148FFF730FF7B69013353
:100EC0007B617A69BB689A42F0D30D48FFF726FF31
:100ED000BB68DAB27B68F9680A48FFF7B0FD0346E1
:100EE000FB74FB7C19460848FFF718FFFB7C18468B
:100EF0001837BD4680BD00BF8072000890720008A0
:100F000098720008F00300209C72000880B584B03D
:100F100000AF786039607B68DBB23A6819460748F1
:100F2000FFF78CFC0346FB73FB7B19460448FFF775
:100F3000F5FEFB7B18461037BD4680BDF003002050
:100F4000B072000880B584B000AF7860C82001F0AE
:100F500005FE2248FFF7D7FC0346BB73BB7B002B83
:100F600036D0BB7B1A4679681C48FFF7D4FD1C4875
:100F7000FFF7D4FE0023FB730AE0FB7B7A6813447F
:100F80001B7819461748FFF7C9FEFB7B0133FB733B
:100F9000FA7BBB7B9A42F0D31348FFF7BFFE0F48A2
:100FA000FFF7DFFD034619461048FFF7B7FE0B4871
:100FB000FFF7EAFD034619460D48FFF7AFFEBB7B7E
:100FC000642B03D964213C20FFF7A0FFBB7B00E02A
:100FD000002318461037BD4680BD00BFF003002037
:100FE000C47200089072000898720008D472000859
:100FF000E472000880B485B000AF03463960FB712D
:10100000FB79202B4ADC002B40F32D81013B1F2B69
:1010100000F2298101A252F823F000BFA5100008B8
:10102000C91000086712000867120008671200085C
:1010300067120008671200086712000867120008AC
:10104000671200086712000867120008671200089C
:101050006712000867120008B7100008F5110008B1
:10106000671200086712000867120008671200087C
:10107000671200086712000867120008671200086C
:10108000671200086712000867120008671200085C
:10109000671200086712000819110008992B00F068
:1010A000C380E0E03B6801221A703B6801331822DC
:1010B0001A700223D8E03B6810221A703B68013393
:1010C00018221A700223CFE03B6802221A703B6894
:1010D0000133FF221A703B68023318221A703B68F2
:1010E0000333644A12781A703B680433624A1278F8
:1010F0001A700523FB730AE0FB7B5A1FFB7B3968E0
:101100000B445E498A5C1A70FB7B0133FB73FB7BEB
:101110000C2BF1D90D23A7E0594B1B78002B3AD0AB
:101120000023BB7300237B730AE07B7B554AD35CAF
:10113000002B02D0BB7B0133BB737B7B01337B7302
:101140007B7B092BF1D93B6820221A703B68013365
:10115000FF221A703B68023318221A70BB7B1A46B2
:1011600052001A4492001344DBB203333B72032350
:101170003B730AE03B7BDA1E3B7B39680B444249F8
:101180008A5C1A703B7B01333B733A7B3B7A9A4211
:10119000F0D33B7A68E03D4B1B78002B28D03B68AE
:1011A00020221A703B680133394A12781A703B6862
:1011B000023318221A703B6803332E4A12781A70D1
:1011C0003B6804332C4A12781A700523FB720AE03C
:1011D000FB7A5A1FFB7A39680B4428498A5C1A70DB
:1011E000FB7A0133FB72FB7A0C2BF1D90D233BE028
:1011F000002339E03B6811221A703B680133182242
:101200001A700223BB720AE0BB7A9A1EBB7A396855
:101210000B441C498A5C1A70BB7A0133BB72BB7ADF
:101220000B2BF1D90C231FE03B6899221A703B6805
:10123000013318221A703B6802330F4A12781A7071
:1012400003237B720AE07B7ADA1E7B7A39680B44CF
:101250000C498A5C1A707B7A01337B727B7A0C2B87
:10126000F1D90D2300E0002318461437BD4680BC99
:10127000704700BFCE010020CF01002028010020D0
:10128000CA010020B401002030010020CB01002061
:101290000000002080B588B000AF78600B46FB707E
:1012A0007B68002B00F01E82FB78002B00F01A8276
:1012B0007B681B78FB72FB7A332B51DC102BC0F25E
:1012C0001382103B232B00F20F8201A252F823F06D
:1012D0001B16000809140008E9160008E9160008A2
:1012E000E9160008E9160008E9160008E9160008E2
:1012F000E9160008E9160008E9160008E9160008D2
:10130000E9160008E9160008E9160008E9160008C1
:1013100083150008E916000869130008E91600089B
:10132000E9160008E9160008E9160008E9160008A1
:10133000E9160008E9160008E9160008E916000891
:10134000E9160008E9160008E9160008E916000881
:10135000E9160008E9160008E9160008CF1400088D
:10136000992B00F0D880BFE1FB780C2B40F0BE81B8
:101370000023FB770023BB7702237B7718E07B7F7A
:101380007A6813441B78182B07D10123FB777B7FE6
:10139000023BDAB2AB4B1A700DE07B7F7A681344E4
:1013A0001B78002B01D10123BB777B7F01337B7737
:1013B0007B7F0B2BE3D9FB7F002B10D0A14B1B783D
:1013C0001A461821A048FFF7A9FCA04B01221A7069
:1013D0009F4B00221A709F4B00221A7099E1BB7F2D
:1013E000002B0AD018219C48FFF798FC994B01224A
:1013F0001A70964B00221A708BE19848FFF78EFC0A
:10140000924B00221A7084E1FB780C2B40F0708123
:101410008E4B1B78002B40F06D817B685A78904B87
:101420001A7000233B770023FB7602237B6119E0CF
:101430007B697A6813441B78182B08D101233B770A
:101440007B69DBB2023BDAB27E4B1A700DE07B693E
:101450007A6813441B78002B01D10123FB767B694A
:1014600001337B617B690B2BE2DD3B7F002B15D0C9
:10147000764B1B78002B11D118217A48FFF74EFCD0
:10148000734B01221A70784B00221A707B685A78CD
:10149000734B1A706D4B00221A703AE1FB7E002BE1
:1014A0000AD06F4B1B78182219467048FFF736FC9C
:1014B0006D4B01221A702CE17B6801331B781946B1
:1014C0006B48FFF72BFC624B00221A7021E1604B46
:1014D0001B78002B40F010815A4B1B7803337A683D
:1014E00013441B78182B40F00981624B01221A70BB
:1014F0007B689A78604B1A70C82001F02FFB01F0CE
:1015000023FB03465D4A13605B4B1B7819465C481E
:10151000FFF704FCFDE04D4B1B78002B40F0F08002
:10152000484B1B7803337A6813441B78182B15D06B
:101530007B6802331B781A464F4B1B78D31A052B56
:1015400040F3E080424B1B78002B00F0DB80404BE7
:1015500000221A70424B00221A70D3E0494B01223C
:101560001A707B689A78444B1A7001F0EDFA0346C2
:10157000454A1360404B1B7819464148FFF7CEFBA4
:10158000C7E0334B1B78002B40F0BE807B680133F3
:101590001B78182B40F0BA800023FB740023BB7427
:1015A00000237B7414E07B7C384AD25C7B68023376
:1015B0001B789A4209D17B7CFB740123BB747B7C32
:1015C0007A681179324AD15405E07B7C01337B740F
:1015D0007B7C092BE7D9BB7C002B00F09980FB7C3E
:1015E0001A4652001A4492001344BB72BB7A3B74F1
:1015F0000CE03A7CBB7AD31A1A467B681A443B7CCF
:101600001178244AD1543B7C01333B74BB7A03F1FB
:101610000C023B7C9A42ECDA7BE00023FB605CE04E
:101620001A4AFB6813441A787B6801331B789A4284
:1016300034D17B6801331B7819461748FFF76EFBDE
:101640004FE000BFCE010020F4720008CA01002064
:10165000CB010020CC010020247300085C7300083B
:101660000000002090730008CD010020BC7300082A
:10167000F8730008D0010020CF010020D401002021
:1016800030740008D8010020DC010020B4010020E3
:10169000C0010020300100205C7400081E4AFB6875
:1016A00013441B78002B15D17B6859781A4AFB68C4
:1016B00013440A461A70194B1978194AFB681344E7
:1016C0000A461A707B6801331B7819461548FFF7E4
:1016D00025FB06E0FB680133FB60FB68092B9FDDFF
:1016E00017E016E000BF14E000BF12E000BF10E0FA
:1016F00000BF0EE000BF0CE000BF0AE000BF08E042
:1017000000BF06E000BF04E000BF02E000BF00E051
:1017100000BF2037BD4680BDB4010020CF010020AE
:10172000C00100207C74000880B584B000AF7860F0
:10173000396001F009FAF8607B681B68FA68D31A0F
:101740003A689A4204D87B68FA681A60012300E07C
:10175000002318461037BD4680BD000080B485B018
:1017600000AF78600B46FB700023FB7313E0FB783F
:10177000FA7B79680A4412789B1A052B08DDFB7BFB
:10178000094AD35C002B03D0FB7B074A0021D154CC
:10179000FB7B0133FB73FB7B092BE8D900BF00BF48
:1017A0001437BD4680BC7047B401002080B582B0BC
:1017B00000AF7860396004F063FB0146BB4B83FBEC
:1017C00001235A10CB17D21A13469B0013445B0017
:1017D0001344CA1A531F9AB2B54BB3F900309BB2E7
:1017E00013449BB21AB2B24B1A8004F049FB014673
:1017F000B04B83FB01239A10CB17D21A13465B0020
:101800001344DA00D21A8A1AA2F10A039AB2AA4B36
:10181000B3F900309BB213449BB21AB2A64B1A80A4
:1018200004F02EFB0246A54B83FB0213134419114F
:10183000D317C91A0B465B015B1AD11AA1F10F032A
:101840009AB29F4BB3F900309BB213449BB21AB2C9
:101850009B4B1A8004F014FB01469A4B83FB012337
:101860005A10CB17D21A13469B001344CA1A931E60
:101870009AB2954BB3F900309BB213449BB21AB2A3
:10188000914B1A808A4BB3F90030B3F5E16F03DA5C
:10189000874B4FF4E1621A80854BB3F9003040F674
:1018A000AC52934203DD824B40F6AC521A80824B1D
:1018B000B3F9003040F6B732934203DC7E4B40F67A
:1018C000B8321A807C4BB3F9003042F2283293428E
:1018D00003DD794B42F228321A80794BB3F900309C
:1018E000002B02DA764B00221A80754BB3F90030D8
:1018F00042F21072934203DD714B42F210721A8071
:10190000714BB3F90030B3F5616F03DA6E4B4FF4EE
:1019100061621A806C4BB3F9003041F26802934265
:1019200003DD694B41F268021A80614BB3F9003064
:101930009AB23B685A80604BB3F900309AB23B6868
:101940001A805F4BB3F900309AB23B689A805E4BC5
:10195000B3F900309AB23B68DA80554BB3F90030E6
:101960001B121BB2DAB27B681A70514BB3F900201C
:101970007B680133D2B21A704F4BB3F900301B129F
:101980001AB27B680233D2B21A704B4BB3F9002003
:101990007B680333D2B21A70494BB3F900301B1283
:1019A0001AB27B680433D2B21A70454BB3F90020E7
:1019B0007B680533D2B21A70434BB3F900301B1267
:1019C0001AB27B680633D2B21A703F4BB3F90020CB
:1019D0007B680733D2B21A70354BB3F900303B4AFB
:1019E00082FB03125211DB17D31A1BB21846304B7D
:1019F000B3F90030354A82FB03125111DA178A1A03
:101A0000642101FB02F29B1A1BB21A4601463048C0
:101A1000FFF784F9284BB3F900302C4A82FB0312FC
:101A20005211DB17D31A1BB21846234BB3F90030FF
:101A3000264A82FB03125111DA178A1A642101FB2C
:101A400002F29B1A1BB21A4601462248FFF766F9BA
:101A50001B4BB3F900301D4A82FB03125211DB17F6
:101A6000D31A1BB21846164BB3F90030174A82FB43
:101A700003125111DA178A1A642101FB02F29B1A30
:101A80001BB21A4601461448FFF748F90E4BB3F94A
:101A900000300E4A82FB03125211DB17D31A1BB21D
:101AA0001846094BB3F9003018E000BFE9A28B2EAD
:101AB00002000020310CC3300400002043082184C0
:101AC0000600002067666666080000201F85EB514F
:101AD0008C740008A0740008B8740008094A82FBDE
:101AE00003125111DA178A1A642101FB02F29B1AC0
:101AF0001BB21A4601460448FFF710F900BF083729
:101B0000BD4680BD1F85EB51D07400080000000069
:101B100080B59AB006AF00F0BFFF00F0BBFA00F04E
:101B200069FC00F08FFB00F005FC00F039FC00F0D0
:101B30000DFB00F0B5FB00F047FB7D4B7D4ADA6002
:101B40007B4B04229A607A4B7A4A5A61784B102276
:101B50001A61774B774A5A60754B08221A60744BAA
:101B6000754A9A61754B724A1A6000F0EDFF0346A0
:101B7000184604F057F97248FFF7D0F80F23059381
:101B8000002304930023039308230293012301936A
:101B90000023009364A3D3E900236848FEF78EFF77
:101BA0006848FFF7BBF84FF4FA6210216348FEF76C
:101BB00045FE0023FB600023BB6000237B60002305
:101BC00087F84F30002387F84E30002387F84D30D8
:101BD00009E097F84D305C4A1821D15497F84D3000
:101BE000013387F84D3097F84D30072BF1D997F82E
:101BF0004E30002B06D155495348FFF7D7FD01233E
:101C000087F84E305248FFF79DF9034687F84A306F
:101C100097F84A30002B05D097F84A3019464C48BF
:101C2000FFF738FB4B4B1B7819464B48FFF796FDE7
:101C3000002387F84C30002387F84B300FE097F8EB
:101C40004B30464AD35C002B04D097F84C3001331C
:101C500087F84C3097F84B30013387F84B3097F8C2
:101C60004B30092BEBD93E4B1B78002B2CD197F82E
:101C70004C30092B28D83B4B1B78002B24D007F184
:101C80000C0341F288311846FFF74EFD0346002B46
:101C90001AD035491120FFF7ADF9034687F84930CE
:101CA00097F849304FF47A711846FFF7D7F897F84C
:101CB00049304FF47A7219462B48FFF7EBF84FF48E
:101CC0007A714120FFF722F9284B1B78002B4FD067
:101CD000244B1B78002B4BD107F108034FF4FA611A
:101CE0001846FFF721FD0346002B41D01E49012075
:101CF000FFF780F9034687F8483097F848304FF4EB
:101D0000FA711846FFF7AAF897F848304FF4FA72BC
:101D100019461548FFF7BEF84FF47A713C20FFF7DB
:101D2000F5F855E0AFF30080400ECF190000000039
:101D3000080500200008014010030020F0030020E7
:101D4000E8740008047500082801002078020020CB
:101D500068030020CF010020C0010020B401002052
:101D6000E2010020CA0100209C000020CC010020DC
:101D7000B64B1B78002B2BD0B54B1B78002B27D1F3
:101D8000B44B1B78002B23D13B1D4FF4FA6118464E
:101D9000FFF7CAFC0346002B1AD0AF491020FFF70B
:101DA00029F9034687F8473097F847304FF4FA711E
:101DB0001846FFF753F897F847304FF4FA72194670
:101DC000A548FFF767F84FF47A713C20FFF79EF8BB
:101DD00097F84F30002B29D1A04B1B78002B25D032
:101DE0009C4B1B78002B21D0994B1B78002B1DD1CD
:101DF00099499920FFF7FEF8034687F8463097F88F
:101E000046304FF4FA711846FFF728F897F8463035
:101E10004FF4FA7219469048FFF73CF84FF47A7184
:101E20004120FFF773F8012387F84F308B4B1B7865
:101E3000002B00F09E80874B1B78002B00F09980D0
:101E4000834B1B78002B40F09480854B01221A7045
:101E500000F07AFE0246834B1B68D31A3B64824B28
:101E60001B781A4640F6B83303FB02F303F5EA4346
:101E70003033FB63FB6B03F5C873BB63FB6B03F68B
:101E800028237B63794B1B78002B53D13A6CBB6BB7
:101E90009A424FD33A6C7B6B9A424BD26E490220E6
:101EA000FFF7A8F8034687F833307A6B3B6CD31AF8
:101EB000FB6297F83330F96A1846FEF7CFFF97F8C0
:101EC00033304FF4FA7219466348FEF7E3FF0346D6
:101ED00087F82B3097F82B3019466548FEF71EFF20
:101EE0004FF4967000F03AFE5B492020FFF782F82D
:101EF000034687F8333097F83330F96A1846FEF70F
:101F0000ADFF97F833304FF4FA7219465248FEF796
:101F1000C1FF034687F82B3097F82B3019465548F8
:101F2000FEF7FCFE514B01221A704122002152485B
:101F300003F070FF3B6C4EF65F22934219D90023E9
:101F400087F84F30454B00221A70484B00221A7018
:101F50004A4B01221A70002387F84E30404B002272
:101F60001A704FF47A713C20FEF7D0FF4448FEF718
:101F7000D5FE444B1B78002B58D0364B1B78002BDA
:101F800054D1334B1B78002B50D000F0DDFD0246BE
:101F90003D4B1B68D31A7B62334B1B781A4640F6C5
:101FA000B83303FB02F33B623B6A03F5C873FB6182
:101FB0003B6A03F62823BB612C4B1B78002B22D1F4
:101FC0007A6AFB699A421ED37A6ABB699A421AD22C
:101FD00021492020FFF70EF80346FB75BA697B6A9A
:101FE000D31A3B61FA7D3B695B0819461046FEF740
:101FF00035FFF97D3B695B081A461748FEF74AFF33
:102000001A4B01221A707B6A47F22F5293420DD964
:102010001C4B00221A70154B00221A704FF47A7173
:102020003C20FEF773FF1948FEF778FE134B1B7830
:10203000002B07D01648FEF771FE0A20FEF79CFE23
:1020400000F0B0FDC82000F089FDD0E5CD010020F2
:10205000CB010020CA0100209C000020D0010020FC
:10206000E2010020D4010020CE010020E001002088
:10207000247500083875000830010020E1010020B7
:102080004C750008D8010020DC01002068750008AC
:102090008475000880B594B000AF07F128032822AA
:1020A0000021184603F0B6FE07F1140300221A605F
:1020B0005A609A60DA601A613B1D00221A605A6009
:1020C0009A60DA600A23BB620123BB631023FB63BF
:1020D00001233B6402237B640023BB640023FB6475
:1020E00007F12803184601F09DFB0346002B01D0A1
:1020F00000F0ECF90F237B610223BB618023FB61BD
:102100004FF480633B624FF480637B6207F11403FA
:102110000021184601F006FE0346002B01D000F016
:10212000D5F903237B604FF40073BB600023FB6091
:102130003B1D184601F084FF0346002B01D000F040
:10214000C5F900BF5037BD4680BD000080B584B0E2
:1021500000AF3B1D00221A605A609A60184B194A62
:102160001A60174B00229A60154B00221A73144B09
:1021700000221A75124B4FF46022DA61104B0022D4
:102180005A600F4B01221A610D4800F027FD0346EB
:10219000002B01D000F09AF900237B600123BB6083
:1021A0000023FB603B1D1946054800F0EFFD034688
:1021B000002B01D000F08AF900BF1037BD4680BD6A
:1021C000840200200024014080B584B000AF3B1D94
:1021D00000221A605A609A60184B194A1A60174B0D
:1021E00000229A60154B00221A73144B00221A75B4
:1021F000124B4FF46022DA61104B00225A600F4BF1
:1022000001221A610D4800F0E9FC0346002B01D0C1
:1022100000F05CF901237B600123BB600023FB60BD
:102220003B1D1946054800F0B1FD0346002B01D0C7
:1022300000F04CF900BF1037BD4680BDF40100200E
:102240000028014080B500AF124B134A1A60114BB1
:10225000124A5A600F4B00229A600E4B0022DA603D
:102260000C4B4FF480421A610A4B00225A61094B11
:1022700000229A61074B0022DA61064B00221A62A3
:10228000044801F07FF90346002B01D000F01EF94D
:1022900000BF80BD2402002000540040A086010041
:1022A00080B582B000AF3B1D00210A461A800A4665
:1022B0009A7000233B601D4B1D4A1A601B4B4FF068
:1022C000FF325A60194B4FF480729A60174802F03F
:1022D00023F80346002B01D000F0F8F800233B71EF
:1022E00000237B710023BB713B1D002219460F4860
:1022F00002F09EF80346002B01D000F0E7F801231E
:102300003B7001237B700123BB700023FB703B46B5
:1023100000221946054802F0FBF90346002B01D0C4
:1023200000F0D4F800BF0837BD4680BDFC02002095
:102330000028004080B500AF174B184A1A60164BB2
:102340004FF482725A60144B00229A60124B0022A2
:10235000DA60114B00221A610F4B00225A610E4BBA
:102360004FF400729A610C4B1822DA610A4B00227A
:102370001A62094B00225A62074B00229A62064BEE
:102380000A22DA62044802F0B1FE0346002B01D0B3
:1023900000F09CF800BF80BD100300200030014019
:1023A00080B500AF114B124A1A60104B4FF4E13266
:1023B0005A600E4B00229A600C4B0022DA600B4BE5
:1023C00000221A61094B0C225A61084B00229A61C3
:1023D000064B0022DA61054803F0BFFA0346002BE2
:1023E00001D000F073F800BF80BD00BFB402002030
:1023F0000038014080B588B000AF07F1100300221B
:102400001A605A609A60DA602D4B9B692C4A43F03F
:10241000100393612A4B9B6903F01003FB60FB6878
:10242000274B9B69264A43F004039361244B9B6925
:1024300003F00403BB60BB68214B9B69204A43F057
:10244000080393611E4B9B6903F008037B607B6864
:1024500000224FF400511B4801F07BF800221821A4
:10246000194801F076F84FF400533B6101237B617A
:102470000023BB610223FB6107F1100319461148D9
:1024800000F0CCFE04233B6100237B610023BB6191
:1024900007F1100319460C4800F0C0FE18233B61F9
:1024A00001237B610023BB610223FB6107F1100361
:1024B0001946054800F0B2FE00BF2037BD4680BD7A
:1024C00000100240001001400008014080B400AF3D
:1024D00072B600BFFEE7000080B584B000AF786040
:1024E00007F10C0300221946786802F039F807F169
:1024F000080300221946786802F0C0F93B7B1946B0
:102500007B7B1A46BB7B0748FEF708FC064B002284
:102510001A70FFF7BFFD00F053FB00BF1037BD4638
:1025200080BD00BF94750008E101002080B485B033
:1025300000AF154B9B69144A43F001039361124BA2
:102540009B6903F00103BB60BB680F4BDB690E4A5C
:1025500043F08053D3610C4BDB6903F080537B6005
:102560007B680A4B5B68FB60FB6823F0E063FB6001
:10257000FB6843F08063FB60044AFB68536000BF64
:102580001437BD4680BC7047001002400000014077
:1025900080B58AB000AF786007F1180300221A6096
:1025A0005A609A60DA607B681B68284A934222D19D
:1025B000274B9B69264A43F400739361244B9B6924
:1025C00003F400737B617B69214B9B69204A43F0D4
:1025D000040393611E4B9B6903F004033B613B6959
:1025E0000123BB610323FB6107F118031946194856
:1025F00000F014FE26E07B681B68174A934221D145
:10260000134B9B69124A43F480639361104B9B699F
:1026100003F48063FB60FB680D4B9B690C4A43F03D
:10262000040393610A4B9B6903F00403BB60BB681E
:102630000223BB610323FB6107F118031946054818
:1026400000F0ECFD00BF2837BD4680BD00240140EE
:1026500000100240000801400028014080B588B009
:1026600000AF786007F1100300221A605A609A6088
:10267000DA607B681B68154A934223D1144B9B692F
:10268000134A43F008039361114B9B6903F008035D
:10269000FB60FB68C0233B6112237B610323FB616A
:1026A00007F1100319460B4800F0B8FD084BDB6931
:1026B000074A43F40013D361054BDB6903F40013AD
:1026C000BB60BB6800BF2037BD4680BD00540040E2
:1026D00000100240000C014080B584B000AF78606B
:1026E0007B681B680F4A934218D101F08FF80E4B9C
:1026F000DB690D4A43F00063D3610B4BDB6903F0E8
:102700000063FB60FB68094B01221A600022002174
:10271000292000F04CFD292000F065FD00BF103796
:10272000BD4680BD00280040001002403C044242EB
:1027300080B588B000AF786007F1100300221A60FE
:102740005A609A60DA607B681B681B4A93422FD1FB
:102750001A4B9B69194A43F480539361174B9B6949
:1027600003F48053FB60FB68144B9B69134A43F0EE
:1027700004039361114B9B6903F00403BB60BB68C6
:10278000A0233B6102237B610323FB6107F110035C
:1027900019460B4800F042FD40233B6100237B615A
:1027A0000023BB6107F110031946054800F036FD10
:1027B00000BF2037BD4680BD003001400010024000
:1027C0000008014080B588B000AF786007F11003C1
:1027D00000221A605A609A60DA607B681B681C4AA3
:1027E000934231D11B4B9B691A4A43F48043936156
:1027F000184B9B6903F48043FB60FB68154B9B6996
:10280000144A43F004039361124B9B6903F00403E1
:10281000BB60BB684FF400733B6102237B61032301
:10282000FB6107F1100319460B4800F0F7FC4FF469
:1028300080633B6100237B610023BB6107F11003D0
:102840001946054800F0EAFC00BF2037BD4680BDB0
:1028500000380140001002400008014080B400AF81
:10286000FEE780B400AFFEE780B400AFFEE780B4BF
:1028700000AFFEE780B400AFFEE780B400AF00BF5A
:10288000BD4680BC704780B400AF00BFBD4680BC71
:10289000704780B400AF00BFBD4680BC704780B5B4
:1028A00000AF00F03FF900BF80BD000080B500AF71
:1028B000024802F04FF900BF80BD00BFFC020020BB
:1028C00080B400AF01231846BD4680BC704780B578
:1028D00082B000AF7860396003F064FA03461622D4
:1028E0001A604FF0FF3318460837BD4680BD80B5EB
:1028F00082B000AF78604FF0FF317868FFF7E7FFF4
:10290000FEE780B586B000AFF860B9607A6000235A
:102910007B610AE0AFF300800146BB685A1CBA60D5
:10292000CAB21A707B6901337B617A697B689A420B
:10293000F0DB7B6818461837BD4680BD80B586B091
:1029400000AFF860B9607A6000237B6109E0BB6882
:102950005A1CBA601B781846AFF300807B690133BC
:102960007B617A697B689A42F1DB7B68184618378D
:10297000BD4680BD80B483B000AF78604FF0FF33B8
:1029800018460C37BD4680BC704780B483B000AF9A
:10299000786039603B684FF400525A600023184653
:1029A0000C37BD4680BC704780B483B000AF786000
:1029B000012318460C37BD4680BC704780B485B0F3
:1029C00000AFF860B9607A60002318461437BD463E
:1029D00080BC704780B586B000AF7860144A154B54
:1029E000D31A7B617B693B61134B1B68002B02D1BF
:1029F000114B124A1A60104B1A687B6813443A69EB
:102A00009A4207D203F0CEF903460C221A604FF027
:102A1000FF3309E0084B1B68FB60074B1A687B68B3
:102A20001344054A1360FB6818461837BD4680BD3D
:102A30000050002000040000E401002038050020C0
:102A400080B400AF00BFBD4680BC7047FFF7F8FF01
:102A50000B480C490C4A002302E0D458C4500433FC
:102A6000C4188C42F9D3094A094C002301E01360D1
:102A70000432A242FBD303F09BF9FFF749F87047F9
:102A8000000000207C0000206C77000880000020FF
:102A900038050020FEE7000080B500AF084B1B683A
:102AA000074A43F010031360032000F075FB0F206A
:102AB00000F008F8FFF73AFD0023184680BD00BF7C
:102AC0000020024080B582B000AF7860124B1A68D7
:102AD000124B1B7819464FF47A73B3FBF1F3B2FB38
:102AE000F3F3184600F08DFB0346002B01D00123C1
:102AF0000EE07B680F2B0AD8002279684FF0FF3078
:102B000000F055FB064A7B681360002300E00123B8
:102B100018460837BD4680BD0C0000201400002078
:102B20001000002080B400AF054B1B781A46054BFF
:102B30001B681344034A136000BFBD4680BC704746
:102B4000140000202405002080B400AF024B1B6855
:102B50001846BD4680BC70472405002080B584B06F
:102B600000AF7860FFF7F0FFB8607B68FB60FB6840
:102B7000B3F1FF3F05D00A4B1B781A46FB6813449C
:102B8000FB6000BFFFF7E0FF0246BB68D31AFA689C
:102B90009A42F7D800BF00BF1037BD4680BD00BFC6
:102BA0001400002080B400AF044B1B68034A23F0DC
:102BB0000203136000BFBD4680BC704710E000E018
:102BC00080B400AF044B1B68034A43F00203136058
:102BD00000BFBD4680BC704710E000E080B586B005
:102BE00000AF78600023FB7500233B610023BB60CE
:102BF0000023FB607B68002B01D10123BEE07B68D2
:102C00009B68002B7B689B6A002B09D17B680022A4
:102C1000DA627B68002283F824207868FFF7B8FC2A
:102C2000786800F0ABF90346FB757B689B6A03F09C
:102C30001003002B40F09980FB7D002B40F0958025
:102C40007B689B6A23F4885323F0020343F002025B
:102C50007B689A627B685A687B68DB691A437B6889
:102C60001B7B5B001343BA681343BB607B689B68A4
:102C7000B3F5807F03D07B689B68012B02D14FF4B2
:102C8000807300E000233A6913433B617B681B7D3E
:102C9000012B19D17B681B7B002B09D17B689B69B9
:102CA000013B5A033B69134343F400633B610BE070
:102CB0007B689B6A43F020027B689A627B68DB6AD0
:102CC00043F001027B68DA627B681B685B6823F46F
:102CD00069417B681B683A690A435A607B681B68D4
:102CE0009A68284B13407A681268B9680B4393605E
:102CF0007B689B68B3F5807F03D07B689B68012B62
:102D000004D17B681B69013B1B05FB607B681B686A
:102D1000DB6A23F470017B681B68FA680A43DA6295
:102D20007B681B689A68184B1340BA689A420BD1AB
:102D30007B680022DA627B689B6A23F0030343F01E
:102D400001027B689A6218E07B689B6A23F0120399
:102D500043F010027B689A627B68DB6A43F00102F1
:102D60007B68DA620123FB7507E07B689B6A43F0AE
:102D700010027B689A620123FB75FB7D18461837A9
:102D8000BD4680BDFDF7E1FFFE0E1FFF80B485B09C
:102D900000AF786039600023FB730023BB607B6861
:102DA00093F82430012B01D10223DCE07B6801225F
:102DB00083F824203B685B68062B1CD87B681B6863
:102DC000596B3B685A6813469B001344053B1F220E
:102DD00002FA03F3DB4319403B6818683B685A6802
:102DE00013469B001344053B00FA03F27B681B6803
:102DF0000A435A633CE03B685B680C2B1CD87B6839
:102E00001B68196B3B685A6813469B001344233BAD
:102E10001F2202FA03F3DB4319403B6818683B6842
:102E20005A6813469B001344233B00FA03F27B6865
:102E30001B680A431A631BE07B681B68D96A3B68FE
:102E40005A6813469B001344413B1F2202FA03F3C6
:102E5000DB4319403B6818683B685A6813469B007F
:102E60001344413B00FA03F27B681B680A43DA62B1
:102E70003B681B68092B1CD97B681B68D9683B68B9
:102E80001A6813465B0013441E3B072202FA03F341
:102E9000DB4319403B6898683B681A6813465B003F
:102EA00013441E3B00FA03F27B681B680A43DA6096
:102EB00019E07B681B6819693B681A6813465B0058
:102EC0001344072202FA03F3DB4319403B68986876
:102ED0003B681A6813465B00134400FA03F27B68F0
:102EE0001B680A431A613B681B68102B03D03B68C0
:102EF0001B68112B32D17B681B681D4A934225D178
:102F00007B681B689B6803F40003002B26D17B6859
:102F10001B689A687B681B6842F400029A603B68F1
:102F20001B68102B1AD1134B1B68134AA2FB0323F7
:102F30009A0C13469B0013445B00BB6002E0BB6825
:102F4000013BBB60BB68002BF9D107E07B689B6A43
:102F500043F020027B689A620123FB737B680022A6
:102F600083F82420FB7B18461437BD4680BC70478D
:102F7000002401400C00002083DE1B4380B584B098
:102F800000AF78600023FB607B681B689B6803F0E0
:102F90000103012B2ED17B681B689A687B681B6834
:102FA00022F001029A60FFF7CFFDF8601BE0FFF707
:102FB000CBFD0246FB68D31A022B14D97B681B6831
:102FC0009B6803F00103012B0DD17B689B6A43F0E2
:102FD00010027B689A627B68DB6A43F001027B68BF
:102FE000DA62012307E07B681B689B6803F001033A
:102FF000012BDCD0002318461037BD4680BD0000F1
:1030000080B485B000AF78607B6803F00703FB6095
:103010000C4BDB68BB60BA684FF6FF031340BB6024
:10302000FB681A02BB68134343F0BF6343F40033E9
:10303000BB60044ABB68D36000BF1437BD4680BC88
:10304000704700BF00ED00E080B400AF044BDB68C8
:103050001B0A03F007031846BD4680BC704700BF3B
:1030600000ED00E080B483B000AF0346FB7197F938
:103070000730002B0BDBFB7903F01F02064997F9A1
:1030800007305B09012000FA02F241F8232000BF5B
:103090000C37BD4680BC704700E100E080B483B0CF
:1030A00000AF03463960FB7197F90730002B0ADB4C
:1030B0003B68DAB20C4997F907301201D2B20B44DF
:1030C00083F800230AE03B68DAB20849FB7903F091
:1030D0000F03043B1201D2B20B441A7600BF0C3727
:1030E000BD4680BC704700BF00E100E000ED00E09D
:1030F00080B489B000AFF860B9607A60FB6803F013
:103100000703FB61FB69C3F10703042B28BF0423FA
:10311000BB61FB690433062B02D9FB69033B00E06A
:1031200000237B614FF0FF32BB6902FA03F3DA43FD
:10313000BB681A407B699A404FF0FF317B6901FA06
:1031400003F3D9437B680B40134318462437BD462D
:1031500080BC704780B582B000AF78607B68013B6F
:10316000B3F1807F01D301230FE00A4A7B68013B62
:1031700053600F214FF0FF30FFF790FF054B002207
:103180009A60044B07221A60002318460837BD4690
:1031900080BD00BF10E000E080B582B000AF786075
:1031A0007868FFF72DFF00BF0837BD4680BD80B5AA
:1031B00086B000AF0346B9607A60FB7300237B6181
:1031C000FFF742FF78617A68B9687869FFF790FF86
:1031D000024697F90F3011461846FFF75FFF00BF10
:1031E0001837BD4680BD80B582B000AF0346FB7185
:1031F00097F907301846FFF735FF00BF0837BD467F
:1032000080BD80B582B000AF78607868FFF7A2FF1C
:10321000034618460837BD4680BD000080B48BB019
:1032200000AF7860396000237B6200233B6269E174
:1032300001227B6A02FA03F3FB613B681B68FA69AF
:103240001340BB61BA69FB699A4240F058813B6800
:103250005B689A4A93425ED0984A934275D8984ADE
:10326000934258D0964A93426FD8964A934252D08E
:10327000944A934269D8944A93424CD0924A9342DA
:1032800063D8924A934246D0904A93425DD8122B1B
:103290002AD8122B59D801A252F823F0173300086C
:1032A000F132000803330008453300084B330008AF
:1032B0004B3300084B3300084B3300084B330008F6
:1032C0004B3300084B3300084B3300084B330008E6
:1032D0004B3300084B3300084B3300084B330008D6
:1032E000F93200080D330008794A934213D02CE0DC
:1032F0003B68DB683B6229E03B68DB6804333B6288
:1033000024E03B68DB6808333B621FE03B68DB6816
:103310000C333B621AE03B689B68002B02D104230C
:103320003B6213E03B689B68012B05D108233B629D
:103330007B68FA691A6109E008233B627B68FA69D5
:103340005A6103E000233B6200E000BFBB69FF2B32
:1033500001D87B6801E07B6804337B61BB69FF2B8C
:1033600002D87B6A9B0002E07B6A083B9B003B61C2
:103370007B691A680F213B6901FA03F3DB431A40AA
:10338000396A3B6901FA03F31A437B691A603B68A7
:103390005B6803F08053002B00F0B1804D4B9B69BC
:1033A0004C4A43F0010393614A4B9B6903F00103CC
:1033B000BB60BB68484A7B6A9B08023352F82330E3
:1033C000FB607B6A03F003039B000F2202FA03F306
:1033D000DB43FA681340FB607B68404A934213D09A
:1033E0007B683F4A93420DD07B683E4A934207D0A8
:1033F0007B683D4A934201D1032306E0042304E0A5
:10340000022302E0012300E000237A6A02F00302B3
:1034100092009340FA681343FB602F497B6A9B0834
:103420000233FA6841F823203B685B6803F4801399
:10343000002B06D02D4B9A682C49BB6913438B6037
:1034400006E02A4B9A68BB69DB43284913408B602E
:103450003B685B6803F40013002B06D0234BDA684B
:103460002249BB691343CB6006E0204BDA68BB6995
:10347000DB431E491340CB603B685B6803F40033B9
:10348000002B06D0194B5A681849BB6913434B608F
:1034900006E0164B5A68BB69DB43144913404B6086
:1034A0003B685B6803F48033002B21D00F4B1A6814
:1034B0000E49BB6913430B6021E000BF00003210CE
:1034C0000000311000002210000021100000121036
:1034D00000001110001002400000014000080140EF
:1034E000000C0140001001400014014000040140A4
:1034F0000B4B1A68BB69DB43094913400B607B6ABD
:1035000001337B623B681A687B6A22FA03F3002B63
:103510007FF48EAE00BF00BF2C37BD4680BC704725
:103520000004014080B485B000AF78600B467B801A
:103530007B689A687B881340002B02D00123FB73C1
:1035400001E00023FB73FB7B18461437BD4680BCAB
:10355000704780B483B000AF78600B467B80134621
:103560007B707B78002B03D07A887B681A6103E03C
:103570007B881A047B681A6100BF0C37BD4680BC8B
:103580007047000080B584B000AF78607B68002B86
:1035900001D101232BE17B6893F83D30DBB2002B96
:1035A00006D17B68002283F83C207868FFF756F844
:1035B0007B68242283F83D207B681B681A687B683F
:1035C0001B6822F001021A607B681B681A687B681E
:1035D0001B6842F400421A607B681B681A687B68AB
:1035E0001B6822F400421A6000F0E4FCF8607B687B
:1035F0005B68814A934207D8FB68804A934294BF34
:1036000001230023DBB206E0FB687D4A934294BFAE
:1036100001230023DBB2002B01D00123E7E0FB688C
:10362000784AA2FB03239B0CBB607B681B685B682A
:1036300023F03F017B681B68BA680A435A607B68C5
:103640001B681B6A23F03F017B685B686A4A9342F0
:1036500002D8BB68013309E0BB684FF4967202FBE5
:1036600003F3694AA2FB03239B0901337A681268BA
:103670000B4313627B681B68DB6923F44F4222F023
:10368000FF027B685B685C498B4219D8FB68591E56
:103690007B685B685B00B1FBF3F3591C40F6FC737D
:1036A0000B40002B0AD0FB68591E7B685B685B00EF
:1036B000B1FBF3F30133C3F30B0351E004234FE0F9
:1036C0007B689B68002B11D1FB68581E7B6859688A
:1036D0000B465B000B44B0FBF3F30133C3F30B0366
:1036E000002B0CBF01230023DBB212E0FB68581E45
:1036F0007B6859680B469B000B4499000B44B0FB58
:10370000F3F30133C3F30B03002B0CBF012300239E
:10371000DBB2002B01D0012322E07B689B68002BE9
:103720000ED1FB68581E7B6859680B465B000B4442
:10373000B0FBF3F30133C3F30B0343F400430FE097
:10374000FB68581E7B6859680B469B000B44990028
:103750000B44B0FBF3F30133C3F30B0343F44043D7
:10376000796809681343CB617B681B681B6823F089
:10377000C0017B68DA697B681B6A1A437B681B6837
:103780000A431A607B681B689B6823F4034323F099
:10379000FF037A6811697A68D26811437A681268FF
:1037A0000B4393607B681B68DB6823F0FF017B6839
:1037B0005A697B689B691A437B681B680A43DA6015
:1037C0007B681B681A687B681B6842F001021A60FC
:1037D0007B6800221A647B68202283F83D207B6886
:1037E00000221A637B68002283F83E2000231846DB
:1037F0001037BD4680BD00BFA08601007F841E003B
:10380000FF083D0083DE1B43D34D621080B400AF40
:10381000034B01221A6000BFBD4680BC704700BF49
:1038200020000E4280B586B000AF78607B68002B28
:1038300001D101236CE27B681B6803F00103002BBC
:1038400000F08780924B5B6803F00C03042B0CD0D4
:103850008F4B5B6803F00C03082B12D18C4B5B6819
:1038600003F48033B3F5803F0BD1894B1B6803F41D
:103870000033002B6CD07B685B68002B68D1012380
:1038800046E27B685B68B3F5803F06D1804B1B68DE
:103890007F4A43F4803313602EE07B685B68002B23
:1038A0000CD17B4B1B687A4A23F480331360784B2E
:1038B0001B68774A23F4802313601DE07B685B68F4
:1038C000B3F5A02F0CD1724B1B68714A43F48023CF
:1038D00013606F4B1B686E4A43F4803313600BE038
:1038E0006B4B1B686A4A23F480331360684B1B6878
:1038F000674A23F4802313607B685B68002B13D036
:10390000FFF722F9386108E0FFF71EF902463B692C
:10391000D31A642B01D90323FAE15D4B1B6803F42E
:103920000033002BF0D014E0FFF70EF9386108E007
:10393000FFF70AF902463B69D31A642B01D9032326
:10394000E6E1534B1B6803F40033002BF0D100E099
:1039500000BF7B681B6803F00203002B63D04C4B55
:103960005B6803F00C03002B0BD0494B5B6803F042
:103970000C03082B1CD1464B5B6803F48033002BEF
:1039800016D1434B1B6803F00203002B05D07B6864
:103990001B69012B01D00123BAE13D4B1B6823F0C9
:1039A000F8027B685B69DB00394913430B603AE03E
:1039B0007B681B69002B20D0364B01221A60FFF771
:1039C000C3F8386108E0FFF7BFF802463B69D31A35
:1039D000022B01D903239BE12D4B1B6803F002034B
:1039E000002BF0D02A4B1B6823F0F8027B685B6940
:1039F000DB00274913430B6015E0264B00221A60B9
:103A0000FFF7A2F8386108E0FFF79EF802463B692D
:103A1000D31A022B01D903237AE11D4B1B6803F053
:103A20000203002BF0D17B681B6803F00803002B16
:103A30003AD07B689B69002B19D0174B01221A6082
:103A4000FFF782F8386108E0FFF77EF802463B692D
:103A5000D31A022B01D903235AE10D4B5B6A03F001
:103A60000203002BF0D0012000F0CCFA1CE00A4B3E
:103A700000221A60FFF768F838610FE0FFF764F87A
:103A800002463B69D31A022B08D9032340E100BF49
:103A90000010024000004242800442429E4B5B6A9A
:103AA00003F00203002BE9D17B681B6803F00403D9
:103AB000002B00F0A6800023FB75974BDB6903F019
:103AC0008053002B0DD1944BDB69934A43F0805314
:103AD000D361914BDB6903F08053BB60BB6801236A
:103AE000FB758E4B1B6803F48073002B18D18B4B36
:103AF0001B688A4A43F480731360FFF725F8386126
:103B000008E0FFF721F802463B69D31A642B01D97C
:103B10000323FDE0814B1B6803F48073002BF0D07E
:103B20007B68DB68012B06D17B4B1B6A7A4A43F02A
:103B3000010313622DE07B68DB68002B0CD1764B10
:103B40001B6A754A23F001031362734B1B6A724AA6
:103B500023F0040313621CE07B68DB68052B0CD1A7
:103B60006D4B1B6A6C4A43F0040313626A4B1B6A79
:103B7000694A43F0010313620BE0674B1B6A664A14
:103B800023F001031362644B1B6A634A23F00403AE
:103B900013627B68DB68002B15D0FEF7D5FF386118
:103BA0000AE0FEF7D1FF02463B69D31A41F28832A0
:103BB000934201D90323ABE0574B1B6A03F0020386
:103BC000002BEED014E0FEF7BFFF38610AE0FEF7ED
:103BD000BBFF02463B69D31A41F28832934201D9B6
:103BE000032395E04C4B1B6A03F00203002BEED13C
:103BF000FB7D012B05D1484BDB69474A23F08053FD
:103C0000D3617B68DB69002B00F08180424B5B68ED
:103C100003F00C03082B61D07B68DB69022B46D1D3
:103C20003F4B00221A60FEF78FFF386108E0FEF775
:103C30008BFF02463B69D31A022B01D9032367E0AD
:103C4000354B1B6803F00073002BF0D17B681B6AB7
:103C5000B3F5803F08D1304B5B6823F400327B68BA
:103C60009B682D4913434B602B4B5B6823F4741204
:103C70007B68196A7B685B6A0B43274913434B6077
:103C8000274B01221A60FEF75FFF386108E0FEF75C
:103C90005BFF02463B69D31A022B01D9032337E0AD
:103CA0001D4B1B6803F00073002BF0D02FE01C4B62
:103CB00000221A60FEF748FF386108E0FEF744FF73
:103CC00002463B69D31A022B01D9032320E0124B91
:103CD0001B6803F00073002BF0D118E07B68DB69F0
:103CE000012B01D1012313E00B4B5B68FB60FB68E8
:103CF00003F480327B681B6A9A4206D1FB6803F4A6
:103D000070127B685B6A9A4201D0012300E00023B5
:103D100018461837BD4680BD0010024000700040B4
:103D20006000424280B584B000AF786039607B6843
:103D3000002B01D10123D0E06A4B1B6803F007037D
:103D40003A689A4210D9674B1B6823F0070265490D
:103D50003B6813430B60634B1B6803F007033A682F
:103D60009A4201D00123B8E07B681B6803F002038C
:103D7000002B20D07B681B6803F00403002B05D0C8
:103D8000594B5B68584A43F4E06353607B681B6897
:103D900003F00803002B05D0534B5B68524A43F4F1
:103DA00060535360504B5B6823F0F0027B689B6864
:103DB0004D4913434B607B681B6803F00103002BE4
:103DC00040D07B685B68012B07D1474B1B6803F42D
:103DD0000033002B15D101237FE07B685B68022B49
:103DE00007D1414B1B6803F00073002B09D101235D
:103DF00073E03D4B1B6803F00203002B01D101234C
:103E00006BE0394B5B6823F003027B685B683649E3
:103E100013434B60FEF798FEF8600AE0FEF794FE4D
:103E20000246FB68D31A41F28832934201D9032338
:103E300053E02D4B5B6803F00C027B685B689B00D2
:103E40009A42EBD1274B1B6803F007033A689A426A
:103E500010D2244B1B6823F0070222493B6813430E
:103E60000B60204B1B6803F007033A689A4201D0AD
:103E7000012332E07B681B6803F00403002B08D0A9
:103E8000194B5B6823F4E0627B68DB6816491343D7
:103E90004B607B681B6803F00803002B09D0124BB2
:103EA0005B6823F460527B681B69DB000E49134397
:103EB0004B6000F021F802460B4B5B681B0903F0D6
:103EC0000F030A49CB5C22FA03F3094A1360094B3A
:103ED0001B681846FEF7F6FD002318461037BD464E
:103EE00080BD00BF0020024000100240D0750008D5
:103EF0000C0000201000002080B487B000AF002329
:103F0000FB600023BB6000237B6100237B600023F8
:103F10003B611E4B5B68FB60FB6803F00C03042BEA
:103F200002D0082B03D027E0194B3B6127E0FB6848
:103F30009B0C03F00F03174AD35C7B60FB6803F410
:103F40008033002B10D0114B5B685B0C03F0010336
:103F5000114AD35CBB607B680D4A02FB03F2BB686D
:103F6000B2FBF3F37B6104E07B680C4A02FB03F3D2
:103F70007B617B693B6102E0054B3B6100BF3B69B4
:103F800018461C37BD4680BC704700BF0010024079
:103F900000127A00E8750008F875000800093D0075
:103FA00080B400AF024B1B681846BD4680BC70470A
:103FB0000C00002080B500AFFFF7F2FF0246054B72
:103FC0005B681B0A03F007030349CB5C22FA03F387
:103FD000184680BD00100240E075000880B500AFB3
:103FE000FFF7DEFF0246054B5B68DB0A03F00703C1
:103FF0000349CB5C22FA03F3184680BD001002404F
:10400000E075000880B485B000AF78600A4B1B688B
:104010000A4AA2FB03235B0A7A6802FB03F3FB60F4
:1040200000BFFB685A1EFA60002BF9D100BF00BF29
:104030001437BD4680BC70470C000020D34D621081
:1040400080B586B000AF786000233B610023FB6041
:104050007B681B6803F00103002B7DD00023FB75F8
:104060004F4BDB6903F08053002B0DD14C4BDB69C8
:104070004B4A43F08053D361494BDB6903F08053D3
:10408000BB60BB680123FB75464B1B6803F4807360
:10409000002B18D1434B1B68424A43F480731360D2
:1040A000FEF752FD386108E0FEF74EFD02463B691F
:1040B000D31A642B01D903236DE03A4B1B6803F438
:1040C0008073002BF0D0364B1B6A03F44073FB6007
:1040D000FB68002B2ED07B685B6803F44073FA68A2
:1040E0009A4227D02E4B1B6A23F44073FB602E4B61
:1040F00001221A602C4B00221A60294AFB681362C5
:10410000FB6803F00103002B14D0FEF71DFD38619E
:104110000AE0FEF719FD02463B69D31A41F28832E4
:10412000934201D9032336E01D4B1B6A03F00203BF
:10413000002BEED01A4B1B6A23F440727B685B683D
:10414000174913430B62FB7D012B05D1144BDB692F
:10415000134A23F08053D3617B681B6803F002038A
:10416000002B08D00E4B5B6823F440427B689B68B1
:104170000B4913434B607B681B6803F01003002B53
:1041800008D0074B5B6823F480027B68DB68044936
:1041900013434B60002318461837BD4680BD00BF4F
:1041A00000100240007000404004424280B588B0D8
:1041B00000AF786000237B610023FB6100233B613B
:1041C0000023FB600023BB617B68102B0AD07B6857
:1041D000102B00F28A807B68012B45D07B68022B74
:1041E00075D082E0464B5B68FB60454B1B6803F073
:1041F0008073002B7BD0FB689B0C03F00F03414ABC
:10420000D35C3B61FB6803F48033002B15D03C4B3F
:104210005B685B0C03F001033B4AD35C7B61FB688A
:1042200003F48033002B0DD0384A7B69B2FBF3F2E4
:104230003B6902FB03F3FB6104E03B69344A02FB88
:1042400003F3FB612E4B5B6803F48003B3F5800F2F
:1042500002D1FB69BB614AE0FB695B002D4AA2FB0E
:1042600003235B08BB6142E0254B1B6AFB60FB68D4
:1042700003F44073B3F5807F08D1FB6803F00203B9
:10428000002B03D04FF40043BB611FE0FB6803F435
:104290004073B3F5007F09D1194B5B6A03F0020349
:1042A000002B03D049F64043BB610FE0FB6803F4E9
:1042B0004073B3F5407F1CD1114B1B6803F40033EE
:1042C000002B16D04FF22443BB6112E011E0FFF740
:1042D00085FE02460A4B5B689B0B03F00303013328
:1042E0005B00B2FBF3F3BB6104E000BF02E000BF80
:1042F00000E000BFBB6918462037BD4680BD00BF47
:1043000000100240FC7500080C76000800127A00CC
:1043100000093D00ABAAAAAA80B584B000AF7860BE
:104320000023FB607B68002B01D101237AE07B68CE
:104330005B7CDBB2002B05D17B6800221A747868A5
:10434000FEF7CAF97B6802225A74786800F02CFCE8
:104350000346002B04D07B6804225A74012361E0D9
:10436000786800F0E5FC0346002B04D07B6804224B
:104370005A74012356E07B681B685A687B681B6887
:1043800022F007025A607B689B68002B05D0274B00
:104390001B6B264A23F001031363244BDB6A23F4CF
:1043A00060727B689B6821491343CB627B685B68C2
:1043B000B3F1FF3F03D07B685B68FB600EE0012038
:1043C000FFF7F4FEF860FB68002B04D17B68042241
:1043D0005A74012326E0FB68013BFB60FB681A0C62
:1043E0007B681B6802F00F029A607B681B68FA68A2
:1043F00092B2DA60786800F0C3FC0346002B04D068
:104400007B6804225A7401230CE07B680022DA7373
:104410007B6801225A737B6801229A737B680122B0
:104420005A74002318461037BD4680BD006C00400A
:1044300090B587B000AFF860B9607A6000237B6107
:1044400000233B61FB68002B02D0BB68002B01D12D
:10445000012380E0FB681B7C012B01D102237AE061
:10446000FB6801221A74FB6802225A747B68002BD5
:1044700013D1BB681B781A464FF4616303FB02F249
:10448000BB685B7819460B461B015B1A9B00134403
:10449000BA68927813447B611EE0BB681B781846AB
:1044A00000F0B3FC03461A464FF4616303FB02F4C9
:1044B000BB685B78184600F0A8FC03461A46134612
:1044C0001B019B1A9B001C44BB689B78184600F09C
:1044D0009CFC034623447B617969F86800F0C1FBCA
:1044E0000346002B07D0FB6804225A74FB680022A5
:1044F0001A7401232FE0FB681B685A68FB681B686D
:1045000022F005025A60F86800F0D2FB38613B697E
:10451000B3F1FF3F18D03A697B699A4214D23B69E4
:1045200003F5A83303F5C0733B613969F86800F0FF
:10453000D8FB0346002B07D0FB6804225A74FB68A3
:1045400000221A74012306E0FB6801225A74FB68FA
:1045500000221A74002318461C37BD4690BD000087
:1045600080B588B000AFF860B9607A600023BB61A5
:104570000023FB6100237B6100233B61FB68002B70
:1045800002D0BB68002B01D10123B5E0FB681B689A
:104590005B6803F00403002B01D00123ACE0F86852
:1045A00000F02FFBB861BB69554AA2FB0323DB0A6D
:1045B0003B61BA69524BA3FB0213DB0A4FF4616102
:1045C00001FB03F3D31A4F4AA2FB03235B09DAB2C0
:1045D000BB685A70BB694A4AA2FB0312D20A4FF465
:1045E000616101FB02F29A1A464BA3FB02135909BF
:1045F0000B461B015B1A9B00D11ACAB2BB689A70AA
:104600003B69172B55D93B693F4AA2FB03231B0982
:104610007B6139693C4BA3FB01231A0913465B00FC
:104620001344DB00CA1AD2B2BB681A70F86800F0F3
:104630003FFBF861FB69B3F1FF3F08D0FA69BB6942
:104640009A4204D9FA69BB69D31AFB6102E04FF0C0
:10465000FF33FB617B692D4A02FB03F3BA69D31A6E
:10466000BB61B969F86800F0FCFA0346002B01D081
:10467000012341E0FB69B3F1FF3F0CD0FA69BB694C
:104680001344FB61F969F86800F02BFB0346002B2B
:104690000AD0012330E0F969F86800F022FB0346F4
:1046A000002B01D0012327E07969F86800F0CAFBEC
:1046B00003E03B69DAB2BB681A707B68002B1AD042
:1046C000BB681B78184600F083FB03461A46BB689C
:1046D0001A70BB685B78184600F07AFB03461A46EE
:1046E000BB685A70BB689B78184600F071FB0346A4
:1046F0001A46BB689A70002318462037BD4680BD15
:10470000C5B3A29189888888ABAAAAAA8051010062
:1047100080B588B000AFF860B9607A600023FB61B3
:104720000023BB6100237B61FB68002B02D0BB68C8
:10473000002B01D1012397E0FB681B7C012B01D1E9
:10474000022391E0FB6801221A74FB6802225A746A
:104750007B68002B0CD1BB68DA78FB68DA73BB6826
:104760005A78FB685A73BB689A78FB689A731AE0A8
:10477000BB68DB78184600F048FB03461A46FB6826
:10478000DA73BB685B78184600F03FFB03461A46B5
:10479000FB685A73BB689B78184600F036FB0346EB
:1047A0001A46FB689A73FB68DB7B1846FB68597BEB
:1047B000FB689B7B1A4600F021FC03461A46FB6807
:1047C0001A73FB681A7BBB681A70F86800F019FA54
:1047D000F861FB69264AA2FB0323DB0A7B617B6944
:1047E000182B3AD97B69234AA2FB03231B09224ACF
:1047F00002FB03F3FA69D31AFB61F969F86800F068
:1048000030FA0346002B07D0FB6804225A74FB6879
:1048100000221A74012327E0F86800F049FAB86111
:10482000BB69B3F1FF3F18D0BA69FB699A4214D251
:10483000BB6903F5A83303F5C073BB61B969F868B8
:1048400000F04FFA0346002B07D0FB6804225A748D
:10485000FB6800221A74012306E0FB6801225A74E7
:10486000FB6800221A74002318462037BD4680BD1D
:10487000C5B3A291ABAAAAAA8051010080B586B0A7
:1048800000AFF860B9607A6007F1140300210A46AE
:104890001A800A469A70FB68002B02D0BB68002B76
:1048A00001D101233AE007F1140300221946F86808
:1048B000FFF756FE0346002B01D001232EE0FB68D4
:1048C0001A7BBB681A70FB68DA7BBB68DA70FB681E
:1048D0005A7BBB685A70FB689A7BBB689A707B688E
:1048E000002B1AD0BB68DB78184600F071FA03463B
:1048F0001A46BB68DA70BB685B78184600F068FA45
:1049000003461A46BB685A70BB689B78184600F08D
:104910005FFA03461A46BB689A7000231846183798
:10492000BD4680BD90B589B000AFF860B9607A60CF
:104930000023FB6107F1140300210A461A800A468E
:104940009A70FB68002B02D0BB68002B01D10123B9
:1049500099E0FB681B7C012B01D1022393E0FB68EB
:1049600001221A74FB6802225A7407F11403002210
:104970001946F868FFF7F4FD0346002B01D0012328
:1049800081E03B7D1A464FF4616303FB02F27B7DBD
:1049900019460B461B015B1A9B001344BA7D134456
:1049A000BB617B68002B13D1BB681B781A464FF4A0
:1049B000616303FB02F2BB685B7819460B461B017F
:1049C0005B1A9B001344BA6892781344FB611EE0A3
:1049D000BB681B78184600F018FA03461A464FF4D5
:1049E000616303FB02F4BB685B78184600F00DFAC4
:1049F00003461A4613461B019B1A9B001C44BB68C6
:104A00009B78184600F001FA03462344FB61FA69DB
:104A1000BB699A4205D2FB6903F5A83303F5C0735D
:104A2000FB61F969F86800F05CF90346002B07D0D8
:104A3000FB6804225A74FB6800221A74012322E0E6
:104A4000FB681B685A68FB681B6822F002025A6008
:104A5000FB681B681A68FB681B6842F002021A6058
:104A60000B4B1B680A4A43F400331360084B9B68E6
:104A7000074A43F400339360FB6801225A74FB68D1
:104A800000221A74002318462437BD4690BD00BF8B
:104A90000004014080B582B000AF786039607B6867
:104AA000002B01D101234EE07B681B7C012B01D13F
:104AB000022348E07B6801221A747B6802225A7440
:104AC0007B681B681A687B681B6822F002021A6008
:104AD000786800F02DF90346002B07D07B6804228C
:104AE0005A747B6800221A7401232CE07B681B68CF
:104AF0005A687B681B6822F002025A607B681B6858
:104B00004FF6FF721A627B681B684FF6FF725A629B
:104B10000F4B1B680E4A23F400331360786800F0D3
:104B20002FF90346002B07D07B6804225A747B6858
:104B300000221A74012306E07B6801225A747B6804
:104B400000221A74002318460837BD4680BD00BFF6
:104B50000004014080B582B000AF78607B681B68BC
:104B60001B6803F00203002B11D07B681B685B6895
:104B700003F00203002B0AD07868FDF7ADFC7B68D8
:104B80001B685A687B681B6822F002025A60054B5A
:104B90004FF400325A617B6801225A7400BF083713
:104BA000BD4680BD0004014080B584B000AF786090
:104BB0000023FB607B68002B01D101231DE07B6893
:104BC0001B685A687B681B6822F008025A60FDF770
:104BD000BBFFF86009E0FDF7B7FF0246FB68D31A98
:104BE000B3F57A7F01D9032307E07B681B685B6814
:104BF00003F00803002BEED0002318461037BD4603
:104C000080BD80B487B000AF786000237B82002332
:104C10003B820023FB8100237B617B681B689B69CF
:104C20007B827B681B68DB69FB817B681B689B69F7
:104C30003B827A8A3B8A9A4208D03B8A1A047B6874
:104C40001B68DB699BB213437B6104E07B8A1A0417
:104C5000FB8913437B617B6918461C37BD4680BCCA
:104C6000704780B584B000AF786039600023FB7373
:104C7000786800F05DF80346002B02D00123FB7337
:104C800011E07B681B683A68120C9A617B681B68AC
:104C90003A6892B2DA61786800F072F80346002B45
:104CA00001D00123FB73FB7B18461037BD4680BD46
:104CB00080B485B000AF78600023FB810023BB8106
:104CC0007B681B681B6AFB817B681B685B6ABB8116
:104CD000FB891A04BB89134318461437BD4680BCB0
:104CE000704780B584B000AF786039600023FB73F3
:104CF000786800F01DF80346002B02D00123FB73F7
:104D000011E07B681B683A68120C1A627B681B68AA
:104D10003A6892B25A62786800F032F80346002B83
:104D200001D00123FB73FB7B18461037BD4680BDC5
:104D300080B584B000AF78600023FB60FDF704FF0E
:104D4000F86009E0FDF700FF0246FB68D31AB3F5EF
:104D50007A7F01D903230FE07B681B685B6803F04F
:104D60002003002BEED07B681B685A687B681B68A9
:104D700042F010025A60002318461037BD4680BD2D
:104D800080B584B000AF78600023FB607B681B684F
:104D90005A687B681B6822F010025A60FDF7D4FE47
:104DA000F86009E0FDF7D0FE0246FB68D31AB3F5C0
:104DB0007A7F01D9032307E07B681B685B6803F0F7
:104DC0002003002BEED0002318461037BD4680BDCF
:104DD00080B485B000AF0346FB710023FB6005E0A3
:104DE000FB680133FB60FB790A3BFB71FB79092B04
:104DF000F6D8FB68DBB21B01DAB2FB791343DBB2F6
:104E000018461437BD4680BC704780B485B000AFEB
:104E10000346FB710023FB60FB791B09DBB21A46DA
:104E200013469B0013445B00FB60FB7903F00F0308
:104E3000DAB2FB68DBB21344DBB218461437BD4666
:104E400080BC704780B586B000AF786039600023C1
:104E50007B6100233B610023FB600023BB607B6818
:104E6000DB7B7B617B685B7B3B617B689B7BFB6067
:104E70000023BB606FE03B69012B11D03B69032B22
:104E80000ED03B69052B0BD03B69072B08D03B6943
:104E9000082B05D03B690A2B02D03B690C2B17D19C
:104EA000FB681E2B03D8FB680133FB6050E03B69B5
:104EB0000C2B05D03B6901333B610123FB6047E0CC
:104EC00001233B610123FB607B6901337B613FE090
:104ED0003B69042B08D03B69062B05D03B69092BA5
:104EE00002D03B690B2B0CD1FB681D2B03D8FB6850
:104EF0000133FB602CE03B6901333B610123FB6024
:104F000026E03B69022B23D1FB681B2B03D8FB68EF
:104F10000133FB601CE0FB681C2B11D17B699BB249
:104F2000184600F039F80346002B03D0FB68013324
:104F3000FB600DE03B6901333B610123FB6007E04F
:104F4000FB681D2B04D13B6901333B610123FB60EE
:104F5000BB680133BB60BA683B689A428BD37B69FC
:104F6000DAB27B68DA733B69DAB27B685A73FB6842
:104F7000DAB27B689A733B69DBB2FA68D2B219463F
:104F8000786900F03BF803461A467B681A7300BF45
:104F90001837BD4680BD000080B483B000AF034623
:104FA000FB80FB8803F003039BB2002B01D000239E
:104FB0001DE0FB88104AA2FB03125209642101FB89
:104FC00002F29B1A9BB2002B01D001230FE0FB8859
:104FD000094AA2FB0312D2094FF4C87101FB02F285
:104FE0009B1A9BB2002B01D1012300E0002318463D
:104FF0000C37BD4680BC70471F85EB5180B485B02F
:1050000000AF78600B46FB701346BB700023BB609B
:105010000023FB607B6803F5FA63BB60FB78022B1F
:105020002DD8FA7813465B001344DB009B1A2C4AF8
:10503000A2FB03235A08BB781A44BB681A44BB6816
:10504000013B9B081A44BB68013B2649A1FB0313A3
:105050005B09D21ABB68013B2249A1FB0313DB09A0
:1050600013441A1D204BA3FB0213D11A49080B4409
:1050700099080B46DB005B1AD31AFB6029E0FA782B
:1050800013465B001344DB009B1A154AA2FB032363
:105090005A08BB781A44BB681A44BB689B081A4478
:1050A000BB681049A1FB03135B09D21ABB680D4909
:1050B000A1FB0313DB0913449A1C0B4BA3FB021344
:1050C000D11A49080B4499080B46DB005B1AD31A26
:1050D000FB60FB68DBB218461437BD4680BC7047E6
:1050E000398EE3381F85EB512549922480B582B073
:1050F00000AF78607B68002B01D1012376E07B68EC
:105100005B6A002B08D17B685B68B3F5827F09D0AE
:105110007B680022DA6105E07B6800221A617B6807
:1051200000225A617B6800229A627B6893F85130B2
:10513000DBB2002B06D17B68002283F85020786810
:10514000FDF7F6FA7B68022283F851207B681B6822
:105150001A687B681B6822F040021A607B685B68F3
:1051600003F482727B689B6803F404431A437B68F0
:10517000DB6803F400631A437B681B6903F00203D6
:105180001A437B685B6903F001031A437B689B69E0
:1051900003F400731A437B68DB6903F038031A4396
:1051A0007B681B6A03F0800342EA03017B689B6A09
:1051B00003F400527B681B680A431A607B689B6992
:1051C0001A0C7B681B6802F004025A607B681B683B
:1051D000DA697B681B6822F40062DA617B6800226E
:1051E0005A657B68012283F851200023184608374E
:1051F000BD4680BD80B588B000AFF860B9603B6047
:105200001346FB80FDF7A0FCF861FB887B83FB68FD
:1052100093F85130DBB2012B01D002232AE1BB68A5
:10522000002B02D0FB88002B01D1012322E1FB6877
:1052300093F85030012B01D102231BE1FB680122BE
:1052400083F85020FB68032283F85120FB6800227A
:105250005A65FB68BA681A63FB68FA889A86FB6825
:10526000FA88DA86FB6800229A63FB6800229A8734
:10527000FB680022DA87FB6800225A64FB68002280
:105280001A64FB689B68B3F5004F0FD1FB681B687D
:105290001A68FB681B6822F040021A60FB681B68F2
:1052A0001A68FB681B6842F480421A60FB681B683E
:1052B0001B6803F04003402B07D0FB681B681A688B
:1052C000FB681B6842F040021A60FB68DB68B3F5BC
:1052D000006F52D1FB685B68002B02D07B8B012BE7
:1052E00045D1FB681B6B1A88FB681B68DA60FB689A
:1052F0001B6B9A1CFB681A63FB68DB8E9BB2013B3D
:105300009AB2FB68DA8632E0FB681B689B6803F0A0
:105310000203022B12D1FB681B6B1A88FB681B6807
:10532000DA60FB681B6B9A1CFB681A63FB68DB8EF8
:105330009BB2013B9AB2FB68DA8618E0FDF704FCE9
:105340000246FB69D31A3A689A4203D83B68B3F124
:10535000FF3F02D13B68002B09D1FB68012283F893
:105360005120FB68002283F85020032382E0FB6871
:10537000DB8E9BB2002BC7D153E0FB685B68002B30
:1053800002D07B8B012B47D1FB681A6BFB681B6833
:105390000C3312781A70FB681B6B5A1CFB681A637B
:1053A000FB68DB8E9BB2013B9AB2FB68DA8633E086
:1053B000FB681B689B6803F00203022B13D1FB6898
:1053C0001A6BFB681B680C3312781A70FB681B6B36
:1053D0005A1CFB681A63FB68DB8E9BB2013B9AB2D6
:1053E000FB68DA8618E0FDF7AFFB0246FB69D31ACB
:1053F0003A689A4203D83B68B3F1FF3F02D13B6859
:10540000002B09D1FB68012283F85120FB680022A0
:1054100083F8502003232DE0FB68DB8E9BB2002B2A
:10542000C6D1FA693968F86800F066FA0346002BBD
:1054300002D0FB6820225A65FB689B68002B0AD1CA
:1054400000237B61FB681B68DB687B61FB681B6872
:105450009B687B617B69FB68012283F85120FB68B4
:10546000002283F85020FB685B6D002B01D00123E4
:1054700000E0002318462037BD4680BD80B58AB0C5
:1054800000AFF860B9607A607B8001237B62FDF732
:105490005BFB3862FB6893F85130FB77FB685B6815
:1054A000BB617B88FB82FB7F012B0CD0BB69B3F512
:1054B000827F06D1FB689B68002B02D1FB7F042B07
:1054C00001D002237FE1BB68002B05D07B68002B55
:1054D00002D07B88002B01D1012374E1FB6893F893
:1054E0005030012B01D102236DE1FB68012283F8CA
:1054F0005020FB6893F85130DBB2042B03D0FB68DB
:10550000052283F85120FB6800225A65FB687A68FF
:105510009A63FB687A88DA87FB687A889A87FB68DF
:10552000BA681A63FB687A88DA86FB687A889A8692
:10553000FB6800221A64FB6800225A64FB681B683F
:105540001B6803F04003402B07D0FB681B681A68F8
:10555000FB681B6842F040021A60FB68DB68B3F529
:10556000006F7ED1FB685B68002B02D0FB8A012BA9
:105570006CD1FB681B6B1A88FB681B68DA60FB68E0
:105580001B6B9A1CFB681A63FB68DB8E9BB2013BAA
:105590009AB2FB68DA8659E0FB681B689B6803F0E7
:1055A0000203022B1BD1FB68DB8E9BB2002B16D0B3
:1055B0007B6A012B13D1FB681B6B1A88FB681B6885
:1055C000DA60FB681B6B9A1CFB681A63FB68DB8E56
:1055D0009BB2013B9AB2FB68DA8600237B62FB68D0
:1055E0001B689B6803F00103012B19D1FB68DB8F5B
:1055F0009BB2002B14D0FB681B68DA68FB689B6BBE
:1056000092B21A80FB689B6B9A1CFB689A63FB68DA
:10561000DB8F9BB2013B9AB2FB68DA8701237B6286
:10562000FDF792FA02463B6AD31A3A6B9A420DD8BA
:105630003B6BB3F1FF3F09D0FB68012283F8512097
:10564000FB68002283F850200323BCE0FB68DB8E5C
:105650009BB2002BA0D1FB68DB8F9BB2002B9BD1B0
:1056600082E0FB685B68002B02D0FB8A012B71D1C2
:10567000FB681A6BFB681B680C3312781A70FB68A6
:105680001B6B5A1CFB681A63FB68DB8E9BB2013BE9
:105690009AB2FB68DA865DE0FB681B689B6803F0E2
:1056A0000203022B1CD1FB68DB8E9BB2002B17D0B0
:1056B0007B6A012B14D1FB681A6BFB681B680C33E7
:1056C00012781A70FB681B6B5A1CFB681A63FB6824
:1056D000DB8E9BB2013B9AB2FB68DA8600237B62C9
:1056E000FB681B689B6803F00103012B19D1FB6861
:1056F000DB8F9BB2002B14D0FB681B68DA68FB6859
:105700009B6BD2B21A70FB689B6B5A1CFB689A6346
:10571000FB68DB8F9BB2013B9AB2FB68DA870123FF
:105720007B62FDF711FA02463B6AD31A3A6B9A4242
:1057300003D83B6BB3F1FF3F02D13B6B002B09D188
:10574000FB68012283F85120FB68002283F8502077
:10575000032338E0FB68DB8E9BB2002B9CD1FB68F7
:10576000DB8F9BB2002B97D13A6A396BF86800F057
:10577000C3F80346002B08D0FB6820225A65FB685B
:10578000002283F8502001231DE0FB689B68002B5A
:105790000AD100233B61FB681B68DB683B61FB6847
:1057A0001B689B683B613B69FB68012283F85120C1
:1057B000FB68002283F85020FB685B6D002B01D052
:1057C000012300E0002318462837BD4680BD80B481
:1057D00083B000AF78607B6893F85130DBB2184635
:1057E0000C37BD4680BC704780B588B000AFF8600C
:1057F000B9603B601346FB71FDF7A6F90246BB6A30
:105800009B1A3A681344FB61FDF79EF9B861394B66
:105810001B685B011B0DFA6902FB03F37B6154E01B
:105820003B68B3F1FF3F50D0FDF78EF90246BB69EC
:10583000D31AFA699A4202D9FB69002B3DD1FB6861
:105840001B685A68FB681B6822F0E0025A60FB681C
:105850005B68B3F5827F11D1FB689B68B3F5004F9D
:1058600004D0FB689B68B3F5806F07D1FB681B68A9
:105870001A68FB681B6822F040021A60FB689B6A8A
:10588000B3F5005F0FD1FB681B681A68FB681B68E3
:1058900022F400521A60FB681B681A68FB681B68D8
:1058A00042F400521A60FB68012283F85120FB6821
:1058B000002283F85020032317E07B69002B01D1DD
:1058C0000023FB617B69013B7B61FB681B689A6875
:1058D000BB681340BA689A420CBF01230023DBB2B5
:1058E0001A46FB799A429BD1002318462037BD46C1
:1058F00080BD00BF0C00002080B586B002AFF8600C
:10590000B9607A607B680093BB6801220221F86865
:10591000FFF76AFF0346002B07D0FB685B6D43F07F
:105920002002FB685A65032313E07B680093BB6881
:1059300000228021F868FFF757FF0346002B07D0AD
:10594000FB685B6D43F02002FB685A65032300E0AF
:10595000002318461037BD4680BD80B582B000AF29
:1059600078607B68002B01D1012342E07B6893F8CB
:105970004130DBB2002B06D17B68002283F8402047
:105980007868FCF71FFF7B68242283F841207B683E
:105990001B68DA687B681B6822F40052DA6078685A
:1059A00000F072F97B681B681A697B681B6822F437
:1059B00090421A617B681B685A697B681B6822F0F9
:1059C0002A025A617B681B68DA687B681B6842F4AC
:1059D0000052DA607B6800225A647B68202283F8D8
:1059E00041207B68202283F842207B6800225A6392
:1059F000002318460837BD4680BD80B58AB002AF87
:105A0000F860B9603B601346FB8000237B61FB6854
:105A100093F84130DBB2202B75D1BB68002B02D04C
:105A2000FB88002B01D101236EE0FB6800225A6441
:105A3000FB68212283F84120FDF786F87861FB6836
:105A4000FA889A84FB68FA88DA84FB689B68B3F565
:105A5000805F08D1FB681B69002B04D10023FB6128
:105A6000BB68BB6103E0BB68FB610023BB612EE048
:105A70003B6800937B6900228021F86800F048F8B9
:105A80000346002B05D0FB68202283F84120032326
:105A90003AE0FB69002B0BD1BB691B881A46FB68F7
:105AA0001B68C2F308025A60BB690233BB6107E09E
:105AB000FB691A78FB681B685A60FB690133FB615C
:105AC000FB68DB8C9BB2013B9AB2FB68DA84FB6813
:105AD000DB8C9BB2002BCBD13B6800937B6900220F
